{"contracts/Market.sol":{"Market":{"abi":[{"inputs":[],"stateMutability":"nonpayable","type":"constructor"},{"anonymous":false,"inputs":[{"indexed":true,"internalType":"address","name":"account","type":"address"},{"indexed":true,"internalType":"address","name":"operator","type":"address"},{"indexed":false,"internalType":"bool","name":"approved","type":"bool"}],"name":"ApprovalForAll","type":"event"},{"anonymous":false,"inputs":[{"indexed":false,"internalType":"uint8","name":"version","type":"uint8"}],"name":"Initialized","type":"event"},{"anonymous":false,"inputs":[{"indexed":true,"internalType":"address","name":"previousOwner","type":"address"},{"indexed":true,"internalType":"address","name":"newOwner","type":"address"}],"name":"OwnershipTransferred","type":"event"},{"anonymous":false,"inputs":[{"indexed":false,"internalType":"address","name":"account","type":"address"}],"name":"Paused","type":"event"},{"anonymous":false,"inputs":[{"indexed":true,"internalType":"address","name":"operator","type":"address"},{"indexed":true,"internalType":"address","name":"from","type":"address"},{"indexed":true,"internalType":"address","name":"to","type":"address"},{"indexed":false,"internalType":"uint256[]","name":"ids","type":"uint256[]"},{"indexed":false,"internalType":"uint256[]","name":"values","type":"uint256[]"}],"name":"TransferBatch","type":"event"},{"anonymous":false,"inputs":[{"indexed":true,"internalType":"address","name":"operator","type":"address"},{"indexed":true,"internalType":"address","name":"from","type":"address"},{"indexed":true,"internalType":"address","name":"to","type":"address"},{"indexed":false,"internalType":"uint256","name":"id","type":"uint256"},{"indexed":false,"internalType":"uint256","name":"value","type":"uint256"}],"name":"TransferSingle","type":"event"},{"anonymous":false,"inputs":[{"indexed":false,"internalType":"string","name":"value","type":"string"},{"indexed":true,"internalType":"uint256","name":"id","type":"uint256"}],"name":"URI","type":"event"},{"anonymous":false,"inputs":[{"indexed":false,"internalType":"address","name":"account","type":"address"}],"name":"Unpaused","type":"event"},{"inputs":[{"internalType":"address","name":"account","type":"address"},{"internalType":"uint256","name":"id","type":"uint256"}],"name":"balanceOf","outputs":[{"internalType":"uint256","name":"","type":"uint256"}],"stateMutability":"view","type":"function"},{"inputs":[{"internalType":"address[]","name":"accounts","type":"address[]"},{"internalType":"uint256[]","name":"ids","type":"uint256[]"}],"name":"balanceOfBatch","outputs":[{"internalType":"uint256[]","name":"","type":"uint256[]"}],"stateMutability":"view","type":"function"},{"inputs":[{"internalType":"uint256","name":"id","type":"uint256"}],"name":"exists","outputs":[{"internalType":"bool","name":"","type":"bool"}],"stateMutability":"view","type":"function"},{"inputs":[],"name":"initialize","outputs":[],"stateMutability":"nonpayable","type":"function"},{"inputs":[{"internalType":"address","name":"account","type":"address"},{"internalType":"address","name":"operator","type":"address"}],"name":"isApprovedForAll","outputs":[{"internalType":"bool","name":"","type":"bool"}],"stateMutability":"view","type":"function"},{"inputs":[],"name":"owner","outputs":[{"internalType":"address","name":"","type":"address"}],"stateMutability":"view","type":"function"},{"inputs":[],"name":"pause","outputs":[],"stateMutability":"nonpayable","type":"function"},{"inputs":[],"name":"paused","outputs":[{"internalType":"bool","name":"","type":"bool"}],"stateMutability":"view","type":"function"},{"inputs":[],"name":"renounceOwnership","outputs":[],"stateMutability":"nonpayable","type":"function"},{"inputs":[{"internalType":"address","name":"from","type":"address"},{"internalType":"address","name":"to","type":"address"},{"internalType":"uint256[]","name":"ids","type":"uint256[]"},{"internalType":"uint256[]","name":"amounts","type":"uint256[]"},{"internalType":"bytes","name":"data","type":"bytes"}],"name":"safeBatchTransferFrom","outputs":[],"stateMutability":"nonpayable","type":"function"},{"inputs":[{"internalType":"address","name":"from","type":"address"},{"internalType":"address","name":"to","type":"address"},{"internalType":"uint256","name":"id","type":"uint256"},{"internalType":"uint256","name":"amount","type":"uint256"},{"internalType":"bytes","name":"data","type":"bytes"}],"name":"safeTransferFrom","outputs":[],"stateMutability":"nonpayable","type":"function"},{"inputs":[{"internalType":"address","name":"operator","type":"address"},{"internalType":"bool","name":"approved","type":"bool"}],"name":"setApprovalForAll","outputs":[],"stateMutability":"nonpayable","type":"function"},{"inputs":[{"internalType":"bytes4","name":"interfaceId","type":"bytes4"}],"name":"supportsInterface","outputs":[{"internalType":"bool","name":"","type":"bool"}],"stateMutability":"view","type":"function"},{"inputs":[{"internalType":"uint256","name":"id","type":"uint256"}],"name":"totalSupply","outputs":[{"internalType":"uint256","name":"","type":"uint256"}],"stateMutability":"view","type":"function"},{"inputs":[{"internalType":"address","name":"newOwner","type":"address"}],"name":"transferOwnership","outputs":[],"stateMutability":"nonpayable","type":"function"},{"inputs":[],"name":"unpause","outputs":[],"stateMutability":"nonpayable","type":"function"},{"inputs":[{"internalType":"uint256","name":"id","type":"uint256"}],"name":"uri","outputs":[{"internalType":"string","name":"","type":"string"}],"stateMutability":"view","type":"function"}],"evm":{"bytecode":{"linkReferences":{},"object":"60806040523480156200001157600080fd5b50620000226200003860201b60201c565b620000326200003860201b60201c565b620001e3565b600060019054906101000a900460ff16156200008b576040517f08c379a0000000000000000000000000000000000000000000000000000000008152600401620000829062000186565b60405180910390fd5b60ff801660008054906101000a900460ff1660ff161015620000fd5760ff6000806101000a81548160ff021916908360ff1602179055507f7f26b83ff96e1f2b6a682f133852f6798a09c465da95921460cefb384740249860ff604051620000f49190620001c6565b60405180910390a15b565b600082825260208201905092915050565b7f496e697469616c697a61626c653a20636f6e747261637420697320696e69746960008201527f616c697a696e6700000000000000000000000000000000000000000000000000602082015250565b60006200016e602783620000ff565b91506200017b8262000110565b604082019050919050565b60006020820190508181036000830152620001a1816200015f565b9050919050565b600060ff82169050919050565b620001c081620001a8565b82525050565b6000602082019050620001dd6000830184620001b5565b92915050565b61373780620001f36000396000f3fe608060405234801561001057600080fd5b506004361061010a5760003560e01c8063715018a6116100a2578063a22cb46511610071578063a22cb4651461027f578063bd85b0391461029b578063e985e9c5146102cb578063f242432a146102fb578063f2fde38b146103175761010a565b8063715018a6146102435780638129fc1c1461024d5780638456cb59146102575780638da5cb5b146102615761010a565b80633f4ba83a116100de5780633f4ba83a146101bb5780634e1273f4146101c55780634f558e79146101f55780635c975abb146102255761010a565b8062fdd58e1461010f57806301ffc9a71461013f5780630e89341c1461016f5780632eb2c2d61461019f575b600080fd5b61012960048036038101906101249190611f3b565b610333565b6040516101369190611f8a565b60405180910390f35b61015960048036038101906101549190611ffd565b6103fc565b6040516101669190612045565b60405180910390f35b61018960048036038101906101849190612060565b6104de565b604051610196919061211d565b60405180910390f35b6101b960048036038101906101b4919061233c565b6104f7565b005b6101c3610598565b005b6101df60048036038101906101da91906124ce565b6105aa565b6040516101ec9190612604565b60405180910390f35b61020f600480360381019061020a9190612060565b6106c3565b60405161021c9190612045565b60405180910390f35b61022d6106d7565b60405161023a9190612045565b60405180910390f35b61024b6106ee565b005b610255610702565b005b61025f610840565b005b610269610852565b6040516102769190612635565b60405180910390f35b6102996004803603810190610294919061267c565b61087c565b005b6102b560048036038101906102b09190612060565b610892565b6040516102c29190611f8a565b60405180910390f35b6102e560048036038101906102e091906126bc565b6108af565b6040516102f29190612045565b60405180910390f35b610315600480360381019061031091906126fc565b610943565b005b610331600480360381019061032c9190612793565b6109e4565b005b60008073ffffffffffffffffffffffffffffffffffffffff168373ffffffffffffffffffffffffffffffffffffffff16036103a3576040517f08c379a000000000000000000000000000000000000000000000000000000000815260040161039a90612832565b60405180910390fd5b6065600083815260200190815260200160002060008473ffffffffffffffffffffffffffffffffffffffff1673ffffffffffffffffffffffffffffffffffffffff16815260200190815260200160002054905092915050565b60007fd9b67a26000000000000000000000000000000000000000000000000000000007bffffffffffffffffffffffffffffffffffffffffffffffffffffffff1916827bffffffffffffffffffffffffffffffffffffffffffffffffffffffff191614806104c757507f0e89341c000000000000000000000000000000000000000000000000000000007bffffffffffffffffffffffffffffffffffffffffffffffffffffffff1916827bffffffffffffffffffffffffffffffffffffffffffffffffffffffff1916145b806104d757506104d682610a67565b5b9050919050565b6060604051806020016040528060008152509050919050565b6104ff610ad1565b73ffffffffffffffffffffffffffffffffffffffff168573ffffffffffffffffffffffffffffffffffffffff16148061054557506105448561053f610ad1565b6108af565b5b610584576040517f08c379a000000000000000000000000000000000000000000000000000000000815260040161057b906128c4565b60405180910390fd5b6105918585858585610ad9565b5050505050565b6105a0610dfd565b6105a8610e7b565b565b606081518351146105f0576040517f08c379a00000000000000000000000000000000000000000000000000000000081526004016105e790612956565b60405180910390fd5b6000835167ffffffffffffffff81111561060d5761060c612144565b5b60405190808252806020026020018201604052801561063b5781602001602082028036833780820191505090505b50905060005b84518110156106b8576106888582815181106106605761065f612976565b5b602002602001015185838151811061067b5761067a612976565b5b6020026020010151610333565b82828151811061069b5761069a612976565b5b602002602001018181525050806106b1906129d4565b9050610641565b508091505092915050565b6000806106cf83610892565b119050919050565b600060c960009054906101000a900460ff16905090565b6106f6610dfd565b6107006000610ede565b565b60008060019054906101000a900460ff161590508080156107335750600160008054906101000a900460ff1660ff16105b80610760575061074230610fa4565b15801561075f5750600160008054906101000a900460ff1660ff16145b5b61079f576040517f08c379a000000000000000000000000000000000000000000000000000000000815260040161079690612a8e565b60405180910390fd5b60016000806101000a81548160ff021916908360ff16021790555080156107dc576001600060016101000a81548160ff0219169083151502179055505b6107e4610fc7565b801561083d5760008060016101000a81548160ff0219169083151502179055507f7f26b83ff96e1f2b6a682f133852f6798a09c465da95921460cefb384740249860016040516108349190612b00565b60405180910390a15b50565b610848610dfd565b610850611125565b565b6000609760009054906101000a900473ffffffffffffffffffffffffffffffffffffffff16905090565b61088e610887610ad1565b8383611188565b5050565b600060fb6000838152602001908152602001600020549050919050565b6000606660008473ffffffffffffffffffffffffffffffffffffffff1673ffffffffffffffffffffffffffffffffffffffff16815260200190815260200160002060008373ffffffffffffffffffffffffffffffffffffffff1673ffffffffffffffffffffffffffffffffffffffff16815260200190815260200160002060009054906101000a900460ff16905092915050565b61094b610ad1565b73ffffffffffffffffffffffffffffffffffffffff168573ffffffffffffffffffffffffffffffffffffffff16148061099157506109908561098b610ad1565b6108af565b5b6109d0576040517f08c379a00000000000000000000000000000000000000000000000000000000081526004016109c7906128c4565b60405180910390fd5b6109dd85858585856112f4565b5050505050565b6109ec610dfd565b600073ffffffffffffffffffffffffffffffffffffffff168173ffffffffffffffffffffffffffffffffffffffff1603610a5b576040517f08c379a0000000000000000000000000000000000000000000000000000000008152600401610a5290612b8d565b60405180910390fd5b610a6481610ede565b50565b60007f01ffc9a7000000000000000000000000000000000000000000000000000000007bffffffffffffffffffffffffffffffffffffffffffffffffffffffff1916827bffffffffffffffffffffffffffffffffffffffffffffffffffffffff1916149050919050565b600033905090565b8151835114610b1d576040517f08c379a0000000000000000000000000000000000000000000000000000000008152600401610b1490612c1f565b60405180910390fd5b600073ffffffffffffffffffffffffffffffffffffffff168473ffffffffffffffffffffffffffffffffffffffff1603610b8c576040517f08c379a0000000000000000000000000000000000000000000000000000000008152600401610b8390612cb1565b60405180910390fd5b6000610b96610ad1565b9050610ba6818787878787611592565b60005b8451811015610d5a576000858281518110610bc757610bc6612976565b5b602002602001015190506000858381518110610be657610be5612976565b5b6020026020010151905060006065600084815260200190815260200160002060008b73ffffffffffffffffffffffffffffffffffffffff1673ffffffffffffffffffffffffffffffffffffffff16815260200190815260200160002054905081811015610c88576040517f08c379a0000000000000000000000000000000000000000000000000000000008152600401610c7f90612d43565b60405180910390fd5b8181036065600085815260200190815260200160002060008c73ffffffffffffffffffffffffffffffffffffffff1673ffffffffffffffffffffffffffffffffffffffff16815260200190815260200160002081905550816065600085815260200190815260200160002060008b73ffffffffffffffffffffffffffffffffffffffff1673ffffffffffffffffffffffffffffffffffffffff1681526020019081526020016000206000828254610d3f9190612d63565b9250508190555050505080610d53906129d4565b9050610ba9565b508473ffffffffffffffffffffffffffffffffffffffff168673ffffffffffffffffffffffffffffffffffffffff168273ffffffffffffffffffffffffffffffffffffffff167f4a39dc06d4c0dbc64b70af90fd698a233a518aa5d07e595d983b8c0526c8f7fb8787604051610dd1929190612d97565b60405180910390a4610de78187878787876115b0565b610df58187878787876115b8565b505050505050565b610e05610ad1565b73ffffffffffffffffffffffffffffffffffffffff16610e23610852565b73ffffffffffffffffffffffffffffffffffffffff1614610e79576040517f08c379a0000000000000000000000000000000000000000000000000000000008152600401610e7090612e1a565b60405180910390fd5b565b610e8361178f565b600060c960006101000a81548160ff0219169083151502179055507f5db9ee0a495bf2e6ff9c91a7834c1ba4fdd244a5e8aa4e537bd38aeae4b073aa610ec7610ad1565b604051610ed49190612635565b60405180910390a1565b6000609760009054906101000a900473ffffffffffffffffffffffffffffffffffffffff16905081609760006101000a81548173ffffffffffffffffffffffffffffffffffffffff021916908373ffffffffffffffffffffffffffffffffffffffff1602179055508173ffffffffffffffffffffffffffffffffffffffff168173ffffffffffffffffffffffffffffffffffffffff167f8be0079c531659141344cd1fd0a4f28419497f9722a3daafe3b4186f6b6457e060405160405180910390a35050565b6000808273ffffffffffffffffffffffffffffffffffffffff163b119050919050565b60008060019054906101000a900460ff16159050808015610ff85750600160008054906101000a900460ff1660ff16105b80611025575061100730610fa4565b1580156110245750600160008054906101000a900460ff1660ff16145b5b611064576040517f08c379a000000000000000000000000000000000000000000000000000000000815260040161105b90612a8e565b60405180910390fd5b60016000806101000a81548160ff021916908360ff16021790555080156110a1576001600060016101000a81548160ff0219169083151502179055505b6110b9604051806020016040528060008152506117d8565b6110c1611833565b6110c961188c565b80156111225760008060016101000a81548160ff0219169083151502179055507f7f26b83ff96e1f2b6a682f133852f6798a09c465da95921460cefb384740249860016040516111199190612b00565b60405180910390a15b50565b61112d6118e5565b600160c960006101000a81548160ff0219169083151502179055507f62e78cea01bee320cd4e420270b5ea74000d11b0c9f74754ebdbfc544b05a258611171610ad1565b60405161117e9190612635565b60405180910390a1565b8173ffffffffffffffffffffffffffffffffffffffff168373ffffffffffffffffffffffffffffffffffffffff16036111f6576040517f08c379a00000000000000000000000000000000000000000000000000000000081526004016111ed90612eac565b60405180910390fd5b80606660008573ffffffffffffffffffffffffffffffffffffffff1673ffffffffffffffffffffffffffffffffffffffff16815260200190815260200160002060008473ffffffffffffffffffffffffffffffffffffffff1673ffffffffffffffffffffffffffffffffffffffff16815260200190815260200160002060006101000a81548160ff0219169083151502179055508173ffffffffffffffffffffffffffffffffffffffff168373ffffffffffffffffffffffffffffffffffffffff167f17307eab39ab6107e8899845ad3d59bd9653f200f220920489ca2b5937696c31836040516112e79190612045565b60405180910390a3505050565b600073ffffffffffffffffffffffffffffffffffffffff168473ffffffffffffffffffffffffffffffffffffffff1603611363576040517f08c379a000000000000000000000000000000000000000000000000000000000815260040161135a90612cb1565b60405180910390fd5b600061136d610ad1565b9050600061137a8561192f565b905060006113878561192f565b9050611397838989858589611592565b60006065600088815260200190815260200160002060008a73ffffffffffffffffffffffffffffffffffffffff1673ffffffffffffffffffffffffffffffffffffffff1681526020019081526020016000205490508581101561142f576040517f08c379a000000000000000000000000000000000000000000000000000000000815260040161142690612d43565b60405180910390fd5b8581036065600089815260200190815260200160002060008b73ffffffffffffffffffffffffffffffffffffffff1673ffffffffffffffffffffffffffffffffffffffff16815260200190815260200160002081905550856065600089815260200190815260200160002060008a73ffffffffffffffffffffffffffffffffffffffff1673ffffffffffffffffffffffffffffffffffffffff16815260200190815260200160002060008282546114e69190612d63565b925050819055508773ffffffffffffffffffffffffffffffffffffffff168973ffffffffffffffffffffffffffffffffffffffff168573ffffffffffffffffffffffffffffffffffffffff167fc3d58168c5ae7397731d063d5bbf3d657854427343f4c083240f7aacaa2d0f628a8a604051611563929190612ecc565b60405180910390a4611579848a8a86868a6115b0565b611587848a8a8a8a8a6119a9565b505050505050505050565b61159a6118e5565b6115a8868686868686611b80565b505050505050565b505050505050565b6115d78473ffffffffffffffffffffffffffffffffffffffff16610fa4565b15611787578373ffffffffffffffffffffffffffffffffffffffff1663bc197c8187878686866040518663ffffffff1660e01b815260040161161d959493929190612f4a565b6020604051808303816000875af192505050801561165957506040513d601f19601f820116820180604052508101906116569190612fc7565b60015b6116fe57611665613001565b806308c379a0036116c15750611679613023565b8061168457506116c3565b806040517f08c379a00000000000000000000000000000000000000000000000000000000081526004016116b8919061211d565b60405180910390fd5b505b6040517f08c379a00000000000000000000000000000000000000000000000000000000081526004016116f590613125565b60405180910390fd5b63bc197c8160e01b7bffffffffffffffffffffffffffffffffffffffffffffffffffffffff1916817bffffffffffffffffffffffffffffffffffffffffffffffffffffffff191614611785576040517f08c379a000000000000000000000000000000000000000000000000000000000815260040161177c906131b7565b60405180910390fd5b505b505050505050565b6117976106d7565b6117d6576040517f08c379a00000000000000000000000000000000000000000000000000000000081526004016117cd90613223565b60405180910390fd5b565b600060019054906101000a900460ff16611827576040517f08c379a000000000000000000000000000000000000000000000000000000000815260040161181e906132b5565b60405180910390fd5b61183081611d50565b50565b600060019054906101000a900460ff16611882576040517f08c379a0000000000000000000000000000000000000000000000000000000008152600401611879906132b5565b60405180910390fd5b61188a611dab565b565b600060019054906101000a900460ff166118db576040517f08c379a00000000000000000000000000000000000000000000000000000000081526004016118d2906132b5565b60405180910390fd5b6118e3611e0c565b565b6118ed6106d7565b1561192d576040517f08c379a000000000000000000000000000000000000000000000000000000000815260040161192490613321565b60405180910390fd5b565b60606000600167ffffffffffffffff81111561194e5761194d612144565b5b60405190808252806020026020018201604052801561197c5781602001602082028036833780820191505090505b509050828160008151811061199457611993612976565b5b60200260200101818152505080915050919050565b6119c88473ffffffffffffffffffffffffffffffffffffffff16610fa4565b15611b78578373ffffffffffffffffffffffffffffffffffffffff1663f23a6e6187878686866040518663ffffffff1660e01b8152600401611a0e959493929190613341565b6020604051808303816000875af1925050508015611a4a57506040513d601f19601f82011682018060405250810190611a479190612fc7565b60015b611aef57611a56613001565b806308c379a003611ab25750611a6a613023565b80611a755750611ab4565b806040517f08c379a0000000000000000000000000000000000000000000000000000000008152600401611aa9919061211d565b60405180910390fd5b505b6040517f08c379a0000000000000000000000000000000000000000000000000000000008152600401611ae690613125565b60405180910390fd5b63f23a6e6160e01b7bffffffffffffffffffffffffffffffffffffffffffffffffffffffff1916817bffffffffffffffffffffffffffffffffffffffffffffffffffffffff191614611b76576040517f08c379a0000000000000000000000000000000000000000000000000000000008152600401611b6d906131b7565b60405180910390fd5b505b505050505050565b611b8e868686868686611e78565b600073ffffffffffffffffffffffffffffffffffffffff168573ffffffffffffffffffffffffffffffffffffffff1603611c3f5760005b8351811015611c3d57828181518110611be157611be0612976565b5b602002602001015160fb6000868481518110611c0057611bff612976565b5b602002602001015181526020019081526020016000206000828254611c259190612d63565b9250508190555080611c36906129d4565b9050611bc5565b505b600073ffffffffffffffffffffffffffffffffffffffff168473ffffffffffffffffffffffffffffffffffffffff1603611d485760005b8351811015611d46576000848281518110611c9457611c93612976565b5b602002602001015190506000848381518110611cb357611cb2612976565b5b60200260200101519050600060fb600084815260200190815260200160002054905081811015611d18576040517f08c379a0000000000000000000000000000000000000000000000000000000008152600401611d0f9061340d565b60405180910390fd5b81810360fb60008581526020019081526020016000208190555050505080611d3f906129d4565b9050611c76565b505b505050505050565b600060019054906101000a900460ff16611d9f576040517f08c379a0000000000000000000000000000000000000000000000000000000008152600401611d96906132b5565b60405180910390fd5b611da881611e80565b50565b600060019054906101000a900460ff16611dfa576040517f08c379a0000000000000000000000000000000000000000000000000000000008152600401611df1906132b5565b60405180910390fd5b611e0a611e05610ad1565b610ede565b565b600060019054906101000a900460ff16611e5b576040517f08c379a0000000000000000000000000000000000000000000000000000000008152600401611e52906132b5565b60405180910390fd5b600060c960006101000a81548160ff021916908315150217905550565b505050505050565b8060679081611e8f919061362f565b5050565b6000604051905090565b600080fd5b600080fd5b600073ffffffffffffffffffffffffffffffffffffffff82169050919050565b6000611ed282611ea7565b9050919050565b611ee281611ec7565b8114611eed57600080fd5b50565b600081359050611eff81611ed9565b92915050565b6000819050919050565b611f1881611f05565b8114611f2357600080fd5b50565b600081359050611f3581611f0f565b92915050565b60008060408385031215611f5257611f51611e9d565b5b6000611f6085828601611ef0565b9250506020611f7185828601611f26565b9150509250929050565b611f8481611f05565b82525050565b6000602082019050611f9f6000830184611f7b565b92915050565b60007fffffffff0000000000000000000000000000000000000000000000000000000082169050919050565b611fda81611fa5565b8114611fe557600080fd5b50565b600081359050611ff781611fd1565b92915050565b60006020828403121561201357612012611e9d565b5b600061202184828501611fe8565b91505092915050565b60008115159050919050565b61203f8161202a565b82525050565b600060208201905061205a6000830184612036565b92915050565b60006020828403121561207657612075611e9d565b5b600061208484828501611f26565b91505092915050565b600081519050919050565b600082825260208201905092915050565b60005b838110156120c75780820151818401526020810190506120ac565b60008484015250505050565b6000601f19601f8301169050919050565b60006120ef8261208d565b6120f98185612098565b93506121098185602086016120a9565b612112816120d3565b840191505092915050565b6000602082019050818103600083015261213781846120e4565b905092915050565b600080fd5b7f4e487b7100000000000000000000000000000000000000000000000000000000600052604160045260246000fd5b61217c826120d3565b810181811067ffffffffffffffff8211171561219b5761219a612144565b5b80604052505050565b60006121ae611e93565b90506121ba8282612173565b919050565b600067ffffffffffffffff8211156121da576121d9612144565b5b602082029050602081019050919050565b600080fd5b60006122036121fe846121bf565b6121a4565b90508083825260208201905060208402830185811115612226576122256121eb565b5b835b8181101561224f578061223b8882611f26565b845260208401935050602081019050612228565b5050509392505050565b600082601f83011261226e5761226d61213f565b5b813561227e8482602086016121f0565b91505092915050565b600080fd5b600067ffffffffffffffff8211156122a7576122a6612144565b5b6122b0826120d3565b9050602081019050919050565b82818337600083830152505050565b60006122df6122da8461228c565b6121a4565b9050828152602081018484840111156122fb576122fa612287565b5b6123068482856122bd565b509392505050565b600082601f8301126123235761232261213f565b5b81356123338482602086016122cc565b91505092915050565b600080600080600060a0868803121561235857612357611e9d565b5b600061236688828901611ef0565b955050602061237788828901611ef0565b945050604086013567ffffffffffffffff81111561239857612397611ea2565b5b6123a488828901612259565b935050606086013567ffffffffffffffff8111156123c5576123c4611ea2565b5b6123d188828901612259565b925050608086013567ffffffffffffffff8111156123f2576123f1611ea2565b5b6123fe8882890161230e565b9150509295509295909350565b600067ffffffffffffffff82111561242657612425612144565b5b602082029050602081019050919050565b600061244a6124458461240b565b6121a4565b9050808382526020820190506020840283018581111561246d5761246c6121eb565b5b835b8181101561249657806124828882611ef0565b84526020840193505060208101905061246f565b5050509392505050565b600082601f8301126124b5576124b461213f565b5b81356124c5848260208601612437565b91505092915050565b600080604083850312156124e5576124e4611e9d565b5b600083013567ffffffffffffffff81111561250357612502611ea2565b5b61250f858286016124a0565b925050602083013567ffffffffffffffff8111156125305761252f611ea2565b5b61253c85828601612259565b9150509250929050565b600081519050919050565b600082825260208201905092915050565b6000819050602082019050919050565b61257b81611f05565b82525050565b600061258d8383612572565b60208301905092915050565b6000602082019050919050565b60006125b182612546565b6125bb8185612551565b93506125c683612562565b8060005b838110156125f75781516125de8882612581565b97506125e983612599565b9250506001810190506125ca565b5085935050505092915050565b6000602082019050818103600083015261261e81846125a6565b905092915050565b61262f81611ec7565b82525050565b600060208201905061264a6000830184612626565b92915050565b6126598161202a565b811461266457600080fd5b50565b60008135905061267681612650565b92915050565b6000806040838503121561269357612692611e9d565b5b60006126a185828601611ef0565b92505060206126b285828601612667565b9150509250929050565b600080604083850312156126d3576126d2611e9d565b5b60006126e185828601611ef0565b92505060206126f285828601611ef0565b9150509250929050565b600080600080600060a0868803121561271857612717611e9d565b5b600061272688828901611ef0565b955050602061273788828901611ef0565b945050604061274888828901611f26565b935050606061275988828901611f26565b925050608086013567ffffffffffffffff81111561277a57612779611ea2565b5b6127868882890161230e565b9150509295509295909350565b6000602082840312156127a9576127a8611e9d565b5b60006127b784828501611ef0565b91505092915050565b7f455243313135353a2061646472657373207a65726f206973206e6f742061207660008201527f616c6964206f776e657200000000000000000000000000000000000000000000602082015250565b600061281c602a83612098565b9150612827826127c0565b604082019050919050565b6000602082019050818103600083015261284b8161280f565b9050919050565b7f455243313135353a2063616c6c6572206973206e6f7420746f6b656e206f776e60008201527f6572206f7220617070726f766564000000000000000000000000000000000000602082015250565b60006128ae602e83612098565b91506128b982612852565b604082019050919050565b600060208201905081810360008301526128dd816128a1565b9050919050565b7f455243313135353a206163636f756e747320616e6420696473206c656e67746860008201527f206d69736d617463680000000000000000000000000000000000000000000000602082015250565b6000612940602983612098565b915061294b826128e4565b604082019050919050565b6000602082019050818103600083015261296f81612933565b9050919050565b7f4e487b7100000000000000000000000000000000000000000000000000000000600052603260045260246000fd5b7f4e487b7100000000000000000000000000000000000000000000000000000000600052601160045260246000fd5b60006129df82611f05565b91507fffffffffffffffffffffffffffffffffffffffffffffffffffffffffffffffff8203612a1157612a106129a5565b5b600182019050919050565b7f496e697469616c697a61626c653a20636f6e747261637420697320616c72656160008201527f647920696e697469616c697a6564000000000000000000000000000000000000602082015250565b6000612a78602e83612098565b9150612a8382612a1c565b604082019050919050565b60006020820190508181036000830152612aa781612a6b565b9050919050565b6000819050919050565b600060ff82169050919050565b6000819050919050565b6000612aea612ae5612ae084612aae565b612ac5565b612ab8565b9050919050565b612afa81612acf565b82525050565b6000602082019050612b156000830184612af1565b92915050565b7f4f776e61626c653a206e6577206f776e657220697320746865207a65726f206160008201527f6464726573730000000000000000000000000000000000000000000000000000602082015250565b6000612b77602683612098565b9150612b8282612b1b565b604082019050919050565b60006020820190508181036000830152612ba681612b6a565b9050919050565b7f455243313135353a2069647320616e6420616d6f756e7473206c656e6774682060008201527f6d69736d61746368000000000000000000000000000000000000000000000000602082015250565b6000612c09602883612098565b9150612c1482612bad565b604082019050919050565b60006020820190508181036000830152612c3881612bfc565b9050919050565b7f455243313135353a207472616e7366657220746f20746865207a65726f20616460008201527f6472657373000000000000000000000000000000000000000000000000000000602082015250565b6000612c9b602583612098565b9150612ca682612c3f565b604082019050919050565b60006020820190508181036000830152612cca81612c8e565b9050919050565b7f455243313135353a20696e73756666696369656e742062616c616e636520666f60008201527f72207472616e7366657200000000000000000000000000000000000000000000602082015250565b6000612d2d602a83612098565b9150612d3882612cd1565b604082019050919050565b60006020820190508181036000830152612d5c81612d20565b9050919050565b6000612d6e82611f05565b9150612d7983611f05565b9250828201905080821115612d9157612d906129a5565b5b92915050565b60006040820190508181036000830152612db181856125a6565b90508181036020830152612dc581846125a6565b90509392505050565b7f4f776e61626c653a2063616c6c6572206973206e6f7420746865206f776e6572600082015250565b6000612e04602083612098565b9150612e0f82612dce565b602082019050919050565b60006020820190508181036000830152612e3381612df7565b9050919050565b7f455243313135353a2073657474696e6720617070726f76616c2073746174757360008201527f20666f722073656c660000000000000000000000000000000000000000000000602082015250565b6000612e96602983612098565b9150612ea182612e3a565b604082019050919050565b60006020820190508181036000830152612ec581612e89565b9050919050565b6000604082019050612ee16000830185611f7b565b612eee6020830184611f7b565b9392505050565b600081519050919050565b600082825260208201905092915050565b6000612f1c82612ef5565b612f268185612f00565b9350612f368185602086016120a9565b612f3f816120d3565b840191505092915050565b600060a082019050612f5f6000830188612626565b612f6c6020830187612626565b8181036040830152612f7e81866125a6565b90508181036060830152612f9281856125a6565b90508181036080830152612fa68184612f11565b90509695505050505050565b600081519050612fc181611fd1565b92915050565b600060208284031215612fdd57612fdc611e9d565b5b6000612feb84828501612fb2565b91505092915050565b60008160e01c9050919050565b600060033d11156130205760046000803e61301d600051612ff4565b90505b90565b600060443d106130b057613035611e93565b60043d036004823e80513d602482011167ffffffffffffffff8211171561305d5750506130b0565b808201805167ffffffffffffffff81111561307b57505050506130b0565b80602083010160043d0385018111156130985750505050506130b0565b6130a782602001850186612173565b82955050505050505b90565b7f455243313135353a207472616e7366657220746f206e6f6e2d4552433131353560008201527f526563656976657220696d706c656d656e746572000000000000000000000000602082015250565b600061310f603483612098565b915061311a826130b3565b604082019050919050565b6000602082019050818103600083015261313e81613102565b9050919050565b7f455243313135353a204552433131353552656365697665722072656a6563746560008201527f6420746f6b656e73000000000000000000000000000000000000000000000000602082015250565b60006131a1602883612098565b91506131ac82613145565b604082019050919050565b600060208201905081810360008301526131d081613194565b9050919050565b7f5061757361626c653a206e6f7420706175736564000000000000000000000000600082015250565b600061320d601483612098565b9150613218826131d7565b602082019050919050565b6000602082019050818103600083015261323c81613200565b9050919050565b7f496e697469616c697a61626c653a20636f6e7472616374206973206e6f74206960008201527f6e697469616c697a696e67000000000000000000000000000000000000000000602082015250565b600061329f602b83612098565b91506132aa82613243565b604082019050919050565b600060208201905081810360008301526132ce81613292565b9050919050565b7f5061757361626c653a2070617573656400000000000000000000000000000000600082015250565b600061330b601083612098565b9150613316826132d5565b602082019050919050565b6000602082019050818103600083015261333a816132fe565b9050919050565b600060a0820190506133566000830188612626565b6133636020830187612626565b6133706040830186611f7b565b61337d6060830185611f7b565b818103608083015261338f8184612f11565b90509695505050505050565b7f455243313135353a206275726e20616d6f756e74206578636565647320746f7460008201527f616c537570706c79000000000000000000000000000000000000000000000000602082015250565b60006133f7602883612098565b91506134028261339b565b604082019050919050565b60006020820190508181036000830152613426816133ea565b9050919050565b7f4e487b7100000000000000000000000000000000000000000000000000000000600052602260045260246000fd5b6000600282049050600182168061347457607f821691505b6020821081036134875761348661342d565b5b50919050565b60008190508160005260206000209050919050565b60006020601f8301049050919050565b600082821b905092915050565b6000600883026134ef7fffffffffffffffffffffffffffffffffffffffffffffffffffffffffffffffff826134b2565b6134f986836134b2565b95508019841693508086168417925050509392505050565b600061352c61352761352284611f05565b612ac5565b611f05565b9050919050565b6000819050919050565b61354683613511565b61355a61355282613533565b8484546134bf565b825550505050565b600090565b61356f613562565b61357a81848461353d565b505050565b5b8181101561359e57613593600082613567565b600181019050613580565b5050565b601f8211156135e3576135b48161348d565b6135bd846134a2565b810160208510156135cc578190505b6135e06135d8856134a2565b83018261357f565b50505b505050565b600082821c905092915050565b6000613606600019846008026135e8565b1980831691505092915050565b600061361f83836135f5565b9150826002028217905092915050565b6136388261208d565b67ffffffffffffffff81111561365157613650612144565b5b61365b825461345c565b6136668282856135a2565b600060209050601f8311600181146136995760008415613687578287015190505b6136918582613613565b8655506136f9565b601f1984166136a78661348d565b60005b828110156136cf578489015182556001820191506020850194506020810190506136aa565b868310156136ec57848901516136e8601f8916826135f5565b8355505b6001600288020188555050505b50505050505056fea26469706673582212204c72e8cec54f3ca839f28004f985b45c9b1d1161159d9ef64bff2ef497c5896964736f6c63430008130033","opcodes":"PUSH1 0x80 PUSH1 0x40 MSTORE CALLVALUE DUP1 ISZERO PUSH3 0x11 JUMPI PUSH1 0x0 DUP1 REVERT JUMPDEST POP PUSH3 0x22 PUSH3 0x38 PUSH1 0x20 SHL PUSH1 0x20 SHR JUMP JUMPDEST PUSH3 0x32 PUSH3 0x38 PUSH1 0x20 SHL PUSH1 0x20 SHR JUMP JUMPDEST PUSH3 0x1E3 JUMP JUMPDEST PUSH1 0x0 PUSH1 0x1 SWAP1 SLOAD SWAP1 PUSH2 0x100 EXP SWAP1 DIV PUSH1 0xFF AND ISZERO PUSH3 0x8B JUMPI PUSH1 0x40 MLOAD PUSH32 0x8C379A000000000000000000000000000000000000000000000000000000000 DUP2 MSTORE PUSH1 0x4 ADD PUSH3 0x82 SWAP1 PUSH3 0x186 JUMP JUMPDEST PUSH1 0x40 MLOAD DUP1 SWAP2 SUB SWAP1 REVERT JUMPDEST PUSH1 0xFF DUP1 AND PUSH1 0x0 DUP1 SLOAD SWAP1 PUSH2 0x100 EXP SWAP1 DIV PUSH1 0xFF AND PUSH1 0xFF AND LT ISZERO PUSH3 0xFD JUMPI PUSH1 0xFF PUSH1 0x0 DUP1 PUSH2 0x100 EXP DUP2 SLOAD DUP2 PUSH1 0xFF MUL NOT AND SWAP1 DUP4 PUSH1 0xFF AND MUL OR SWAP1 SSTORE POP PUSH32 0x7F26B83FF96E1F2B6A682F133852F6798A09C465DA95921460CEFB3847402498 PUSH1 0xFF PUSH1 0x40 MLOAD PUSH3 0xF4 SWAP2 SWAP1 PUSH3 0x1C6 JUMP JUMPDEST PUSH1 0x40 MLOAD DUP1 SWAP2 SUB SWAP1 LOG1 JUMPDEST JUMP JUMPDEST PUSH1 0x0 DUP3 DUP3 MSTORE PUSH1 0x20 DUP3 ADD SWAP1 POP SWAP3 SWAP2 POP POP JUMP JUMPDEST PUSH32 0x496E697469616C697A61626C653A20636F6E747261637420697320696E697469 PUSH1 0x0 DUP3 ADD MSTORE PUSH32 0x616C697A696E6700000000000000000000000000000000000000000000000000 PUSH1 0x20 DUP3 ADD MSTORE POP JUMP JUMPDEST PUSH1 0x0 PUSH3 0x16E PUSH1 0x27 DUP4 PUSH3 0xFF JUMP JUMPDEST SWAP2 POP PUSH3 0x17B DUP3 PUSH3 0x110 JUMP JUMPDEST PUSH1 0x40 DUP3 ADD SWAP1 POP SWAP2 SWAP1 POP JUMP JUMPDEST PUSH1 0x0 PUSH1 0x20 DUP3 ADD SWAP1 POP DUP2 DUP2 SUB PUSH1 0x0 DUP4 ADD MSTORE PUSH3 0x1A1 DUP2 PUSH3 0x15F JUMP JUMPDEST SWAP1 POP SWAP2 SWAP1 POP JUMP JUMPDEST PUSH1 0x0 PUSH1 0xFF DUP3 AND SWAP1 POP SWAP2 SWAP1 POP JUMP JUMPDEST PUSH3 0x1C0 DUP2 PUSH3 0x1A8 JUMP JUMPDEST DUP3 MSTORE POP POP JUMP JUMPDEST PUSH1 0x0 PUSH1 0x20 DUP3 ADD SWAP1 POP PUSH3 0x1DD PUSH1 0x0 DUP4 ADD DUP5 PUSH3 0x1B5 JUMP JUMPDEST SWAP3 SWAP2 POP POP JUMP JUMPDEST PUSH2 0x3737 DUP1 PUSH3 0x1F3 PUSH1 0x0 CODECOPY PUSH1 0x0 RETURN INVALID PUSH1 0x80 PUSH1 0x40 MSTORE CALLVALUE DUP1 ISZERO PUSH2 0x10 JUMPI PUSH1 0x0 DUP1 REVERT JUMPDEST POP PUSH1 0x4 CALLDATASIZE LT PUSH2 0x10A JUMPI PUSH1 0x0 CALLDATALOAD PUSH1 0xE0 SHR DUP1 PUSH4 0x715018A6 GT PUSH2 0xA2 JUMPI DUP1 PUSH4 0xA22CB465 GT PUSH2 0x71 JUMPI DUP1 PUSH4 0xA22CB465 EQ PUSH2 0x27F JUMPI DUP1 PUSH4 0xBD85B039 EQ PUSH2 0x29B JUMPI DUP1 PUSH4 0xE985E9C5 EQ PUSH2 0x2CB JUMPI DUP1 PUSH4 0xF242432A EQ PUSH2 0x2FB JUMPI DUP1 PUSH4 0xF2FDE38B EQ PUSH2 0x317 JUMPI PUSH2 0x10A JUMP JUMPDEST DUP1 PUSH4 0x715018A6 EQ PUSH2 0x243 JUMPI DUP1 PUSH4 0x8129FC1C EQ PUSH2 0x24D JUMPI DUP1 PUSH4 0x8456CB59 EQ PUSH2 0x257 JUMPI DUP1 PUSH4 0x8DA5CB5B EQ PUSH2 0x261 JUMPI PUSH2 0x10A JUMP JUMPDEST DUP1 PUSH4 0x3F4BA83A GT PUSH2 0xDE JUMPI DUP1 PUSH4 0x3F4BA83A EQ PUSH2 0x1BB JUMPI DUP1 PUSH4 0x4E1273F4 EQ PUSH2 0x1C5 JUMPI DUP1 PUSH4 0x4F558E79 EQ PUSH2 0x1F5 JUMPI DUP1 PUSH4 0x5C975ABB EQ PUSH2 0x225 JUMPI PUSH2 0x10A JUMP JUMPDEST DUP1 PUSH3 0xFDD58E EQ PUSH2 0x10F JUMPI DUP1 PUSH4 0x1FFC9A7 EQ PUSH2 0x13F JUMPI DUP1 PUSH4 0xE89341C EQ PUSH2 0x16F JUMPI DUP1 PUSH4 0x2EB2C2D6 EQ PUSH2 0x19F JUMPI JUMPDEST PUSH1 0x0 DUP1 REVERT JUMPDEST PUSH2 0x129 PUSH1 0x4 DUP1 CALLDATASIZE SUB DUP2 ADD SWAP1 PUSH2 0x124 SWAP2 SWAP1 PUSH2 0x1F3B JUMP JUMPDEST PUSH2 0x333 JUMP JUMPDEST PUSH1 0x40 MLOAD PUSH2 0x136 SWAP2 SWAP1 PUSH2 0x1F8A JUMP JUMPDEST PUSH1 0x40 MLOAD DUP1 SWAP2 SUB SWAP1 RETURN JUMPDEST PUSH2 0x159 PUSH1 0x4 DUP1 CALLDATASIZE SUB DUP2 ADD SWAP1 PUSH2 0x154 SWAP2 SWAP1 PUSH2 0x1FFD JUMP JUMPDEST PUSH2 0x3FC JUMP JUMPDEST PUSH1 0x40 MLOAD PUSH2 0x166 SWAP2 SWAP1 PUSH2 0x2045 JUMP JUMPDEST PUSH1 0x40 MLOAD DUP1 SWAP2 SUB SWAP1 RETURN JUMPDEST PUSH2 0x189 PUSH1 0x4 DUP1 CALLDATASIZE SUB DUP2 ADD SWAP1 PUSH2 0x184 SWAP2 SWAP1 PUSH2 0x2060 JUMP JUMPDEST PUSH2 0x4DE JUMP JUMPDEST PUSH1 0x40 MLOAD PUSH2 0x196 SWAP2 SWAP1 PUSH2 0x211D JUMP JUMPDEST PUSH1 0x40 MLOAD DUP1 SWAP2 SUB SWAP1 RETURN JUMPDEST PUSH2 0x1B9 PUSH1 0x4 DUP1 CALLDATASIZE SUB DUP2 ADD SWAP1 PUSH2 0x1B4 SWAP2 SWAP1 PUSH2 0x233C JUMP JUMPDEST PUSH2 0x4F7 JUMP JUMPDEST STOP JUMPDEST PUSH2 0x1C3 PUSH2 0x598 JUMP JUMPDEST STOP JUMPDEST PUSH2 0x1DF PUSH1 0x4 DUP1 CALLDATASIZE SUB DUP2 ADD SWAP1 PUSH2 0x1DA SWAP2 SWAP1 PUSH2 0x24CE JUMP JUMPDEST PUSH2 0x5AA JUMP JUMPDEST PUSH1 0x40 MLOAD PUSH2 0x1EC SWAP2 SWAP1 PUSH2 0x2604 JUMP JUMPDEST PUSH1 0x40 MLOAD DUP1 SWAP2 SUB SWAP1 RETURN JUMPDEST PUSH2 0x20F PUSH1 0x4 DUP1 CALLDATASIZE SUB DUP2 ADD SWAP1 PUSH2 0x20A SWAP2 SWAP1 PUSH2 0x2060 JUMP JUMPDEST PUSH2 0x6C3 JUMP JUMPDEST PUSH1 0x40 MLOAD PUSH2 0x21C SWAP2 SWAP1 PUSH2 0x2045 JUMP JUMPDEST PUSH1 0x40 MLOAD DUP1 SWAP2 SUB SWAP1 RETURN JUMPDEST PUSH2 0x22D PUSH2 0x6D7 JUMP JUMPDEST PUSH1 0x40 MLOAD PUSH2 0x23A SWAP2 SWAP1 PUSH2 0x2045 JUMP JUMPDEST PUSH1 0x40 MLOAD DUP1 SWAP2 SUB SWAP1 RETURN JUMPDEST PUSH2 0x24B PUSH2 0x6EE JUMP JUMPDEST STOP JUMPDEST PUSH2 0x255 PUSH2 0x702 JUMP JUMPDEST STOP JUMPDEST PUSH2 0x25F PUSH2 0x840 JUMP JUMPDEST STOP JUMPDEST PUSH2 0x269 PUSH2 0x852 JUMP JUMPDEST PUSH1 0x40 MLOAD PUSH2 0x276 SWAP2 SWAP1 PUSH2 0x2635 JUMP JUMPDEST PUSH1 0x40 MLOAD DUP1 SWAP2 SUB SWAP1 RETURN JUMPDEST PUSH2 0x299 PUSH1 0x4 DUP1 CALLDATASIZE SUB DUP2 ADD SWAP1 PUSH2 0x294 SWAP2 SWAP1 PUSH2 0x267C JUMP JUMPDEST PUSH2 0x87C JUMP JUMPDEST STOP JUMPDEST PUSH2 0x2B5 PUSH1 0x4 DUP1 CALLDATASIZE SUB DUP2 ADD SWAP1 PUSH2 0x2B0 SWAP2 SWAP1 PUSH2 0x2060 JUMP JUMPDEST PUSH2 0x892 JUMP JUMPDEST PUSH1 0x40 MLOAD PUSH2 0x2C2 SWAP2 SWAP1 PUSH2 0x1F8A JUMP JUMPDEST PUSH1 0x40 MLOAD DUP1 SWAP2 SUB SWAP1 RETURN JUMPDEST PUSH2 0x2E5 PUSH1 0x4 DUP1 CALLDATASIZE SUB DUP2 ADD SWAP1 PUSH2 0x2E0 SWAP2 SWAP1 PUSH2 0x26BC JUMP JUMPDEST PUSH2 0x8AF JUMP JUMPDEST PUSH1 0x40 MLOAD PUSH2 0x2F2 SWAP2 SWAP1 PUSH2 0x2045 JUMP JUMPDEST PUSH1 0x40 MLOAD DUP1 SWAP2 SUB SWAP1 RETURN JUMPDEST PUSH2 0x315 PUSH1 0x4 DUP1 CALLDATASIZE SUB DUP2 ADD SWAP1 PUSH2 0x310 SWAP2 SWAP1 PUSH2 0x26FC JUMP JUMPDEST PUSH2 0x943 JUMP JUMPDEST STOP JUMPDEST PUSH2 0x331 PUSH1 0x4 DUP1 CALLDATASIZE SUB DUP2 ADD SWAP1 PUSH2 0x32C SWAP2 SWAP1 PUSH2 0x2793 JUMP JUMPDEST PUSH2 0x9E4 JUMP JUMPDEST STOP JUMPDEST PUSH1 0x0 DUP1 PUSH20 0xFFFFFFFFFFFFFFFFFFFFFFFFFFFFFFFFFFFFFFFF AND DUP4 PUSH20 0xFFFFFFFFFFFFFFFFFFFFFFFFFFFFFFFFFFFFFFFF AND SUB PUSH2 0x3A3 JUMPI PUSH1 0x40 MLOAD PUSH32 0x8C379A000000000000000000000000000000000000000000000000000000000 DUP2 MSTORE PUSH1 0x4 ADD PUSH2 0x39A SWAP1 PUSH2 0x2832 JUMP JUMPDEST PUSH1 0x40 MLOAD DUP1 SWAP2 SUB SWAP1 REVERT JUMPDEST PUSH1 0x65 PUSH1 0x0 DUP4 DUP2 MSTORE PUSH1 0x20 ADD SWAP1 DUP2 MSTORE PUSH1 0x20 ADD PUSH1 0x0 KECCAK256 PUSH1 0x0 DUP5 PUSH20 0xFFFFFFFFFFFFFFFFFFFFFFFFFFFFFFFFFFFFFFFF AND PUSH20 0xFFFFFFFFFFFFFFFFFFFFFFFFFFFFFFFFFFFFFFFF AND DUP2 MSTORE PUSH1 0x20 ADD SWAP1 DUP2 MSTORE PUSH1 0x20 ADD PUSH1 0x0 KECCAK256 SLOAD SWAP1 POP SWAP3 SWAP2 POP POP JUMP JUMPDEST PUSH1 0x0 PUSH32 0xD9B67A2600000000000000000000000000000000000000000000000000000000 PUSH28 0xFFFFFFFFFFFFFFFFFFFFFFFFFFFFFFFFFFFFFFFFFFFFFFFFFFFFFFFF NOT AND DUP3 PUSH28 0xFFFFFFFFFFFFFFFFFFFFFFFFFFFFFFFFFFFFFFFFFFFFFFFFFFFFFFFF NOT AND EQ DUP1 PUSH2 0x4C7 JUMPI POP PUSH32 0xE89341C00000000000000000000000000000000000000000000000000000000 PUSH28 0xFFFFFFFFFFFFFFFFFFFFFFFFFFFFFFFFFFFFFFFFFFFFFFFFFFFFFFFF NOT AND DUP3 PUSH28 0xFFFFFFFFFFFFFFFFFFFFFFFFFFFFFFFFFFFFFFFFFFFFFFFFFFFFFFFF NOT AND EQ JUMPDEST DUP1 PUSH2 0x4D7 JUMPI POP PUSH2 0x4D6 DUP3 PUSH2 0xA67 JUMP JUMPDEST JUMPDEST SWAP1 POP SWAP2 SWAP1 POP JUMP JUMPDEST PUSH1 0x60 PUSH1 0x40 MLOAD DUP1 PUSH1 0x20 ADD PUSH1 0x40 MSTORE DUP1 PUSH1 0x0 DUP2 MSTORE POP SWAP1 POP SWAP2 SWAP1 POP JUMP JUMPDEST PUSH2 0x4FF PUSH2 0xAD1 JUMP JUMPDEST PUSH20 0xFFFFFFFFFFFFFFFFFFFFFFFFFFFFFFFFFFFFFFFF AND DUP6 PUSH20 0xFFFFFFFFFFFFFFFFFFFFFFFFFFFFFFFFFFFFFFFF AND EQ DUP1 PUSH2 0x545 JUMPI POP PUSH2 0x544 DUP6 PUSH2 0x53F PUSH2 0xAD1 JUMP JUMPDEST PUSH2 0x8AF JUMP JUMPDEST JUMPDEST PUSH2 0x584 JUMPI PUSH1 0x40 MLOAD PUSH32 0x8C379A000000000000000000000000000000000000000000000000000000000 DUP2 MSTORE PUSH1 0x4 ADD PUSH2 0x57B SWAP1 PUSH2 0x28C4 JUMP JUMPDEST PUSH1 0x40 MLOAD DUP1 SWAP2 SUB SWAP1 REVERT JUMPDEST PUSH2 0x591 DUP6 DUP6 DUP6 DUP6 DUP6 PUSH2 0xAD9 JUMP JUMPDEST POP POP POP POP POP JUMP JUMPDEST PUSH2 0x5A0 PUSH2 0xDFD JUMP JUMPDEST PUSH2 0x5A8 PUSH2 0xE7B JUMP JUMPDEST JUMP JUMPDEST PUSH1 0x60 DUP2 MLOAD DUP4 MLOAD EQ PUSH2 0x5F0 JUMPI PUSH1 0x40 MLOAD PUSH32 0x8C379A000000000000000000000000000000000000000000000000000000000 DUP2 MSTORE PUSH1 0x4 ADD PUSH2 0x5E7 SWAP1 PUSH2 0x2956 JUMP JUMPDEST PUSH1 0x40 MLOAD DUP1 SWAP2 SUB SWAP1 REVERT JUMPDEST PUSH1 0x0 DUP4 MLOAD PUSH8 0xFFFFFFFFFFFFFFFF DUP2 GT ISZERO PUSH2 0x60D JUMPI PUSH2 0x60C PUSH2 0x2144 JUMP JUMPDEST JUMPDEST PUSH1 0x40 MLOAD SWAP1 DUP1 DUP3 MSTORE DUP1 PUSH1 0x20 MUL PUSH1 0x20 ADD DUP3 ADD PUSH1 0x40 MSTORE DUP1 ISZERO PUSH2 0x63B JUMPI DUP2 PUSH1 0x20 ADD PUSH1 0x20 DUP3 MUL DUP1 CALLDATASIZE DUP4 CALLDATACOPY DUP1 DUP3 ADD SWAP2 POP POP SWAP1 POP JUMPDEST POP SWAP1 POP PUSH1 0x0 JUMPDEST DUP5 MLOAD DUP2 LT ISZERO PUSH2 0x6B8 JUMPI PUSH2 0x688 DUP6 DUP3 DUP2 MLOAD DUP2 LT PUSH2 0x660 JUMPI PUSH2 0x65F PUSH2 0x2976 JUMP JUMPDEST JUMPDEST PUSH1 0x20 MUL PUSH1 0x20 ADD ADD MLOAD DUP6 DUP4 DUP2 MLOAD DUP2 LT PUSH2 0x67B JUMPI PUSH2 0x67A PUSH2 0x2976 JUMP JUMPDEST JUMPDEST PUSH1 0x20 MUL PUSH1 0x20 ADD ADD MLOAD PUSH2 0x333 JUMP JUMPDEST DUP3 DUP3 DUP2 MLOAD DUP2 LT PUSH2 0x69B JUMPI PUSH2 0x69A PUSH2 0x2976 JUMP JUMPDEST JUMPDEST PUSH1 0x20 MUL PUSH1 0x20 ADD ADD DUP2 DUP2 MSTORE POP POP DUP1 PUSH2 0x6B1 SWAP1 PUSH2 0x29D4 JUMP JUMPDEST SWAP1 POP PUSH2 0x641 JUMP JUMPDEST POP DUP1 SWAP2 POP POP SWAP3 SWAP2 POP POP JUMP JUMPDEST PUSH1 0x0 DUP1 PUSH2 0x6CF DUP4 PUSH2 0x892 JUMP JUMPDEST GT SWAP1 POP SWAP2 SWAP1 POP JUMP JUMPDEST PUSH1 0x0 PUSH1 0xC9 PUSH1 0x0 SWAP1 SLOAD SWAP1 PUSH2 0x100 EXP SWAP1 DIV PUSH1 0xFF AND SWAP1 POP SWAP1 JUMP JUMPDEST PUSH2 0x6F6 PUSH2 0xDFD JUMP JUMPDEST PUSH2 0x700 PUSH1 0x0 PUSH2 0xEDE JUMP JUMPDEST JUMP JUMPDEST PUSH1 0x0 DUP1 PUSH1 0x1 SWAP1 SLOAD SWAP1 PUSH2 0x100 EXP SWAP1 DIV PUSH1 0xFF AND ISZERO SWAP1 POP DUP1 DUP1 ISZERO PUSH2 0x733 JUMPI POP PUSH1 0x1 PUSH1 0x0 DUP1 SLOAD SWAP1 PUSH2 0x100 EXP SWAP1 DIV PUSH1 0xFF AND PUSH1 0xFF AND LT JUMPDEST DUP1 PUSH2 0x760 JUMPI POP PUSH2 0x742 ADDRESS PUSH2 0xFA4 JUMP JUMPDEST ISZERO DUP1 ISZERO PUSH2 0x75F JUMPI POP PUSH1 0x1 PUSH1 0x0 DUP1 SLOAD SWAP1 PUSH2 0x100 EXP SWAP1 DIV PUSH1 0xFF AND PUSH1 0xFF AND EQ JUMPDEST JUMPDEST PUSH2 0x79F JUMPI PUSH1 0x40 MLOAD PUSH32 0x8C379A000000000000000000000000000000000000000000000000000000000 DUP2 MSTORE PUSH1 0x4 ADD PUSH2 0x796 SWAP1 PUSH2 0x2A8E JUMP JUMPDEST PUSH1 0x40 MLOAD DUP1 SWAP2 SUB SWAP1 REVERT JUMPDEST PUSH1 0x1 PUSH1 0x0 DUP1 PUSH2 0x100 EXP DUP2 SLOAD DUP2 PUSH1 0xFF MUL NOT AND SWAP1 DUP4 PUSH1 0xFF AND MUL OR SWAP1 SSTORE POP DUP1 ISZERO PUSH2 0x7DC JUMPI PUSH1 0x1 PUSH1 0x0 PUSH1 0x1 PUSH2 0x100 EXP DUP2 SLOAD DUP2 PUSH1 0xFF MUL NOT AND SWAP1 DUP4 ISZERO ISZERO MUL OR SWAP1 SSTORE POP JUMPDEST PUSH2 0x7E4 PUSH2 0xFC7 JUMP JUMPDEST DUP1 ISZERO PUSH2 0x83D JUMPI PUSH1 0x0 DUP1 PUSH1 0x1 PUSH2 0x100 EXP DUP2 SLOAD DUP2 PUSH1 0xFF MUL NOT AND SWAP1 DUP4 ISZERO ISZERO MUL OR SWAP1 SSTORE POP PUSH32 0x7F26B83FF96E1F2B6A682F133852F6798A09C465DA95921460CEFB3847402498 PUSH1 0x1 PUSH1 0x40 MLOAD PUSH2 0x834 SWAP2 SWAP1 PUSH2 0x2B00 JUMP JUMPDEST PUSH1 0x40 MLOAD DUP1 SWAP2 SUB SWAP1 LOG1 JUMPDEST POP JUMP JUMPDEST PUSH2 0x848 PUSH2 0xDFD JUMP JUMPDEST PUSH2 0x850 PUSH2 0x1125 JUMP JUMPDEST JUMP JUMPDEST PUSH1 0x0 PUSH1 0x97 PUSH1 0x0 SWAP1 SLOAD SWAP1 PUSH2 0x100 EXP SWAP1 DIV PUSH20 0xFFFFFFFFFFFFFFFFFFFFFFFFFFFFFFFFFFFFFFFF AND SWAP1 POP SWAP1 JUMP JUMPDEST PUSH2 0x88E PUSH2 0x887 PUSH2 0xAD1 JUMP JUMPDEST DUP4 DUP4 PUSH2 0x1188 JUMP JUMPDEST POP POP JUMP JUMPDEST PUSH1 0x0 PUSH1 0xFB PUSH1 0x0 DUP4 DUP2 MSTORE PUSH1 0x20 ADD SWAP1 DUP2 MSTORE PUSH1 0x20 ADD PUSH1 0x0 KECCAK256 SLOAD SWAP1 POP SWAP2 SWAP1 POP JUMP JUMPDEST PUSH1 0x0 PUSH1 0x66 PUSH1 0x0 DUP5 PUSH20 0xFFFFFFFFFFFFFFFFFFFFFFFFFFFFFFFFFFFFFFFF AND PUSH20 0xFFFFFFFFFFFFFFFFFFFFFFFFFFFFFFFFFFFFFFFF AND DUP2 MSTORE PUSH1 0x20 ADD SWAP1 DUP2 MSTORE PUSH1 0x20 ADD PUSH1 0x0 KECCAK256 PUSH1 0x0 DUP4 PUSH20 0xFFFFFFFFFFFFFFFFFFFFFFFFFFFFFFFFFFFFFFFF AND PUSH20 0xFFFFFFFFFFFFFFFFFFFFFFFFFFFFFFFFFFFFFFFF AND DUP2 MSTORE PUSH1 0x20 ADD SWAP1 DUP2 MSTORE PUSH1 0x20 ADD PUSH1 0x0 KECCAK256 PUSH1 0x0 SWAP1 SLOAD SWAP1 PUSH2 0x100 EXP SWAP1 DIV PUSH1 0xFF AND SWAP1 POP SWAP3 SWAP2 POP POP JUMP JUMPDEST PUSH2 0x94B PUSH2 0xAD1 JUMP JUMPDEST PUSH20 0xFFFFFFFFFFFFFFFFFFFFFFFFFFFFFFFFFFFFFFFF AND DUP6 PUSH20 0xFFFFFFFFFFFFFFFFFFFFFFFFFFFFFFFFFFFFFFFF AND EQ DUP1 PUSH2 0x991 JUMPI POP PUSH2 0x990 DUP6 PUSH2 0x98B PUSH2 0xAD1 JUMP JUMPDEST PUSH2 0x8AF JUMP JUMPDEST JUMPDEST PUSH2 0x9D0 JUMPI PUSH1 0x40 MLOAD PUSH32 0x8C379A000000000000000000000000000000000000000000000000000000000 DUP2 MSTORE PUSH1 0x4 ADD PUSH2 0x9C7 SWAP1 PUSH2 0x28C4 JUMP JUMPDEST PUSH1 0x40 MLOAD DUP1 SWAP2 SUB SWAP1 REVERT JUMPDEST PUSH2 0x9DD DUP6 DUP6 DUP6 DUP6 DUP6 PUSH2 0x12F4 JUMP JUMPDEST POP POP POP POP POP JUMP JUMPDEST PUSH2 0x9EC PUSH2 0xDFD JUMP JUMPDEST PUSH1 0x0 PUSH20 0xFFFFFFFFFFFFFFFFFFFFFFFFFFFFFFFFFFFFFFFF AND DUP2 PUSH20 0xFFFFFFFFFFFFFFFFFFFFFFFFFFFFFFFFFFFFFFFF AND SUB PUSH2 0xA5B JUMPI PUSH1 0x40 MLOAD PUSH32 0x8C379A000000000000000000000000000000000000000000000000000000000 DUP2 MSTORE PUSH1 0x4 ADD PUSH2 0xA52 SWAP1 PUSH2 0x2B8D JUMP JUMPDEST PUSH1 0x40 MLOAD DUP1 SWAP2 SUB SWAP1 REVERT JUMPDEST PUSH2 0xA64 DUP2 PUSH2 0xEDE JUMP JUMPDEST POP JUMP JUMPDEST PUSH1 0x0 PUSH32 0x1FFC9A700000000000000000000000000000000000000000000000000000000 PUSH28 0xFFFFFFFFFFFFFFFFFFFFFFFFFFFFFFFFFFFFFFFFFFFFFFFFFFFFFFFF NOT AND DUP3 PUSH28 0xFFFFFFFFFFFFFFFFFFFFFFFFFFFFFFFFFFFFFFFFFFFFFFFFFFFFFFFF NOT AND EQ SWAP1 POP SWAP2 SWAP1 POP JUMP JUMPDEST PUSH1 0x0 CALLER SWAP1 POP SWAP1 JUMP JUMPDEST DUP2 MLOAD DUP4 MLOAD EQ PUSH2 0xB1D JUMPI PUSH1 0x40 MLOAD PUSH32 0x8C379A000000000000000000000000000000000000000000000000000000000 DUP2 MSTORE PUSH1 0x4 ADD PUSH2 0xB14 SWAP1 PUSH2 0x2C1F JUMP JUMPDEST PUSH1 0x40 MLOAD DUP1 SWAP2 SUB SWAP1 REVERT JUMPDEST PUSH1 0x0 PUSH20 0xFFFFFFFFFFFFFFFFFFFFFFFFFFFFFFFFFFFFFFFF AND DUP5 PUSH20 0xFFFFFFFFFFFFFFFFFFFFFFFFFFFFFFFFFFFFFFFF AND SUB PUSH2 0xB8C JUMPI PUSH1 0x40 MLOAD PUSH32 0x8C379A000000000000000000000000000000000000000000000000000000000 DUP2 MSTORE PUSH1 0x4 ADD PUSH2 0xB83 SWAP1 PUSH2 0x2CB1 JUMP JUMPDEST PUSH1 0x40 MLOAD DUP1 SWAP2 SUB SWAP1 REVERT JUMPDEST PUSH1 0x0 PUSH2 0xB96 PUSH2 0xAD1 JUMP JUMPDEST SWAP1 POP PUSH2 0xBA6 DUP2 DUP8 DUP8 DUP8 DUP8 DUP8 PUSH2 0x1592 JUMP JUMPDEST PUSH1 0x0 JUMPDEST DUP5 MLOAD DUP2 LT ISZERO PUSH2 0xD5A JUMPI PUSH1 0x0 DUP6 DUP3 DUP2 MLOAD DUP2 LT PUSH2 0xBC7 JUMPI PUSH2 0xBC6 PUSH2 0x2976 JUMP JUMPDEST JUMPDEST PUSH1 0x20 MUL PUSH1 0x20 ADD ADD MLOAD SWAP1 POP PUSH1 0x0 DUP6 DUP4 DUP2 MLOAD DUP2 LT PUSH2 0xBE6 JUMPI PUSH2 0xBE5 PUSH2 0x2976 JUMP JUMPDEST JUMPDEST PUSH1 0x20 MUL PUSH1 0x20 ADD ADD MLOAD SWAP1 POP PUSH1 0x0 PUSH1 0x65 PUSH1 0x0 DUP5 DUP2 MSTORE PUSH1 0x20 ADD SWAP1 DUP2 MSTORE PUSH1 0x20 ADD PUSH1 0x0 KECCAK256 PUSH1 0x0 DUP12 PUSH20 0xFFFFFFFFFFFFFFFFFFFFFFFFFFFFFFFFFFFFFFFF AND PUSH20 0xFFFFFFFFFFFFFFFFFFFFFFFFFFFFFFFFFFFFFFFF AND DUP2 MSTORE PUSH1 0x20 ADD SWAP1 DUP2 MSTORE PUSH1 0x20 ADD PUSH1 0x0 KECCAK256 SLOAD SWAP1 POP DUP2 DUP2 LT ISZERO PUSH2 0xC88 JUMPI PUSH1 0x40 MLOAD PUSH32 0x8C379A000000000000000000000000000000000000000000000000000000000 DUP2 MSTORE PUSH1 0x4 ADD PUSH2 0xC7F SWAP1 PUSH2 0x2D43 JUMP JUMPDEST PUSH1 0x40 MLOAD DUP1 SWAP2 SUB SWAP1 REVERT JUMPDEST DUP2 DUP2 SUB PUSH1 0x65 PUSH1 0x0 DUP6 DUP2 MSTORE PUSH1 0x20 ADD SWAP1 DUP2 MSTORE PUSH1 0x20 ADD PUSH1 0x0 KECCAK256 PUSH1 0x0 DUP13 PUSH20 0xFFFFFFFFFFFFFFFFFFFFFFFFFFFFFFFFFFFFFFFF AND PUSH20 0xFFFFFFFFFFFFFFFFFFFFFFFFFFFFFFFFFFFFFFFF AND DUP2 MSTORE PUSH1 0x20 ADD SWAP1 DUP2 MSTORE PUSH1 0x20 ADD PUSH1 0x0 KECCAK256 DUP2 SWAP1 SSTORE POP DUP2 PUSH1 0x65 PUSH1 0x0 DUP6 DUP2 MSTORE PUSH1 0x20 ADD SWAP1 DUP2 MSTORE PUSH1 0x20 ADD PUSH1 0x0 KECCAK256 PUSH1 0x0 DUP12 PUSH20 0xFFFFFFFFFFFFFFFFFFFFFFFFFFFFFFFFFFFFFFFF AND PUSH20 0xFFFFFFFFFFFFFFFFFFFFFFFFFFFFFFFFFFFFFFFF AND DUP2 MSTORE PUSH1 0x20 ADD SWAP1 DUP2 MSTORE PUSH1 0x20 ADD PUSH1 0x0 KECCAK256 PUSH1 0x0 DUP3 DUP3 SLOAD PUSH2 0xD3F SWAP2 SWAP1 PUSH2 0x2D63 JUMP JUMPDEST SWAP3 POP POP DUP2 SWAP1 SSTORE POP POP POP POP DUP1 PUSH2 0xD53 SWAP1 PUSH2 0x29D4 JUMP JUMPDEST SWAP1 POP PUSH2 0xBA9 JUMP JUMPDEST POP DUP5 PUSH20 0xFFFFFFFFFFFFFFFFFFFFFFFFFFFFFFFFFFFFFFFF AND DUP7 PUSH20 0xFFFFFFFFFFFFFFFFFFFFFFFFFFFFFFFFFFFFFFFF AND DUP3 PUSH20 0xFFFFFFFFFFFFFFFFFFFFFFFFFFFFFFFFFFFFFFFF AND PUSH32 0x4A39DC06D4C0DBC64B70AF90FD698A233A518AA5D07E595D983B8C0526C8F7FB DUP8 DUP8 PUSH1 0x40 MLOAD PUSH2 0xDD1 SWAP3 SWAP2 SWAP1 PUSH2 0x2D97 JUMP JUMPDEST PUSH1 0x40 MLOAD DUP1 SWAP2 SUB SWAP1 LOG4 PUSH2 0xDE7 DUP2 DUP8 DUP8 DUP8 DUP8 DUP8 PUSH2 0x15B0 JUMP JUMPDEST PUSH2 0xDF5 DUP2 DUP8 DUP8 DUP8 DUP8 DUP8 PUSH2 0x15B8 JUMP JUMPDEST POP POP POP POP POP POP JUMP JUMPDEST PUSH2 0xE05 PUSH2 0xAD1 JUMP JUMPDEST PUSH20 0xFFFFFFFFFFFFFFFFFFFFFFFFFFFFFFFFFFFFFFFF AND PUSH2 0xE23 PUSH2 0x852 JUMP JUMPDEST PUSH20 0xFFFFFFFFFFFFFFFFFFFFFFFFFFFFFFFFFFFFFFFF AND EQ PUSH2 0xE79 JUMPI PUSH1 0x40 MLOAD PUSH32 0x8C379A000000000000000000000000000000000000000000000000000000000 DUP2 MSTORE PUSH1 0x4 ADD PUSH2 0xE70 SWAP1 PUSH2 0x2E1A JUMP JUMPDEST PUSH1 0x40 MLOAD DUP1 SWAP2 SUB SWAP1 REVERT JUMPDEST JUMP JUMPDEST PUSH2 0xE83 PUSH2 0x178F JUMP JUMPDEST PUSH1 0x0 PUSH1 0xC9 PUSH1 0x0 PUSH2 0x100 EXP DUP2 SLOAD DUP2 PUSH1 0xFF MUL NOT AND SWAP1 DUP4 ISZERO ISZERO MUL OR SWAP1 SSTORE POP PUSH32 0x5DB9EE0A495BF2E6FF9C91A7834C1BA4FDD244A5E8AA4E537BD38AEAE4B073AA PUSH2 0xEC7 PUSH2 0xAD1 JUMP JUMPDEST PUSH1 0x40 MLOAD PUSH2 0xED4 SWAP2 SWAP1 PUSH2 0x2635 JUMP JUMPDEST PUSH1 0x40 MLOAD DUP1 SWAP2 SUB SWAP1 LOG1 JUMP JUMPDEST PUSH1 0x0 PUSH1 0x97 PUSH1 0x0 SWAP1 SLOAD SWAP1 PUSH2 0x100 EXP SWAP1 DIV PUSH20 0xFFFFFFFFFFFFFFFFFFFFFFFFFFFFFFFFFFFFFFFF AND SWAP1 POP DUP2 PUSH1 0x97 PUSH1 0x0 PUSH2 0x100 EXP DUP2 SLOAD DUP2 PUSH20 0xFFFFFFFFFFFFFFFFFFFFFFFFFFFFFFFFFFFFFFFF MUL NOT AND SWAP1 DUP4 PUSH20 0xFFFFFFFFFFFFFFFFFFFFFFFFFFFFFFFFFFFFFFFF AND MUL OR SWAP1 SSTORE POP DUP2 PUSH20 0xFFFFFFFFFFFFFFFFFFFFFFFFFFFFFFFFFFFFFFFF AND DUP2 PUSH20 0xFFFFFFFFFFFFFFFFFFFFFFFFFFFFFFFFFFFFFFFF AND PUSH32 0x8BE0079C531659141344CD1FD0A4F28419497F9722A3DAAFE3B4186F6B6457E0 PUSH1 0x40 MLOAD PUSH1 0x40 MLOAD DUP1 SWAP2 SUB SWAP1 LOG3 POP POP JUMP JUMPDEST PUSH1 0x0 DUP1 DUP3 PUSH20 0xFFFFFFFFFFFFFFFFFFFFFFFFFFFFFFFFFFFFFFFF AND EXTCODESIZE GT SWAP1 POP SWAP2 SWAP1 POP JUMP JUMPDEST PUSH1 0x0 DUP1 PUSH1 0x1 SWAP1 SLOAD SWAP1 PUSH2 0x100 EXP SWAP1 DIV PUSH1 0xFF AND ISZERO SWAP1 POP DUP1 DUP1 ISZERO PUSH2 0xFF8 JUMPI POP PUSH1 0x1 PUSH1 0x0 DUP1 SLOAD SWAP1 PUSH2 0x100 EXP SWAP1 DIV PUSH1 0xFF AND PUSH1 0xFF AND LT JUMPDEST DUP1 PUSH2 0x1025 JUMPI POP PUSH2 0x1007 ADDRESS PUSH2 0xFA4 JUMP JUMPDEST ISZERO DUP1 ISZERO PUSH2 0x1024 JUMPI POP PUSH1 0x1 PUSH1 0x0 DUP1 SLOAD SWAP1 PUSH2 0x100 EXP SWAP1 DIV PUSH1 0xFF AND PUSH1 0xFF AND EQ JUMPDEST JUMPDEST PUSH2 0x1064 JUMPI PUSH1 0x40 MLOAD PUSH32 0x8C379A000000000000000000000000000000000000000000000000000000000 DUP2 MSTORE PUSH1 0x4 ADD PUSH2 0x105B SWAP1 PUSH2 0x2A8E JUMP JUMPDEST PUSH1 0x40 MLOAD DUP1 SWAP2 SUB SWAP1 REVERT JUMPDEST PUSH1 0x1 PUSH1 0x0 DUP1 PUSH2 0x100 EXP DUP2 SLOAD DUP2 PUSH1 0xFF MUL NOT AND SWAP1 DUP4 PUSH1 0xFF AND MUL OR SWAP1 SSTORE POP DUP1 ISZERO PUSH2 0x10A1 JUMPI PUSH1 0x1 PUSH1 0x0 PUSH1 0x1 PUSH2 0x100 EXP DUP2 SLOAD DUP2 PUSH1 0xFF MUL NOT AND SWAP1 DUP4 ISZERO ISZERO MUL OR SWAP1 SSTORE POP JUMPDEST PUSH2 0x10B9 PUSH1 0x40 MLOAD DUP1 PUSH1 0x20 ADD PUSH1 0x40 MSTORE DUP1 PUSH1 0x0 DUP2 MSTORE POP PUSH2 0x17D8 JUMP JUMPDEST PUSH2 0x10C1 PUSH2 0x1833 JUMP JUMPDEST PUSH2 0x10C9 PUSH2 0x188C JUMP JUMPDEST DUP1 ISZERO PUSH2 0x1122 JUMPI PUSH1 0x0 DUP1 PUSH1 0x1 PUSH2 0x100 EXP DUP2 SLOAD DUP2 PUSH1 0xFF MUL NOT AND SWAP1 DUP4 ISZERO ISZERO MUL OR SWAP1 SSTORE POP PUSH32 0x7F26B83FF96E1F2B6A682F133852F6798A09C465DA95921460CEFB3847402498 PUSH1 0x1 PUSH1 0x40 MLOAD PUSH2 0x1119 SWAP2 SWAP1 PUSH2 0x2B00 JUMP JUMPDEST PUSH1 0x40 MLOAD DUP1 SWAP2 SUB SWAP1 LOG1 JUMPDEST POP JUMP JUMPDEST PUSH2 0x112D PUSH2 0x18E5 JUMP JUMPDEST PUSH1 0x1 PUSH1 0xC9 PUSH1 0x0 PUSH2 0x100 EXP DUP2 SLOAD DUP2 PUSH1 0xFF MUL NOT AND SWAP1 DUP4 ISZERO ISZERO MUL OR SWAP1 SSTORE POP PUSH32 0x62E78CEA01BEE320CD4E420270B5EA74000D11B0C9F74754EBDBFC544B05A258 PUSH2 0x1171 PUSH2 0xAD1 JUMP JUMPDEST PUSH1 0x40 MLOAD PUSH2 0x117E SWAP2 SWAP1 PUSH2 0x2635 JUMP JUMPDEST PUSH1 0x40 MLOAD DUP1 SWAP2 SUB SWAP1 LOG1 JUMP JUMPDEST DUP2 PUSH20 0xFFFFFFFFFFFFFFFFFFFFFFFFFFFFFFFFFFFFFFFF AND DUP4 PUSH20 0xFFFFFFFFFFFFFFFFFFFFFFFFFFFFFFFFFFFFFFFF AND SUB PUSH2 0x11F6 JUMPI PUSH1 0x40 MLOAD PUSH32 0x8C379A000000000000000000000000000000000000000000000000000000000 DUP2 MSTORE PUSH1 0x4 ADD PUSH2 0x11ED SWAP1 PUSH2 0x2EAC JUMP JUMPDEST PUSH1 0x40 MLOAD DUP1 SWAP2 SUB SWAP1 REVERT JUMPDEST DUP1 PUSH1 0x66 PUSH1 0x0 DUP6 PUSH20 0xFFFFFFFFFFFFFFFFFFFFFFFFFFFFFFFFFFFFFFFF AND PUSH20 0xFFFFFFFFFFFFFFFFFFFFFFFFFFFFFFFFFFFFFFFF AND DUP2 MSTORE PUSH1 0x20 ADD SWAP1 DUP2 MSTORE PUSH1 0x20 ADD PUSH1 0x0 KECCAK256 PUSH1 0x0 DUP5 PUSH20 0xFFFFFFFFFFFFFFFFFFFFFFFFFFFFFFFFFFFFFFFF AND PUSH20 0xFFFFFFFFFFFFFFFFFFFFFFFFFFFFFFFFFFFFFFFF AND DUP2 MSTORE PUSH1 0x20 ADD SWAP1 DUP2 MSTORE PUSH1 0x20 ADD PUSH1 0x0 KECCAK256 PUSH1 0x0 PUSH2 0x100 EXP DUP2 SLOAD DUP2 PUSH1 0xFF MUL NOT AND SWAP1 DUP4 ISZERO ISZERO MUL OR SWAP1 SSTORE POP DUP2 PUSH20 0xFFFFFFFFFFFFFFFFFFFFFFFFFFFFFFFFFFFFFFFF AND DUP4 PUSH20 0xFFFFFFFFFFFFFFFFFFFFFFFFFFFFFFFFFFFFFFFF AND PUSH32 0x17307EAB39AB6107E8899845AD3D59BD9653F200F220920489CA2B5937696C31 DUP4 PUSH1 0x40 MLOAD PUSH2 0x12E7 SWAP2 SWAP1 PUSH2 0x2045 JUMP JUMPDEST PUSH1 0x40 MLOAD DUP1 SWAP2 SUB SWAP1 LOG3 POP POP POP JUMP JUMPDEST PUSH1 0x0 PUSH20 0xFFFFFFFFFFFFFFFFFFFFFFFFFFFFFFFFFFFFFFFF AND DUP5 PUSH20 0xFFFFFFFFFFFFFFFFFFFFFFFFFFFFFFFFFFFFFFFF AND SUB PUSH2 0x1363 JUMPI PUSH1 0x40 MLOAD PUSH32 0x8C379A000000000000000000000000000000000000000000000000000000000 DUP2 MSTORE PUSH1 0x4 ADD PUSH2 0x135A SWAP1 PUSH2 0x2CB1 JUMP JUMPDEST PUSH1 0x40 MLOAD DUP1 SWAP2 SUB SWAP1 REVERT JUMPDEST PUSH1 0x0 PUSH2 0x136D PUSH2 0xAD1 JUMP JUMPDEST SWAP1 POP PUSH1 0x0 PUSH2 0x137A DUP6 PUSH2 0x192F JUMP JUMPDEST SWAP1 POP PUSH1 0x0 PUSH2 0x1387 DUP6 PUSH2 0x192F JUMP JUMPDEST SWAP1 POP PUSH2 0x1397 DUP4 DUP10 DUP10 DUP6 DUP6 DUP10 PUSH2 0x1592 JUMP JUMPDEST PUSH1 0x0 PUSH1 0x65 PUSH1 0x0 DUP9 DUP2 MSTORE PUSH1 0x20 ADD SWAP1 DUP2 MSTORE PUSH1 0x20 ADD PUSH1 0x0 KECCAK256 PUSH1 0x0 DUP11 PUSH20 0xFFFFFFFFFFFFFFFFFFFFFFFFFFFFFFFFFFFFFFFF AND PUSH20 0xFFFFFFFFFFFFFFFFFFFFFFFFFFFFFFFFFFFFFFFF AND DUP2 MSTORE PUSH1 0x20 ADD SWAP1 DUP2 MSTORE PUSH1 0x20 ADD PUSH1 0x0 KECCAK256 SLOAD SWAP1 POP DUP6 DUP2 LT ISZERO PUSH2 0x142F JUMPI PUSH1 0x40 MLOAD PUSH32 0x8C379A000000000000000000000000000000000000000000000000000000000 DUP2 MSTORE PUSH1 0x4 ADD PUSH2 0x1426 SWAP1 PUSH2 0x2D43 JUMP JUMPDEST PUSH1 0x40 MLOAD DUP1 SWAP2 SUB SWAP1 REVERT JUMPDEST DUP6 DUP2 SUB PUSH1 0x65 PUSH1 0x0 DUP10 DUP2 MSTORE PUSH1 0x20 ADD SWAP1 DUP2 MSTORE PUSH1 0x20 ADD PUSH1 0x0 KECCAK256 PUSH1 0x0 DUP12 PUSH20 0xFFFFFFFFFFFFFFFFFFFFFFFFFFFFFFFFFFFFFFFF AND PUSH20 0xFFFFFFFFFFFFFFFFFFFFFFFFFFFFFFFFFFFFFFFF AND DUP2 MSTORE PUSH1 0x20 ADD SWAP1 DUP2 MSTORE PUSH1 0x20 ADD PUSH1 0x0 KECCAK256 DUP2 SWAP1 SSTORE POP DUP6 PUSH1 0x65 PUSH1 0x0 DUP10 DUP2 MSTORE PUSH1 0x20 ADD SWAP1 DUP2 MSTORE PUSH1 0x20 ADD PUSH1 0x0 KECCAK256 PUSH1 0x0 DUP11 PUSH20 0xFFFFFFFFFFFFFFFFFFFFFFFFFFFFFFFFFFFFFFFF AND PUSH20 0xFFFFFFFFFFFFFFFFFFFFFFFFFFFFFFFFFFFFFFFF AND DUP2 MSTORE PUSH1 0x20 ADD SWAP1 DUP2 MSTORE PUSH1 0x20 ADD PUSH1 0x0 KECCAK256 PUSH1 0x0 DUP3 DUP3 SLOAD PUSH2 0x14E6 SWAP2 SWAP1 PUSH2 0x2D63 JUMP JUMPDEST SWAP3 POP POP DUP2 SWAP1 SSTORE POP DUP8 PUSH20 0xFFFFFFFFFFFFFFFFFFFFFFFFFFFFFFFFFFFFFFFF AND DUP10 PUSH20 0xFFFFFFFFFFFFFFFFFFFFFFFFFFFFFFFFFFFFFFFF AND DUP6 PUSH20 0xFFFFFFFFFFFFFFFFFFFFFFFFFFFFFFFFFFFFFFFF AND PUSH32 0xC3D58168C5AE7397731D063D5BBF3D657854427343F4C083240F7AACAA2D0F62 DUP11 DUP11 PUSH1 0x40 MLOAD PUSH2 0x1563 SWAP3 SWAP2 SWAP1 PUSH2 0x2ECC JUMP JUMPDEST PUSH1 0x40 MLOAD DUP1 SWAP2 SUB SWAP1 LOG4 PUSH2 0x1579 DUP5 DUP11 DUP11 DUP7 DUP7 DUP11 PUSH2 0x15B0 JUMP JUMPDEST PUSH2 0x1587 DUP5 DUP11 DUP11 DUP11 DUP11 DUP11 PUSH2 0x19A9 JUMP JUMPDEST POP POP POP POP POP POP POP POP POP JUMP JUMPDEST PUSH2 0x159A PUSH2 0x18E5 JUMP JUMPDEST PUSH2 0x15A8 DUP7 DUP7 DUP7 DUP7 DUP7 DUP7 PUSH2 0x1B80 JUMP JUMPDEST POP POP POP POP POP POP JUMP JUMPDEST POP POP POP POP POP POP JUMP JUMPDEST PUSH2 0x15D7 DUP5 PUSH20 0xFFFFFFFFFFFFFFFFFFFFFFFFFFFFFFFFFFFFFFFF AND PUSH2 0xFA4 JUMP JUMPDEST ISZERO PUSH2 0x1787 JUMPI DUP4 PUSH20 0xFFFFFFFFFFFFFFFFFFFFFFFFFFFFFFFFFFFFFFFF AND PUSH4 0xBC197C81 DUP8 DUP8 DUP7 DUP7 DUP7 PUSH1 0x40 MLOAD DUP7 PUSH4 0xFFFFFFFF AND PUSH1 0xE0 SHL DUP2 MSTORE PUSH1 0x4 ADD PUSH2 0x161D SWAP6 SWAP5 SWAP4 SWAP3 SWAP2 SWAP1 PUSH2 0x2F4A JUMP JUMPDEST PUSH1 0x20 PUSH1 0x40 MLOAD DUP1 DUP4 SUB DUP2 PUSH1 0x0 DUP8 GAS CALL SWAP3 POP POP POP DUP1 ISZERO PUSH2 0x1659 JUMPI POP PUSH1 0x40 MLOAD RETURNDATASIZE PUSH1 0x1F NOT PUSH1 0x1F DUP3 ADD AND DUP3 ADD DUP1 PUSH1 0x40 MSTORE POP DUP2 ADD SWAP1 PUSH2 0x1656 SWAP2 SWAP1 PUSH2 0x2FC7 JUMP JUMPDEST PUSH1 0x1 JUMPDEST PUSH2 0x16FE JUMPI PUSH2 0x1665 PUSH2 0x3001 JUMP JUMPDEST DUP1 PUSH4 0x8C379A0 SUB PUSH2 0x16C1 JUMPI POP PUSH2 0x1679 PUSH2 0x3023 JUMP JUMPDEST DUP1 PUSH2 0x1684 JUMPI POP PUSH2 0x16C3 JUMP JUMPDEST DUP1 PUSH1 0x40 MLOAD PUSH32 0x8C379A000000000000000000000000000000000000000000000000000000000 DUP2 MSTORE PUSH1 0x4 ADD PUSH2 0x16B8 SWAP2 SWAP1 PUSH2 0x211D JUMP JUMPDEST PUSH1 0x40 MLOAD DUP1 SWAP2 SUB SWAP1 REVERT JUMPDEST POP JUMPDEST PUSH1 0x40 MLOAD PUSH32 0x8C379A000000000000000000000000000000000000000000000000000000000 DUP2 MSTORE PUSH1 0x4 ADD PUSH2 0x16F5 SWAP1 PUSH2 0x3125 JUMP JUMPDEST PUSH1 0x40 MLOAD DUP1 SWAP2 SUB SWAP1 REVERT JUMPDEST PUSH4 0xBC197C81 PUSH1 0xE0 SHL PUSH28 0xFFFFFFFFFFFFFFFFFFFFFFFFFFFFFFFFFFFFFFFFFFFFFFFFFFFFFFFF NOT AND DUP2 PUSH28 0xFFFFFFFFFFFFFFFFFFFFFFFFFFFFFFFFFFFFFFFFFFFFFFFFFFFFFFFF NOT AND EQ PUSH2 0x1785 JUMPI PUSH1 0x40 MLOAD PUSH32 0x8C379A000000000000000000000000000000000000000000000000000000000 DUP2 MSTORE PUSH1 0x4 ADD PUSH2 0x177C SWAP1 PUSH2 0x31B7 JUMP JUMPDEST PUSH1 0x40 MLOAD DUP1 SWAP2 SUB SWAP1 REVERT JUMPDEST POP JUMPDEST POP POP POP POP POP POP JUMP JUMPDEST PUSH2 0x1797 PUSH2 0x6D7 JUMP JUMPDEST PUSH2 0x17D6 JUMPI PUSH1 0x40 MLOAD PUSH32 0x8C379A000000000000000000000000000000000000000000000000000000000 DUP2 MSTORE PUSH1 0x4 ADD PUSH2 0x17CD SWAP1 PUSH2 0x3223 JUMP JUMPDEST PUSH1 0x40 MLOAD DUP1 SWAP2 SUB SWAP1 REVERT JUMPDEST JUMP JUMPDEST PUSH1 0x0 PUSH1 0x1 SWAP1 SLOAD SWAP1 PUSH2 0x100 EXP SWAP1 DIV PUSH1 0xFF AND PUSH2 0x1827 JUMPI PUSH1 0x40 MLOAD PUSH32 0x8C379A000000000000000000000000000000000000000000000000000000000 DUP2 MSTORE PUSH1 0x4 ADD PUSH2 0x181E SWAP1 PUSH2 0x32B5 JUMP JUMPDEST PUSH1 0x40 MLOAD DUP1 SWAP2 SUB SWAP1 REVERT JUMPDEST PUSH2 0x1830 DUP2 PUSH2 0x1D50 JUMP JUMPDEST POP JUMP JUMPDEST PUSH1 0x0 PUSH1 0x1 SWAP1 SLOAD SWAP1 PUSH2 0x100 EXP SWAP1 DIV PUSH1 0xFF AND PUSH2 0x1882 JUMPI PUSH1 0x40 MLOAD PUSH32 0x8C379A000000000000000000000000000000000000000000000000000000000 DUP2 MSTORE PUSH1 0x4 ADD PUSH2 0x1879 SWAP1 PUSH2 0x32B5 JUMP JUMPDEST PUSH1 0x40 MLOAD DUP1 SWAP2 SUB SWAP1 REVERT JUMPDEST PUSH2 0x188A PUSH2 0x1DAB JUMP JUMPDEST JUMP JUMPDEST PUSH1 0x0 PUSH1 0x1 SWAP1 SLOAD SWAP1 PUSH2 0x100 EXP SWAP1 DIV PUSH1 0xFF AND PUSH2 0x18DB JUMPI PUSH1 0x40 MLOAD PUSH32 0x8C379A000000000000000000000000000000000000000000000000000000000 DUP2 MSTORE PUSH1 0x4 ADD PUSH2 0x18D2 SWAP1 PUSH2 0x32B5 JUMP JUMPDEST PUSH1 0x40 MLOAD DUP1 SWAP2 SUB SWAP1 REVERT JUMPDEST PUSH2 0x18E3 PUSH2 0x1E0C JUMP JUMPDEST JUMP JUMPDEST PUSH2 0x18ED PUSH2 0x6D7 JUMP JUMPDEST ISZERO PUSH2 0x192D JUMPI PUSH1 0x40 MLOAD PUSH32 0x8C379A000000000000000000000000000000000000000000000000000000000 DUP2 MSTORE PUSH1 0x4 ADD PUSH2 0x1924 SWAP1 PUSH2 0x3321 JUMP JUMPDEST PUSH1 0x40 MLOAD DUP1 SWAP2 SUB SWAP1 REVERT JUMPDEST JUMP JUMPDEST PUSH1 0x60 PUSH1 0x0 PUSH1 0x1 PUSH8 0xFFFFFFFFFFFFFFFF DUP2 GT ISZERO PUSH2 0x194E JUMPI PUSH2 0x194D PUSH2 0x2144 JUMP JUMPDEST JUMPDEST PUSH1 0x40 MLOAD SWAP1 DUP1 DUP3 MSTORE DUP1 PUSH1 0x20 MUL PUSH1 0x20 ADD DUP3 ADD PUSH1 0x40 MSTORE DUP1 ISZERO PUSH2 0x197C JUMPI DUP2 PUSH1 0x20 ADD PUSH1 0x20 DUP3 MUL DUP1 CALLDATASIZE DUP4 CALLDATACOPY DUP1 DUP3 ADD SWAP2 POP POP SWAP1 POP JUMPDEST POP SWAP1 POP DUP3 DUP2 PUSH1 0x0 DUP2 MLOAD DUP2 LT PUSH2 0x1994 JUMPI PUSH2 0x1993 PUSH2 0x2976 JUMP JUMPDEST JUMPDEST PUSH1 0x20 MUL PUSH1 0x20 ADD ADD DUP2 DUP2 MSTORE POP POP DUP1 SWAP2 POP POP SWAP2 SWAP1 POP JUMP JUMPDEST PUSH2 0x19C8 DUP5 PUSH20 0xFFFFFFFFFFFFFFFFFFFFFFFFFFFFFFFFFFFFFFFF AND PUSH2 0xFA4 JUMP JUMPDEST ISZERO PUSH2 0x1B78 JUMPI DUP4 PUSH20 0xFFFFFFFFFFFFFFFFFFFFFFFFFFFFFFFFFFFFFFFF AND PUSH4 0xF23A6E61 DUP8 DUP8 DUP7 DUP7 DUP7 PUSH1 0x40 MLOAD DUP7 PUSH4 0xFFFFFFFF AND PUSH1 0xE0 SHL DUP2 MSTORE PUSH1 0x4 ADD PUSH2 0x1A0E SWAP6 SWAP5 SWAP4 SWAP3 SWAP2 SWAP1 PUSH2 0x3341 JUMP JUMPDEST PUSH1 0x20 PUSH1 0x40 MLOAD DUP1 DUP4 SUB DUP2 PUSH1 0x0 DUP8 GAS CALL SWAP3 POP POP POP DUP1 ISZERO PUSH2 0x1A4A JUMPI POP PUSH1 0x40 MLOAD RETURNDATASIZE PUSH1 0x1F NOT PUSH1 0x1F DUP3 ADD AND DUP3 ADD DUP1 PUSH1 0x40 MSTORE POP DUP2 ADD SWAP1 PUSH2 0x1A47 SWAP2 SWAP1 PUSH2 0x2FC7 JUMP JUMPDEST PUSH1 0x1 JUMPDEST PUSH2 0x1AEF JUMPI PUSH2 0x1A56 PUSH2 0x3001 JUMP JUMPDEST DUP1 PUSH4 0x8C379A0 SUB PUSH2 0x1AB2 JUMPI POP PUSH2 0x1A6A PUSH2 0x3023 JUMP JUMPDEST DUP1 PUSH2 0x1A75 JUMPI POP PUSH2 0x1AB4 JUMP JUMPDEST DUP1 PUSH1 0x40 MLOAD PUSH32 0x8C379A000000000000000000000000000000000000000000000000000000000 DUP2 MSTORE PUSH1 0x4 ADD PUSH2 0x1AA9 SWAP2 SWAP1 PUSH2 0x211D JUMP JUMPDEST PUSH1 0x40 MLOAD DUP1 SWAP2 SUB SWAP1 REVERT JUMPDEST POP JUMPDEST PUSH1 0x40 MLOAD PUSH32 0x8C379A000000000000000000000000000000000000000000000000000000000 DUP2 MSTORE PUSH1 0x4 ADD PUSH2 0x1AE6 SWAP1 PUSH2 0x3125 JUMP JUMPDEST PUSH1 0x40 MLOAD DUP1 SWAP2 SUB SWAP1 REVERT JUMPDEST PUSH4 0xF23A6E61 PUSH1 0xE0 SHL PUSH28 0xFFFFFFFFFFFFFFFFFFFFFFFFFFFFFFFFFFFFFFFFFFFFFFFFFFFFFFFF NOT AND DUP2 PUSH28 0xFFFFFFFFFFFFFFFFFFFFFFFFFFFFFFFFFFFFFFFFFFFFFFFFFFFFFFFF NOT AND EQ PUSH2 0x1B76 JUMPI PUSH1 0x40 MLOAD PUSH32 0x8C379A000000000000000000000000000000000000000000000000000000000 DUP2 MSTORE PUSH1 0x4 ADD PUSH2 0x1B6D SWAP1 PUSH2 0x31B7 JUMP JUMPDEST PUSH1 0x40 MLOAD DUP1 SWAP2 SUB SWAP1 REVERT JUMPDEST POP JUMPDEST POP POP POP POP POP POP JUMP JUMPDEST PUSH2 0x1B8E DUP7 DUP7 DUP7 DUP7 DUP7 DUP7 PUSH2 0x1E78 JUMP JUMPDEST PUSH1 0x0 PUSH20 0xFFFFFFFFFFFFFFFFFFFFFFFFFFFFFFFFFFFFFFFF AND DUP6 PUSH20 0xFFFFFFFFFFFFFFFFFFFFFFFFFFFFFFFFFFFFFFFF AND SUB PUSH2 0x1C3F JUMPI PUSH1 0x0 JUMPDEST DUP4 MLOAD DUP2 LT ISZERO PUSH2 0x1C3D JUMPI DUP3 DUP2 DUP2 MLOAD DUP2 LT PUSH2 0x1BE1 JUMPI PUSH2 0x1BE0 PUSH2 0x2976 JUMP JUMPDEST JUMPDEST PUSH1 0x20 MUL PUSH1 0x20 ADD ADD MLOAD PUSH1 0xFB PUSH1 0x0 DUP7 DUP5 DUP2 MLOAD DUP2 LT PUSH2 0x1C00 JUMPI PUSH2 0x1BFF PUSH2 0x2976 JUMP JUMPDEST JUMPDEST PUSH1 0x20 MUL PUSH1 0x20 ADD ADD MLOAD DUP2 MSTORE PUSH1 0x20 ADD SWAP1 DUP2 MSTORE PUSH1 0x20 ADD PUSH1 0x0 KECCAK256 PUSH1 0x0 DUP3 DUP3 SLOAD PUSH2 0x1C25 SWAP2 SWAP1 PUSH2 0x2D63 JUMP JUMPDEST SWAP3 POP POP DUP2 SWAP1 SSTORE POP DUP1 PUSH2 0x1C36 SWAP1 PUSH2 0x29D4 JUMP JUMPDEST SWAP1 POP PUSH2 0x1BC5 JUMP JUMPDEST POP JUMPDEST PUSH1 0x0 PUSH20 0xFFFFFFFFFFFFFFFFFFFFFFFFFFFFFFFFFFFFFFFF AND DUP5 PUSH20 0xFFFFFFFFFFFFFFFFFFFFFFFFFFFFFFFFFFFFFFFF AND SUB PUSH2 0x1D48 JUMPI PUSH1 0x0 JUMPDEST DUP4 MLOAD DUP2 LT ISZERO PUSH2 0x1D46 JUMPI PUSH1 0x0 DUP5 DUP3 DUP2 MLOAD DUP2 LT PUSH2 0x1C94 JUMPI PUSH2 0x1C93 PUSH2 0x2976 JUMP JUMPDEST JUMPDEST PUSH1 0x20 MUL PUSH1 0x20 ADD ADD MLOAD SWAP1 POP PUSH1 0x0 DUP5 DUP4 DUP2 MLOAD DUP2 LT PUSH2 0x1CB3 JUMPI PUSH2 0x1CB2 PUSH2 0x2976 JUMP JUMPDEST JUMPDEST PUSH1 0x20 MUL PUSH1 0x20 ADD ADD MLOAD SWAP1 POP PUSH1 0x0 PUSH1 0xFB PUSH1 0x0 DUP5 DUP2 MSTORE PUSH1 0x20 ADD SWAP1 DUP2 MSTORE PUSH1 0x20 ADD PUSH1 0x0 KECCAK256 SLOAD SWAP1 POP DUP2 DUP2 LT ISZERO PUSH2 0x1D18 JUMPI PUSH1 0x40 MLOAD PUSH32 0x8C379A000000000000000000000000000000000000000000000000000000000 DUP2 MSTORE PUSH1 0x4 ADD PUSH2 0x1D0F SWAP1 PUSH2 0x340D JUMP JUMPDEST PUSH1 0x40 MLOAD DUP1 SWAP2 SUB SWAP1 REVERT JUMPDEST DUP2 DUP2 SUB PUSH1 0xFB PUSH1 0x0 DUP6 DUP2 MSTORE PUSH1 0x20 ADD SWAP1 DUP2 MSTORE PUSH1 0x20 ADD PUSH1 0x0 KECCAK256 DUP2 SWAP1 SSTORE POP POP POP POP DUP1 PUSH2 0x1D3F SWAP1 PUSH2 0x29D4 JUMP JUMPDEST SWAP1 POP PUSH2 0x1C76 JUMP JUMPDEST POP JUMPDEST POP POP POP POP POP POP JUMP JUMPDEST PUSH1 0x0 PUSH1 0x1 SWAP1 SLOAD SWAP1 PUSH2 0x100 EXP SWAP1 DIV PUSH1 0xFF AND PUSH2 0x1D9F JUMPI PUSH1 0x40 MLOAD PUSH32 0x8C379A000000000000000000000000000000000000000000000000000000000 DUP2 MSTORE PUSH1 0x4 ADD PUSH2 0x1D96 SWAP1 PUSH2 0x32B5 JUMP JUMPDEST PUSH1 0x40 MLOAD DUP1 SWAP2 SUB SWAP1 REVERT JUMPDEST PUSH2 0x1DA8 DUP2 PUSH2 0x1E80 JUMP JUMPDEST POP JUMP JUMPDEST PUSH1 0x0 PUSH1 0x1 SWAP1 SLOAD SWAP1 PUSH2 0x100 EXP SWAP1 DIV PUSH1 0xFF AND PUSH2 0x1DFA JUMPI PUSH1 0x40 MLOAD PUSH32 0x8C379A000000000000000000000000000000000000000000000000000000000 DUP2 MSTORE PUSH1 0x4 ADD PUSH2 0x1DF1 SWAP1 PUSH2 0x32B5 JUMP JUMPDEST PUSH1 0x40 MLOAD DUP1 SWAP2 SUB SWAP1 REVERT JUMPDEST PUSH2 0x1E0A PUSH2 0x1E05 PUSH2 0xAD1 JUMP JUMPDEST PUSH2 0xEDE JUMP JUMPDEST JUMP JUMPDEST PUSH1 0x0 PUSH1 0x1 SWAP1 SLOAD SWAP1 PUSH2 0x100 EXP SWAP1 DIV PUSH1 0xFF AND PUSH2 0x1E5B JUMPI PUSH1 0x40 MLOAD PUSH32 0x8C379A000000000000000000000000000000000000000000000000000000000 DUP2 MSTORE PUSH1 0x4 ADD PUSH2 0x1E52 SWAP1 PUSH2 0x32B5 JUMP JUMPDEST PUSH1 0x40 MLOAD DUP1 SWAP2 SUB SWAP1 REVERT JUMPDEST PUSH1 0x0 PUSH1 0xC9 PUSH1 0x0 PUSH2 0x100 EXP DUP2 SLOAD DUP2 PUSH1 0xFF MUL NOT AND SWAP1 DUP4 ISZERO ISZERO MUL OR SWAP1 SSTORE POP JUMP JUMPDEST POP POP POP POP POP POP JUMP JUMPDEST DUP1 PUSH1 0x67 SWAP1 DUP2 PUSH2 0x1E8F SWAP2 SWAP1 PUSH2 0x362F JUMP JUMPDEST POP POP JUMP JUMPDEST PUSH1 0x0 PUSH1 0x40 MLOAD SWAP1 POP SWAP1 JUMP JUMPDEST PUSH1 0x0 DUP1 REVERT JUMPDEST PUSH1 0x0 DUP1 REVERT JUMPDEST PUSH1 0x0 PUSH20 0xFFFFFFFFFFFFFFFFFFFFFFFFFFFFFFFFFFFFFFFF DUP3 AND SWAP1 POP SWAP2 SWAP1 POP JUMP JUMPDEST PUSH1 0x0 PUSH2 0x1ED2 DUP3 PUSH2 0x1EA7 JUMP JUMPDEST SWAP1 POP SWAP2 SWAP1 POP JUMP JUMPDEST PUSH2 0x1EE2 DUP2 PUSH2 0x1EC7 JUMP JUMPDEST DUP2 EQ PUSH2 0x1EED JUMPI PUSH1 0x0 DUP1 REVERT JUMPDEST POP JUMP JUMPDEST PUSH1 0x0 DUP2 CALLDATALOAD SWAP1 POP PUSH2 0x1EFF DUP2 PUSH2 0x1ED9 JUMP JUMPDEST SWAP3 SWAP2 POP POP JUMP JUMPDEST PUSH1 0x0 DUP2 SWAP1 POP SWAP2 SWAP1 POP JUMP JUMPDEST PUSH2 0x1F18 DUP2 PUSH2 0x1F05 JUMP JUMPDEST DUP2 EQ PUSH2 0x1F23 JUMPI PUSH1 0x0 DUP1 REVERT JUMPDEST POP JUMP JUMPDEST PUSH1 0x0 DUP2 CALLDATALOAD SWAP1 POP PUSH2 0x1F35 DUP2 PUSH2 0x1F0F JUMP JUMPDEST SWAP3 SWAP2 POP POP JUMP JUMPDEST PUSH1 0x0 DUP1 PUSH1 0x40 DUP4 DUP6 SUB SLT ISZERO PUSH2 0x1F52 JUMPI PUSH2 0x1F51 PUSH2 0x1E9D JUMP JUMPDEST JUMPDEST PUSH1 0x0 PUSH2 0x1F60 DUP6 DUP3 DUP7 ADD PUSH2 0x1EF0 JUMP JUMPDEST SWAP3 POP POP PUSH1 0x20 PUSH2 0x1F71 DUP6 DUP3 DUP7 ADD PUSH2 0x1F26 JUMP JUMPDEST SWAP2 POP POP SWAP3 POP SWAP3 SWAP1 POP JUMP JUMPDEST PUSH2 0x1F84 DUP2 PUSH2 0x1F05 JUMP JUMPDEST DUP3 MSTORE POP POP JUMP JUMPDEST PUSH1 0x0 PUSH1 0x20 DUP3 ADD SWAP1 POP PUSH2 0x1F9F PUSH1 0x0 DUP4 ADD DUP5 PUSH2 0x1F7B JUMP JUMPDEST SWAP3 SWAP2 POP POP JUMP JUMPDEST PUSH1 0x0 PUSH32 0xFFFFFFFF00000000000000000000000000000000000000000000000000000000 DUP3 AND SWAP1 POP SWAP2 SWAP1 POP JUMP JUMPDEST PUSH2 0x1FDA DUP2 PUSH2 0x1FA5 JUMP JUMPDEST DUP2 EQ PUSH2 0x1FE5 JUMPI PUSH1 0x0 DUP1 REVERT JUMPDEST POP JUMP JUMPDEST PUSH1 0x0 DUP2 CALLDATALOAD SWAP1 POP PUSH2 0x1FF7 DUP2 PUSH2 0x1FD1 JUMP JUMPDEST SWAP3 SWAP2 POP POP JUMP JUMPDEST PUSH1 0x0 PUSH1 0x20 DUP3 DUP5 SUB SLT ISZERO PUSH2 0x2013 JUMPI PUSH2 0x2012 PUSH2 0x1E9D JUMP JUMPDEST JUMPDEST PUSH1 0x0 PUSH2 0x2021 DUP5 DUP3 DUP6 ADD PUSH2 0x1FE8 JUMP JUMPDEST SWAP2 POP POP SWAP3 SWAP2 POP POP JUMP JUMPDEST PUSH1 0x0 DUP2 ISZERO ISZERO SWAP1 POP SWAP2 SWAP1 POP JUMP JUMPDEST PUSH2 0x203F DUP2 PUSH2 0x202A JUMP JUMPDEST DUP3 MSTORE POP POP JUMP JUMPDEST PUSH1 0x0 PUSH1 0x20 DUP3 ADD SWAP1 POP PUSH2 0x205A PUSH1 0x0 DUP4 ADD DUP5 PUSH2 0x2036 JUMP JUMPDEST SWAP3 SWAP2 POP POP JUMP JUMPDEST PUSH1 0x0 PUSH1 0x20 DUP3 DUP5 SUB SLT ISZERO PUSH2 0x2076 JUMPI PUSH2 0x2075 PUSH2 0x1E9D JUMP JUMPDEST JUMPDEST PUSH1 0x0 PUSH2 0x2084 DUP5 DUP3 DUP6 ADD PUSH2 0x1F26 JUMP JUMPDEST SWAP2 POP POP SWAP3 SWAP2 POP POP JUMP JUMPDEST PUSH1 0x0 DUP2 MLOAD SWAP1 POP SWAP2 SWAP1 POP JUMP JUMPDEST PUSH1 0x0 DUP3 DUP3 MSTORE PUSH1 0x20 DUP3 ADD SWAP1 POP SWAP3 SWAP2 POP POP JUMP JUMPDEST PUSH1 0x0 JUMPDEST DUP4 DUP2 LT ISZERO PUSH2 0x20C7 JUMPI DUP1 DUP3 ADD MLOAD DUP2 DUP5 ADD MSTORE PUSH1 0x20 DUP2 ADD SWAP1 POP PUSH2 0x20AC JUMP JUMPDEST PUSH1 0x0 DUP5 DUP5 ADD MSTORE POP POP POP POP JUMP JUMPDEST PUSH1 0x0 PUSH1 0x1F NOT PUSH1 0x1F DUP4 ADD AND SWAP1 POP SWAP2 SWAP1 POP JUMP JUMPDEST PUSH1 0x0 PUSH2 0x20EF DUP3 PUSH2 0x208D JUMP JUMPDEST PUSH2 0x20F9 DUP2 DUP6 PUSH2 0x2098 JUMP JUMPDEST SWAP4 POP PUSH2 0x2109 DUP2 DUP6 PUSH1 0x20 DUP7 ADD PUSH2 0x20A9 JUMP JUMPDEST PUSH2 0x2112 DUP2 PUSH2 0x20D3 JUMP JUMPDEST DUP5 ADD SWAP2 POP POP SWAP3 SWAP2 POP POP JUMP JUMPDEST PUSH1 0x0 PUSH1 0x20 DUP3 ADD SWAP1 POP DUP2 DUP2 SUB PUSH1 0x0 DUP4 ADD MSTORE PUSH2 0x2137 DUP2 DUP5 PUSH2 0x20E4 JUMP JUMPDEST SWAP1 POP SWAP3 SWAP2 POP POP JUMP JUMPDEST PUSH1 0x0 DUP1 REVERT JUMPDEST PUSH32 0x4E487B7100000000000000000000000000000000000000000000000000000000 PUSH1 0x0 MSTORE PUSH1 0x41 PUSH1 0x4 MSTORE PUSH1 0x24 PUSH1 0x0 REVERT JUMPDEST PUSH2 0x217C DUP3 PUSH2 0x20D3 JUMP JUMPDEST DUP2 ADD DUP2 DUP2 LT PUSH8 0xFFFFFFFFFFFFFFFF DUP3 GT OR ISZERO PUSH2 0x219B JUMPI PUSH2 0x219A PUSH2 0x2144 JUMP JUMPDEST JUMPDEST DUP1 PUSH1 0x40 MSTORE POP POP POP JUMP JUMPDEST PUSH1 0x0 PUSH2 0x21AE PUSH2 0x1E93 JUMP JUMPDEST SWAP1 POP PUSH2 0x21BA DUP3 DUP3 PUSH2 0x2173 JUMP JUMPDEST SWAP2 SWAP1 POP JUMP JUMPDEST PUSH1 0x0 PUSH8 0xFFFFFFFFFFFFFFFF DUP3 GT ISZERO PUSH2 0x21DA JUMPI PUSH2 0x21D9 PUSH2 0x2144 JUMP JUMPDEST JUMPDEST PUSH1 0x20 DUP3 MUL SWAP1 POP PUSH1 0x20 DUP2 ADD SWAP1 POP SWAP2 SWAP1 POP JUMP JUMPDEST PUSH1 0x0 DUP1 REVERT JUMPDEST PUSH1 0x0 PUSH2 0x2203 PUSH2 0x21FE DUP5 PUSH2 0x21BF JUMP JUMPDEST PUSH2 0x21A4 JUMP JUMPDEST SWAP1 POP DUP1 DUP4 DUP3 MSTORE PUSH1 0x20 DUP3 ADD SWAP1 POP PUSH1 0x20 DUP5 MUL DUP4 ADD DUP6 DUP2 GT ISZERO PUSH2 0x2226 JUMPI PUSH2 0x2225 PUSH2 0x21EB JUMP JUMPDEST JUMPDEST DUP4 JUMPDEST DUP2 DUP2 LT ISZERO PUSH2 0x224F JUMPI DUP1 PUSH2 0x223B DUP9 DUP3 PUSH2 0x1F26 JUMP JUMPDEST DUP5 MSTORE PUSH1 0x20 DUP5 ADD SWAP4 POP POP PUSH1 0x20 DUP2 ADD SWAP1 POP PUSH2 0x2228 JUMP JUMPDEST POP POP POP SWAP4 SWAP3 POP POP POP JUMP JUMPDEST PUSH1 0x0 DUP3 PUSH1 0x1F DUP4 ADD SLT PUSH2 0x226E JUMPI PUSH2 0x226D PUSH2 0x213F JUMP JUMPDEST JUMPDEST DUP2 CALLDATALOAD PUSH2 0x227E DUP5 DUP3 PUSH1 0x20 DUP7 ADD PUSH2 0x21F0 JUMP JUMPDEST SWAP2 POP POP SWAP3 SWAP2 POP POP JUMP JUMPDEST PUSH1 0x0 DUP1 REVERT JUMPDEST PUSH1 0x0 PUSH8 0xFFFFFFFFFFFFFFFF DUP3 GT ISZERO PUSH2 0x22A7 JUMPI PUSH2 0x22A6 PUSH2 0x2144 JUMP JUMPDEST JUMPDEST PUSH2 0x22B0 DUP3 PUSH2 0x20D3 JUMP JUMPDEST SWAP1 POP PUSH1 0x20 DUP2 ADD SWAP1 POP SWAP2 SWAP1 POP JUMP JUMPDEST DUP3 DUP2 DUP4 CALLDATACOPY PUSH1 0x0 DUP4 DUP4 ADD MSTORE POP POP POP JUMP JUMPDEST PUSH1 0x0 PUSH2 0x22DF PUSH2 0x22DA DUP5 PUSH2 0x228C JUMP JUMPDEST PUSH2 0x21A4 JUMP JUMPDEST SWAP1 POP DUP3 DUP2 MSTORE PUSH1 0x20 DUP2 ADD DUP5 DUP5 DUP5 ADD GT ISZERO PUSH2 0x22FB JUMPI PUSH2 0x22FA PUSH2 0x2287 JUMP JUMPDEST JUMPDEST PUSH2 0x2306 DUP5 DUP3 DUP6 PUSH2 0x22BD JUMP JUMPDEST POP SWAP4 SWAP3 POP POP POP JUMP JUMPDEST PUSH1 0x0 DUP3 PUSH1 0x1F DUP4 ADD SLT PUSH2 0x2323 JUMPI PUSH2 0x2322 PUSH2 0x213F JUMP JUMPDEST JUMPDEST DUP2 CALLDATALOAD PUSH2 0x2333 DUP5 DUP3 PUSH1 0x20 DUP7 ADD PUSH2 0x22CC JUMP JUMPDEST SWAP2 POP POP SWAP3 SWAP2 POP POP JUMP JUMPDEST PUSH1 0x0 DUP1 PUSH1 0x0 DUP1 PUSH1 0x0 PUSH1 0xA0 DUP7 DUP9 SUB SLT ISZERO PUSH2 0x2358 JUMPI PUSH2 0x2357 PUSH2 0x1E9D JUMP JUMPDEST JUMPDEST PUSH1 0x0 PUSH2 0x2366 DUP9 DUP3 DUP10 ADD PUSH2 0x1EF0 JUMP JUMPDEST SWAP6 POP POP PUSH1 0x20 PUSH2 0x2377 DUP9 DUP3 DUP10 ADD PUSH2 0x1EF0 JUMP JUMPDEST SWAP5 POP POP PUSH1 0x40 DUP7 ADD CALLDATALOAD PUSH8 0xFFFFFFFFFFFFFFFF DUP2 GT ISZERO PUSH2 0x2398 JUMPI PUSH2 0x2397 PUSH2 0x1EA2 JUMP JUMPDEST JUMPDEST PUSH2 0x23A4 DUP9 DUP3 DUP10 ADD PUSH2 0x2259 JUMP JUMPDEST SWAP4 POP POP PUSH1 0x60 DUP7 ADD CALLDATALOAD PUSH8 0xFFFFFFFFFFFFFFFF DUP2 GT ISZERO PUSH2 0x23C5 JUMPI PUSH2 0x23C4 PUSH2 0x1EA2 JUMP JUMPDEST JUMPDEST PUSH2 0x23D1 DUP9 DUP3 DUP10 ADD PUSH2 0x2259 JUMP JUMPDEST SWAP3 POP POP PUSH1 0x80 DUP7 ADD CALLDATALOAD PUSH8 0xFFFFFFFFFFFFFFFF DUP2 GT ISZERO PUSH2 0x23F2 JUMPI PUSH2 0x23F1 PUSH2 0x1EA2 JUMP JUMPDEST JUMPDEST PUSH2 0x23FE DUP9 DUP3 DUP10 ADD PUSH2 0x230E JUMP JUMPDEST SWAP2 POP POP SWAP3 SWAP6 POP SWAP3 SWAP6 SWAP1 SWAP4 POP JUMP JUMPDEST PUSH1 0x0 PUSH8 0xFFFFFFFFFFFFFFFF DUP3 GT ISZERO PUSH2 0x2426 JUMPI PUSH2 0x2425 PUSH2 0x2144 JUMP JUMPDEST JUMPDEST PUSH1 0x20 DUP3 MUL SWAP1 POP PUSH1 0x20 DUP2 ADD SWAP1 POP SWAP2 SWAP1 POP JUMP JUMPDEST PUSH1 0x0 PUSH2 0x244A PUSH2 0x2445 DUP5 PUSH2 0x240B JUMP JUMPDEST PUSH2 0x21A4 JUMP JUMPDEST SWAP1 POP DUP1 DUP4 DUP3 MSTORE PUSH1 0x20 DUP3 ADD SWAP1 POP PUSH1 0x20 DUP5 MUL DUP4 ADD DUP6 DUP2 GT ISZERO PUSH2 0x246D JUMPI PUSH2 0x246C PUSH2 0x21EB JUMP JUMPDEST JUMPDEST DUP4 JUMPDEST DUP2 DUP2 LT ISZERO PUSH2 0x2496 JUMPI DUP1 PUSH2 0x2482 DUP9 DUP3 PUSH2 0x1EF0 JUMP JUMPDEST DUP5 MSTORE PUSH1 0x20 DUP5 ADD SWAP4 POP POP PUSH1 0x20 DUP2 ADD SWAP1 POP PUSH2 0x246F JUMP JUMPDEST POP POP POP SWAP4 SWAP3 POP POP POP JUMP JUMPDEST PUSH1 0x0 DUP3 PUSH1 0x1F DUP4 ADD SLT PUSH2 0x24B5 JUMPI PUSH2 0x24B4 PUSH2 0x213F JUMP JUMPDEST JUMPDEST DUP2 CALLDATALOAD PUSH2 0x24C5 DUP5 DUP3 PUSH1 0x20 DUP7 ADD PUSH2 0x2437 JUMP JUMPDEST SWAP2 POP POP SWAP3 SWAP2 POP POP JUMP JUMPDEST PUSH1 0x0 DUP1 PUSH1 0x40 DUP4 DUP6 SUB SLT ISZERO PUSH2 0x24E5 JUMPI PUSH2 0x24E4 PUSH2 0x1E9D JUMP JUMPDEST JUMPDEST PUSH1 0x0 DUP4 ADD CALLDATALOAD PUSH8 0xFFFFFFFFFFFFFFFF DUP2 GT ISZERO PUSH2 0x2503 JUMPI PUSH2 0x2502 PUSH2 0x1EA2 JUMP JUMPDEST JUMPDEST PUSH2 0x250F DUP6 DUP3 DUP7 ADD PUSH2 0x24A0 JUMP JUMPDEST SWAP3 POP POP PUSH1 0x20 DUP4 ADD CALLDATALOAD PUSH8 0xFFFFFFFFFFFFFFFF DUP2 GT ISZERO PUSH2 0x2530 JUMPI PUSH2 0x252F PUSH2 0x1EA2 JUMP JUMPDEST JUMPDEST PUSH2 0x253C DUP6 DUP3 DUP7 ADD PUSH2 0x2259 JUMP JUMPDEST SWAP2 POP POP SWAP3 POP SWAP3 SWAP1 POP JUMP JUMPDEST PUSH1 0x0 DUP2 MLOAD SWAP1 POP SWAP2 SWAP1 POP JUMP JUMPDEST PUSH1 0x0 DUP3 DUP3 MSTORE PUSH1 0x20 DUP3 ADD SWAP1 POP SWAP3 SWAP2 POP POP JUMP JUMPDEST PUSH1 0x0 DUP2 SWAP1 POP PUSH1 0x20 DUP3 ADD SWAP1 POP SWAP2 SWAP1 POP JUMP JUMPDEST PUSH2 0x257B DUP2 PUSH2 0x1F05 JUMP JUMPDEST DUP3 MSTORE POP POP JUMP JUMPDEST PUSH1 0x0 PUSH2 0x258D DUP4 DUP4 PUSH2 0x2572 JUMP JUMPDEST PUSH1 0x20 DUP4 ADD SWAP1 POP SWAP3 SWAP2 POP POP JUMP JUMPDEST PUSH1 0x0 PUSH1 0x20 DUP3 ADD SWAP1 POP SWAP2 SWAP1 POP JUMP JUMPDEST PUSH1 0x0 PUSH2 0x25B1 DUP3 PUSH2 0x2546 JUMP JUMPDEST PUSH2 0x25BB DUP2 DUP6 PUSH2 0x2551 JUMP JUMPDEST SWAP4 POP PUSH2 0x25C6 DUP4 PUSH2 0x2562 JUMP JUMPDEST DUP1 PUSH1 0x0 JUMPDEST DUP4 DUP2 LT ISZERO PUSH2 0x25F7 JUMPI DUP2 MLOAD PUSH2 0x25DE DUP9 DUP3 PUSH2 0x2581 JUMP JUMPDEST SWAP8 POP PUSH2 0x25E9 DUP4 PUSH2 0x2599 JUMP JUMPDEST SWAP3 POP POP PUSH1 0x1 DUP2 ADD SWAP1 POP PUSH2 0x25CA JUMP JUMPDEST POP DUP6 SWAP4 POP POP POP POP SWAP3 SWAP2 POP POP JUMP JUMPDEST PUSH1 0x0 PUSH1 0x20 DUP3 ADD SWAP1 POP DUP2 DUP2 SUB PUSH1 0x0 DUP4 ADD MSTORE PUSH2 0x261E DUP2 DUP5 PUSH2 0x25A6 JUMP JUMPDEST SWAP1 POP SWAP3 SWAP2 POP POP JUMP JUMPDEST PUSH2 0x262F DUP2 PUSH2 0x1EC7 JUMP JUMPDEST DUP3 MSTORE POP POP JUMP JUMPDEST PUSH1 0x0 PUSH1 0x20 DUP3 ADD SWAP1 POP PUSH2 0x264A PUSH1 0x0 DUP4 ADD DUP5 PUSH2 0x2626 JUMP JUMPDEST SWAP3 SWAP2 POP POP JUMP JUMPDEST PUSH2 0x2659 DUP2 PUSH2 0x202A JUMP JUMPDEST DUP2 EQ PUSH2 0x2664 JUMPI PUSH1 0x0 DUP1 REVERT JUMPDEST POP JUMP JUMPDEST PUSH1 0x0 DUP2 CALLDATALOAD SWAP1 POP PUSH2 0x2676 DUP2 PUSH2 0x2650 JUMP JUMPDEST SWAP3 SWAP2 POP POP JUMP JUMPDEST PUSH1 0x0 DUP1 PUSH1 0x40 DUP4 DUP6 SUB SLT ISZERO PUSH2 0x2693 JUMPI PUSH2 0x2692 PUSH2 0x1E9D JUMP JUMPDEST JUMPDEST PUSH1 0x0 PUSH2 0x26A1 DUP6 DUP3 DUP7 ADD PUSH2 0x1EF0 JUMP JUMPDEST SWAP3 POP POP PUSH1 0x20 PUSH2 0x26B2 DUP6 DUP3 DUP7 ADD PUSH2 0x2667 JUMP JUMPDEST SWAP2 POP POP SWAP3 POP SWAP3 SWAP1 POP JUMP JUMPDEST PUSH1 0x0 DUP1 PUSH1 0x40 DUP4 DUP6 SUB SLT ISZERO PUSH2 0x26D3 JUMPI PUSH2 0x26D2 PUSH2 0x1E9D JUMP JUMPDEST JUMPDEST PUSH1 0x0 PUSH2 0x26E1 DUP6 DUP3 DUP7 ADD PUSH2 0x1EF0 JUMP JUMPDEST SWAP3 POP POP PUSH1 0x20 PUSH2 0x26F2 DUP6 DUP3 DUP7 ADD PUSH2 0x1EF0 JUMP JUMPDEST SWAP2 POP POP SWAP3 POP SWAP3 SWAP1 POP JUMP JUMPDEST PUSH1 0x0 DUP1 PUSH1 0x0 DUP1 PUSH1 0x0 PUSH1 0xA0 DUP7 DUP9 SUB SLT ISZERO PUSH2 0x2718 JUMPI PUSH2 0x2717 PUSH2 0x1E9D JUMP JUMPDEST JUMPDEST PUSH1 0x0 PUSH2 0x2726 DUP9 DUP3 DUP10 ADD PUSH2 0x1EF0 JUMP JUMPDEST SWAP6 POP POP PUSH1 0x20 PUSH2 0x2737 DUP9 DUP3 DUP10 ADD PUSH2 0x1EF0 JUMP JUMPDEST SWAP5 POP POP PUSH1 0x40 PUSH2 0x2748 DUP9 DUP3 DUP10 ADD PUSH2 0x1F26 JUMP JUMPDEST SWAP4 POP POP PUSH1 0x60 PUSH2 0x2759 DUP9 DUP3 DUP10 ADD PUSH2 0x1F26 JUMP JUMPDEST SWAP3 POP POP PUSH1 0x80 DUP7 ADD CALLDATALOAD PUSH8 0xFFFFFFFFFFFFFFFF DUP2 GT ISZERO PUSH2 0x277A JUMPI PUSH2 0x2779 PUSH2 0x1EA2 JUMP JUMPDEST JUMPDEST PUSH2 0x2786 DUP9 DUP3 DUP10 ADD PUSH2 0x230E JUMP JUMPDEST SWAP2 POP POP SWAP3 SWAP6 POP SWAP3 SWAP6 SWAP1 SWAP4 POP JUMP JUMPDEST PUSH1 0x0 PUSH1 0x20 DUP3 DUP5 SUB SLT ISZERO PUSH2 0x27A9 JUMPI PUSH2 0x27A8 PUSH2 0x1E9D JUMP JUMPDEST JUMPDEST PUSH1 0x0 PUSH2 0x27B7 DUP5 DUP3 DUP6 ADD PUSH2 0x1EF0 JUMP JUMPDEST SWAP2 POP POP SWAP3 SWAP2 POP POP JUMP JUMPDEST PUSH32 0x455243313135353A2061646472657373207A65726F206973206E6F7420612076 PUSH1 0x0 DUP3 ADD MSTORE PUSH32 0x616C6964206F776E657200000000000000000000000000000000000000000000 PUSH1 0x20 DUP3 ADD MSTORE POP JUMP JUMPDEST PUSH1 0x0 PUSH2 0x281C PUSH1 0x2A DUP4 PUSH2 0x2098 JUMP JUMPDEST SWAP2 POP PUSH2 0x2827 DUP3 PUSH2 0x27C0 JUMP JUMPDEST PUSH1 0x40 DUP3 ADD SWAP1 POP SWAP2 SWAP1 POP JUMP JUMPDEST PUSH1 0x0 PUSH1 0x20 DUP3 ADD SWAP1 POP DUP2 DUP2 SUB PUSH1 0x0 DUP4 ADD MSTORE PUSH2 0x284B DUP2 PUSH2 0x280F JUMP JUMPDEST SWAP1 POP SWAP2 SWAP1 POP JUMP JUMPDEST PUSH32 0x455243313135353A2063616C6C6572206973206E6F7420746F6B656E206F776E PUSH1 0x0 DUP3 ADD MSTORE PUSH32 0x6572206F7220617070726F766564000000000000000000000000000000000000 PUSH1 0x20 DUP3 ADD MSTORE POP JUMP JUMPDEST PUSH1 0x0 PUSH2 0x28AE PUSH1 0x2E DUP4 PUSH2 0x2098 JUMP JUMPDEST SWAP2 POP PUSH2 0x28B9 DUP3 PUSH2 0x2852 JUMP JUMPDEST PUSH1 0x40 DUP3 ADD SWAP1 POP SWAP2 SWAP1 POP JUMP JUMPDEST PUSH1 0x0 PUSH1 0x20 DUP3 ADD SWAP1 POP DUP2 DUP2 SUB PUSH1 0x0 DUP4 ADD MSTORE PUSH2 0x28DD DUP2 PUSH2 0x28A1 JUMP JUMPDEST SWAP1 POP SWAP2 SWAP1 POP JUMP JUMPDEST PUSH32 0x455243313135353A206163636F756E747320616E6420696473206C656E677468 PUSH1 0x0 DUP3 ADD MSTORE PUSH32 0x206D69736D617463680000000000000000000000000000000000000000000000 PUSH1 0x20 DUP3 ADD MSTORE POP JUMP JUMPDEST PUSH1 0x0 PUSH2 0x2940 PUSH1 0x29 DUP4 PUSH2 0x2098 JUMP JUMPDEST SWAP2 POP PUSH2 0x294B DUP3 PUSH2 0x28E4 JUMP JUMPDEST PUSH1 0x40 DUP3 ADD SWAP1 POP SWAP2 SWAP1 POP JUMP JUMPDEST PUSH1 0x0 PUSH1 0x20 DUP3 ADD SWAP1 POP DUP2 DUP2 SUB PUSH1 0x0 DUP4 ADD MSTORE PUSH2 0x296F DUP2 PUSH2 0x2933 JUMP JUMPDEST SWAP1 POP SWAP2 SWAP1 POP JUMP JUMPDEST PUSH32 0x4E487B7100000000000000000000000000000000000000000000000000000000 PUSH1 0x0 MSTORE PUSH1 0x32 PUSH1 0x4 MSTORE PUSH1 0x24 PUSH1 0x0 REVERT JUMPDEST PUSH32 0x4E487B7100000000000000000000000000000000000000000000000000000000 PUSH1 0x0 MSTORE PUSH1 0x11 PUSH1 0x4 MSTORE PUSH1 0x24 PUSH1 0x0 REVERT JUMPDEST PUSH1 0x0 PUSH2 0x29DF DUP3 PUSH2 0x1F05 JUMP JUMPDEST SWAP2 POP PUSH32 0xFFFFFFFFFFFFFFFFFFFFFFFFFFFFFFFFFFFFFFFFFFFFFFFFFFFFFFFFFFFFFFFF DUP3 SUB PUSH2 0x2A11 JUMPI PUSH2 0x2A10 PUSH2 0x29A5 JUMP JUMPDEST JUMPDEST PUSH1 0x1 DUP3 ADD SWAP1 POP SWAP2 SWAP1 POP JUMP JUMPDEST PUSH32 0x496E697469616C697A61626C653A20636F6E747261637420697320616C726561 PUSH1 0x0 DUP3 ADD MSTORE PUSH32 0x647920696E697469616C697A6564000000000000000000000000000000000000 PUSH1 0x20 DUP3 ADD MSTORE POP JUMP JUMPDEST PUSH1 0x0 PUSH2 0x2A78 PUSH1 0x2E DUP4 PUSH2 0x2098 JUMP JUMPDEST SWAP2 POP PUSH2 0x2A83 DUP3 PUSH2 0x2A1C JUMP JUMPDEST PUSH1 0x40 DUP3 ADD SWAP1 POP SWAP2 SWAP1 POP JUMP JUMPDEST PUSH1 0x0 PUSH1 0x20 DUP3 ADD SWAP1 POP DUP2 DUP2 SUB PUSH1 0x0 DUP4 ADD MSTORE PUSH2 0x2AA7 DUP2 PUSH2 0x2A6B JUMP JUMPDEST SWAP1 POP SWAP2 SWAP1 POP JUMP JUMPDEST PUSH1 0x0 DUP2 SWAP1 POP SWAP2 SWAP1 POP JUMP JUMPDEST PUSH1 0x0 PUSH1 0xFF DUP3 AND SWAP1 POP SWAP2 SWAP1 POP JUMP JUMPDEST PUSH1 0x0 DUP2 SWAP1 POP SWAP2 SWAP1 POP JUMP JUMPDEST PUSH1 0x0 PUSH2 0x2AEA PUSH2 0x2AE5 PUSH2 0x2AE0 DUP5 PUSH2 0x2AAE JUMP JUMPDEST PUSH2 0x2AC5 JUMP JUMPDEST PUSH2 0x2AB8 JUMP JUMPDEST SWAP1 POP SWAP2 SWAP1 POP JUMP JUMPDEST PUSH2 0x2AFA DUP2 PUSH2 0x2ACF JUMP JUMPDEST DUP3 MSTORE POP POP JUMP JUMPDEST PUSH1 0x0 PUSH1 0x20 DUP3 ADD SWAP1 POP PUSH2 0x2B15 PUSH1 0x0 DUP4 ADD DUP5 PUSH2 0x2AF1 JUMP JUMPDEST SWAP3 SWAP2 POP POP JUMP JUMPDEST PUSH32 0x4F776E61626C653A206E6577206F776E657220697320746865207A65726F2061 PUSH1 0x0 DUP3 ADD MSTORE PUSH32 0x6464726573730000000000000000000000000000000000000000000000000000 PUSH1 0x20 DUP3 ADD MSTORE POP JUMP JUMPDEST PUSH1 0x0 PUSH2 0x2B77 PUSH1 0x26 DUP4 PUSH2 0x2098 JUMP JUMPDEST SWAP2 POP PUSH2 0x2B82 DUP3 PUSH2 0x2B1B JUMP JUMPDEST PUSH1 0x40 DUP3 ADD SWAP1 POP SWAP2 SWAP1 POP JUMP JUMPDEST PUSH1 0x0 PUSH1 0x20 DUP3 ADD SWAP1 POP DUP2 DUP2 SUB PUSH1 0x0 DUP4 ADD MSTORE PUSH2 0x2BA6 DUP2 PUSH2 0x2B6A JUMP JUMPDEST SWAP1 POP SWAP2 SWAP1 POP JUMP JUMPDEST PUSH32 0x455243313135353A2069647320616E6420616D6F756E7473206C656E67746820 PUSH1 0x0 DUP3 ADD MSTORE PUSH32 0x6D69736D61746368000000000000000000000000000000000000000000000000 PUSH1 0x20 DUP3 ADD MSTORE POP JUMP JUMPDEST PUSH1 0x0 PUSH2 0x2C09 PUSH1 0x28 DUP4 PUSH2 0x2098 JUMP JUMPDEST SWAP2 POP PUSH2 0x2C14 DUP3 PUSH2 0x2BAD JUMP JUMPDEST PUSH1 0x40 DUP3 ADD SWAP1 POP SWAP2 SWAP1 POP JUMP JUMPDEST PUSH1 0x0 PUSH1 0x20 DUP3 ADD SWAP1 POP DUP2 DUP2 SUB PUSH1 0x0 DUP4 ADD MSTORE PUSH2 0x2C38 DUP2 PUSH2 0x2BFC JUMP JUMPDEST SWAP1 POP SWAP2 SWAP1 POP JUMP JUMPDEST PUSH32 0x455243313135353A207472616E7366657220746F20746865207A65726F206164 PUSH1 0x0 DUP3 ADD MSTORE PUSH32 0x6472657373000000000000000000000000000000000000000000000000000000 PUSH1 0x20 DUP3 ADD MSTORE POP JUMP JUMPDEST PUSH1 0x0 PUSH2 0x2C9B PUSH1 0x25 DUP4 PUSH2 0x2098 JUMP JUMPDEST SWAP2 POP PUSH2 0x2CA6 DUP3 PUSH2 0x2C3F JUMP JUMPDEST PUSH1 0x40 DUP3 ADD SWAP1 POP SWAP2 SWAP1 POP JUMP JUMPDEST PUSH1 0x0 PUSH1 0x20 DUP3 ADD SWAP1 POP DUP2 DUP2 SUB PUSH1 0x0 DUP4 ADD MSTORE PUSH2 0x2CCA DUP2 PUSH2 0x2C8E JUMP JUMPDEST SWAP1 POP SWAP2 SWAP1 POP JUMP JUMPDEST PUSH32 0x455243313135353A20696E73756666696369656E742062616C616E636520666F PUSH1 0x0 DUP3 ADD MSTORE PUSH32 0x72207472616E7366657200000000000000000000000000000000000000000000 PUSH1 0x20 DUP3 ADD MSTORE POP JUMP JUMPDEST PUSH1 0x0 PUSH2 0x2D2D PUSH1 0x2A DUP4 PUSH2 0x2098 JUMP JUMPDEST SWAP2 POP PUSH2 0x2D38 DUP3 PUSH2 0x2CD1 JUMP JUMPDEST PUSH1 0x40 DUP3 ADD SWAP1 POP SWAP2 SWAP1 POP JUMP JUMPDEST PUSH1 0x0 PUSH1 0x20 DUP3 ADD SWAP1 POP DUP2 DUP2 SUB PUSH1 0x0 DUP4 ADD MSTORE PUSH2 0x2D5C DUP2 PUSH2 0x2D20 JUMP JUMPDEST SWAP1 POP SWAP2 SWAP1 POP JUMP JUMPDEST PUSH1 0x0 PUSH2 0x2D6E DUP3 PUSH2 0x1F05 JUMP JUMPDEST SWAP2 POP PUSH2 0x2D79 DUP4 PUSH2 0x1F05 JUMP JUMPDEST SWAP3 POP DUP3 DUP3 ADD SWAP1 POP DUP1 DUP3 GT ISZERO PUSH2 0x2D91 JUMPI PUSH2 0x2D90 PUSH2 0x29A5 JUMP JUMPDEST JUMPDEST SWAP3 SWAP2 POP POP JUMP JUMPDEST PUSH1 0x0 PUSH1 0x40 DUP3 ADD SWAP1 POP DUP2 DUP2 SUB PUSH1 0x0 DUP4 ADD MSTORE PUSH2 0x2DB1 DUP2 DUP6 PUSH2 0x25A6 JUMP JUMPDEST SWAP1 POP DUP2 DUP2 SUB PUSH1 0x20 DUP4 ADD MSTORE PUSH2 0x2DC5 DUP2 DUP5 PUSH2 0x25A6 JUMP JUMPDEST SWAP1 POP SWAP4 SWAP3 POP POP POP JUMP JUMPDEST PUSH32 0x4F776E61626C653A2063616C6C6572206973206E6F7420746865206F776E6572 PUSH1 0x0 DUP3 ADD MSTORE POP JUMP JUMPDEST PUSH1 0x0 PUSH2 0x2E04 PUSH1 0x20 DUP4 PUSH2 0x2098 JUMP JUMPDEST SWAP2 POP PUSH2 0x2E0F DUP3 PUSH2 0x2DCE JUMP JUMPDEST PUSH1 0x20 DUP3 ADD SWAP1 POP SWAP2 SWAP1 POP JUMP JUMPDEST PUSH1 0x0 PUSH1 0x20 DUP3 ADD SWAP1 POP DUP2 DUP2 SUB PUSH1 0x0 DUP4 ADD MSTORE PUSH2 0x2E33 DUP2 PUSH2 0x2DF7 JUMP JUMPDEST SWAP1 POP SWAP2 SWAP1 POP JUMP JUMPDEST PUSH32 0x455243313135353A2073657474696E6720617070726F76616C20737461747573 PUSH1 0x0 DUP3 ADD MSTORE PUSH32 0x20666F722073656C660000000000000000000000000000000000000000000000 PUSH1 0x20 DUP3 ADD MSTORE POP JUMP JUMPDEST PUSH1 0x0 PUSH2 0x2E96 PUSH1 0x29 DUP4 PUSH2 0x2098 JUMP JUMPDEST SWAP2 POP PUSH2 0x2EA1 DUP3 PUSH2 0x2E3A JUMP JUMPDEST PUSH1 0x40 DUP3 ADD SWAP1 POP SWAP2 SWAP1 POP JUMP JUMPDEST PUSH1 0x0 PUSH1 0x20 DUP3 ADD SWAP1 POP DUP2 DUP2 SUB PUSH1 0x0 DUP4 ADD MSTORE PUSH2 0x2EC5 DUP2 PUSH2 0x2E89 JUMP JUMPDEST SWAP1 POP SWAP2 SWAP1 POP JUMP JUMPDEST PUSH1 0x0 PUSH1 0x40 DUP3 ADD SWAP1 POP PUSH2 0x2EE1 PUSH1 0x0 DUP4 ADD DUP6 PUSH2 0x1F7B JUMP JUMPDEST PUSH2 0x2EEE PUSH1 0x20 DUP4 ADD DUP5 PUSH2 0x1F7B JUMP JUMPDEST SWAP4 SWAP3 POP POP POP JUMP JUMPDEST PUSH1 0x0 DUP2 MLOAD SWAP1 POP SWAP2 SWAP1 POP JUMP JUMPDEST PUSH1 0x0 DUP3 DUP3 MSTORE PUSH1 0x20 DUP3 ADD SWAP1 POP SWAP3 SWAP2 POP POP JUMP JUMPDEST PUSH1 0x0 PUSH2 0x2F1C DUP3 PUSH2 0x2EF5 JUMP JUMPDEST PUSH2 0x2F26 DUP2 DUP6 PUSH2 0x2F00 JUMP JUMPDEST SWAP4 POP PUSH2 0x2F36 DUP2 DUP6 PUSH1 0x20 DUP7 ADD PUSH2 0x20A9 JUMP JUMPDEST PUSH2 0x2F3F DUP2 PUSH2 0x20D3 JUMP JUMPDEST DUP5 ADD SWAP2 POP POP SWAP3 SWAP2 POP POP JUMP JUMPDEST PUSH1 0x0 PUSH1 0xA0 DUP3 ADD SWAP1 POP PUSH2 0x2F5F PUSH1 0x0 DUP4 ADD DUP9 PUSH2 0x2626 JUMP JUMPDEST PUSH2 0x2F6C PUSH1 0x20 DUP4 ADD DUP8 PUSH2 0x2626 JUMP JUMPDEST DUP2 DUP2 SUB PUSH1 0x40 DUP4 ADD MSTORE PUSH2 0x2F7E DUP2 DUP7 PUSH2 0x25A6 JUMP JUMPDEST SWAP1 POP DUP2 DUP2 SUB PUSH1 0x60 DUP4 ADD MSTORE PUSH2 0x2F92 DUP2 DUP6 PUSH2 0x25A6 JUMP JUMPDEST SWAP1 POP DUP2 DUP2 SUB PUSH1 0x80 DUP4 ADD MSTORE PUSH2 0x2FA6 DUP2 DUP5 PUSH2 0x2F11 JUMP JUMPDEST SWAP1 POP SWAP7 SWAP6 POP POP POP POP POP POP JUMP JUMPDEST PUSH1 0x0 DUP2 MLOAD SWAP1 POP PUSH2 0x2FC1 DUP2 PUSH2 0x1FD1 JUMP JUMPDEST SWAP3 SWAP2 POP POP JUMP JUMPDEST PUSH1 0x0 PUSH1 0x20 DUP3 DUP5 SUB SLT ISZERO PUSH2 0x2FDD JUMPI PUSH2 0x2FDC PUSH2 0x1E9D JUMP JUMPDEST JUMPDEST PUSH1 0x0 PUSH2 0x2FEB DUP5 DUP3 DUP6 ADD PUSH2 0x2FB2 JUMP JUMPDEST SWAP2 POP POP SWAP3 SWAP2 POP POP JUMP JUMPDEST PUSH1 0x0 DUP2 PUSH1 0xE0 SHR SWAP1 POP SWAP2 SWAP1 POP JUMP JUMPDEST PUSH1 0x0 PUSH1 0x3 RETURNDATASIZE GT ISZERO PUSH2 0x3020 JUMPI PUSH1 0x4 PUSH1 0x0 DUP1 RETURNDATACOPY PUSH2 0x301D PUSH1 0x0 MLOAD PUSH2 0x2FF4 JUMP JUMPDEST SWAP1 POP JUMPDEST SWAP1 JUMP JUMPDEST PUSH1 0x0 PUSH1 0x44 RETURNDATASIZE LT PUSH2 0x30B0 JUMPI PUSH2 0x3035 PUSH2 0x1E93 JUMP JUMPDEST PUSH1 0x4 RETURNDATASIZE SUB PUSH1 0x4 DUP3 RETURNDATACOPY DUP1 MLOAD RETURNDATASIZE PUSH1 0x24 DUP3 ADD GT PUSH8 0xFFFFFFFFFFFFFFFF DUP3 GT OR ISZERO PUSH2 0x305D JUMPI POP POP PUSH2 0x30B0 JUMP JUMPDEST DUP1 DUP3 ADD DUP1 MLOAD PUSH8 0xFFFFFFFFFFFFFFFF DUP2 GT ISZERO PUSH2 0x307B JUMPI POP POP POP POP PUSH2 0x30B0 JUMP JUMPDEST DUP1 PUSH1 0x20 DUP4 ADD ADD PUSH1 0x4 RETURNDATASIZE SUB DUP6 ADD DUP2 GT ISZERO PUSH2 0x3098 JUMPI POP POP POP POP POP PUSH2 0x30B0 JUMP JUMPDEST PUSH2 0x30A7 DUP3 PUSH1 0x20 ADD DUP6 ADD DUP7 PUSH2 0x2173 JUMP JUMPDEST DUP3 SWAP6 POP POP POP POP POP POP JUMPDEST SWAP1 JUMP JUMPDEST PUSH32 0x455243313135353A207472616E7366657220746F206E6F6E2D45524331313535 PUSH1 0x0 DUP3 ADD MSTORE PUSH32 0x526563656976657220696D706C656D656E746572000000000000000000000000 PUSH1 0x20 DUP3 ADD MSTORE POP JUMP JUMPDEST PUSH1 0x0 PUSH2 0x310F PUSH1 0x34 DUP4 PUSH2 0x2098 JUMP JUMPDEST SWAP2 POP PUSH2 0x311A DUP3 PUSH2 0x30B3 JUMP JUMPDEST PUSH1 0x40 DUP3 ADD SWAP1 POP SWAP2 SWAP1 POP JUMP JUMPDEST PUSH1 0x0 PUSH1 0x20 DUP3 ADD SWAP1 POP DUP2 DUP2 SUB PUSH1 0x0 DUP4 ADD MSTORE PUSH2 0x313E DUP2 PUSH2 0x3102 JUMP JUMPDEST SWAP1 POP SWAP2 SWAP1 POP JUMP JUMPDEST PUSH32 0x455243313135353A204552433131353552656365697665722072656A65637465 PUSH1 0x0 DUP3 ADD MSTORE PUSH32 0x6420746F6B656E73000000000000000000000000000000000000000000000000 PUSH1 0x20 DUP3 ADD MSTORE POP JUMP JUMPDEST PUSH1 0x0 PUSH2 0x31A1 PUSH1 0x28 DUP4 PUSH2 0x2098 JUMP JUMPDEST SWAP2 POP PUSH2 0x31AC DUP3 PUSH2 0x3145 JUMP JUMPDEST PUSH1 0x40 DUP3 ADD SWAP1 POP SWAP2 SWAP1 POP JUMP JUMPDEST PUSH1 0x0 PUSH1 0x20 DUP3 ADD SWAP1 POP DUP2 DUP2 SUB PUSH1 0x0 DUP4 ADD MSTORE PUSH2 0x31D0 DUP2 PUSH2 0x3194 JUMP JUMPDEST SWAP1 POP SWAP2 SWAP1 POP JUMP JUMPDEST PUSH32 0x5061757361626C653A206E6F7420706175736564000000000000000000000000 PUSH1 0x0 DUP3 ADD MSTORE POP JUMP JUMPDEST PUSH1 0x0 PUSH2 0x320D PUSH1 0x14 DUP4 PUSH2 0x2098 JUMP JUMPDEST SWAP2 POP PUSH2 0x3218 DUP3 PUSH2 0x31D7 JUMP JUMPDEST PUSH1 0x20 DUP3 ADD SWAP1 POP SWAP2 SWAP1 POP JUMP JUMPDEST PUSH1 0x0 PUSH1 0x20 DUP3 ADD SWAP1 POP DUP2 DUP2 SUB PUSH1 0x0 DUP4 ADD MSTORE PUSH2 0x323C DUP2 PUSH2 0x3200 JUMP JUMPDEST SWAP1 POP SWAP2 SWAP1 POP JUMP JUMPDEST PUSH32 0x496E697469616C697A61626C653A20636F6E7472616374206973206E6F742069 PUSH1 0x0 DUP3 ADD MSTORE PUSH32 0x6E697469616C697A696E67000000000000000000000000000000000000000000 PUSH1 0x20 DUP3 ADD MSTORE POP JUMP JUMPDEST PUSH1 0x0 PUSH2 0x329F PUSH1 0x2B DUP4 PUSH2 0x2098 JUMP JUMPDEST SWAP2 POP PUSH2 0x32AA DUP3 PUSH2 0x3243 JUMP JUMPDEST PUSH1 0x40 DUP3 ADD SWAP1 POP SWAP2 SWAP1 POP JUMP JUMPDEST PUSH1 0x0 PUSH1 0x20 DUP3 ADD SWAP1 POP DUP2 DUP2 SUB PUSH1 0x0 DUP4 ADD MSTORE PUSH2 0x32CE DUP2 PUSH2 0x3292 JUMP JUMPDEST SWAP1 POP SWAP2 SWAP1 POP JUMP JUMPDEST PUSH32 0x5061757361626C653A2070617573656400000000000000000000000000000000 PUSH1 0x0 DUP3 ADD MSTORE POP JUMP JUMPDEST PUSH1 0x0 PUSH2 0x330B PUSH1 0x10 DUP4 PUSH2 0x2098 JUMP JUMPDEST SWAP2 POP PUSH2 0x3316 DUP3 PUSH2 0x32D5 JUMP JUMPDEST PUSH1 0x20 DUP3 ADD SWAP1 POP SWAP2 SWAP1 POP JUMP JUMPDEST PUSH1 0x0 PUSH1 0x20 DUP3 ADD SWAP1 POP DUP2 DUP2 SUB PUSH1 0x0 DUP4 ADD MSTORE PUSH2 0x333A DUP2 PUSH2 0x32FE JUMP JUMPDEST SWAP1 POP SWAP2 SWAP1 POP JUMP JUMPDEST PUSH1 0x0 PUSH1 0xA0 DUP3 ADD SWAP1 POP PUSH2 0x3356 PUSH1 0x0 DUP4 ADD DUP9 PUSH2 0x2626 JUMP JUMPDEST PUSH2 0x3363 PUSH1 0x20 DUP4 ADD DUP8 PUSH2 0x2626 JUMP JUMPDEST PUSH2 0x3370 PUSH1 0x40 DUP4 ADD DUP7 PUSH2 0x1F7B JUMP JUMPDEST PUSH2 0x337D PUSH1 0x60 DUP4 ADD DUP6 PUSH2 0x1F7B JUMP JUMPDEST DUP2 DUP2 SUB PUSH1 0x80 DUP4 ADD MSTORE PUSH2 0x338F DUP2 DUP5 PUSH2 0x2F11 JUMP JUMPDEST SWAP1 POP SWAP7 SWAP6 POP POP POP POP POP POP JUMP JUMPDEST PUSH32 0x455243313135353A206275726E20616D6F756E74206578636565647320746F74 PUSH1 0x0 DUP3 ADD MSTORE PUSH32 0x616C537570706C79000000000000000000000000000000000000000000000000 PUSH1 0x20 DUP3 ADD MSTORE POP JUMP JUMPDEST PUSH1 0x0 PUSH2 0x33F7 PUSH1 0x28 DUP4 PUSH2 0x2098 JUMP JUMPDEST SWAP2 POP PUSH2 0x3402 DUP3 PUSH2 0x339B JUMP JUMPDEST PUSH1 0x40 DUP3 ADD SWAP1 POP SWAP2 SWAP1 POP JUMP JUMPDEST PUSH1 0x0 PUSH1 0x20 DUP3 ADD SWAP1 POP DUP2 DUP2 SUB PUSH1 0x0 DUP4 ADD MSTORE PUSH2 0x3426 DUP2 PUSH2 0x33EA JUMP JUMPDEST SWAP1 POP SWAP2 SWAP1 POP JUMP JUMPDEST PUSH32 0x4E487B7100000000000000000000000000000000000000000000000000000000 PUSH1 0x0 MSTORE PUSH1 0x22 PUSH1 0x4 MSTORE PUSH1 0x24 PUSH1 0x0 REVERT JUMPDEST PUSH1 0x0 PUSH1 0x2 DUP3 DIV SWAP1 POP PUSH1 0x1 DUP3 AND DUP1 PUSH2 0x3474 JUMPI PUSH1 0x7F DUP3 AND SWAP2 POP JUMPDEST PUSH1 0x20 DUP3 LT DUP2 SUB PUSH2 0x3487 JUMPI PUSH2 0x3486 PUSH2 0x342D JUMP JUMPDEST JUMPDEST POP SWAP2 SWAP1 POP JUMP JUMPDEST PUSH1 0x0 DUP2 SWAP1 POP DUP2 PUSH1 0x0 MSTORE PUSH1 0x20 PUSH1 0x0 KECCAK256 SWAP1 POP SWAP2 SWAP1 POP JUMP JUMPDEST PUSH1 0x0 PUSH1 0x20 PUSH1 0x1F DUP4 ADD DIV SWAP1 POP SWAP2 SWAP1 POP JUMP JUMPDEST PUSH1 0x0 DUP3 DUP3 SHL SWAP1 POP SWAP3 SWAP2 POP POP JUMP JUMPDEST PUSH1 0x0 PUSH1 0x8 DUP4 MUL PUSH2 0x34EF PUSH32 0xFFFFFFFFFFFFFFFFFFFFFFFFFFFFFFFFFFFFFFFFFFFFFFFFFFFFFFFFFFFFFFFF DUP3 PUSH2 0x34B2 JUMP JUMPDEST PUSH2 0x34F9 DUP7 DUP4 PUSH2 0x34B2 JUMP JUMPDEST SWAP6 POP DUP1 NOT DUP5 AND SWAP4 POP DUP1 DUP7 AND DUP5 OR SWAP3 POP POP POP SWAP4 SWAP3 POP POP POP JUMP JUMPDEST PUSH1 0x0 PUSH2 0x352C PUSH2 0x3527 PUSH2 0x3522 DUP5 PUSH2 0x1F05 JUMP JUMPDEST PUSH2 0x2AC5 JUMP JUMPDEST PUSH2 0x1F05 JUMP JUMPDEST SWAP1 POP SWAP2 SWAP1 POP JUMP JUMPDEST PUSH1 0x0 DUP2 SWAP1 POP SWAP2 SWAP1 POP JUMP JUMPDEST PUSH2 0x3546 DUP4 PUSH2 0x3511 JUMP JUMPDEST PUSH2 0x355A PUSH2 0x3552 DUP3 PUSH2 0x3533 JUMP JUMPDEST DUP5 DUP5 SLOAD PUSH2 0x34BF JUMP JUMPDEST DUP3 SSTORE POP POP POP POP JUMP JUMPDEST PUSH1 0x0 SWAP1 JUMP JUMPDEST PUSH2 0x356F PUSH2 0x3562 JUMP JUMPDEST PUSH2 0x357A DUP2 DUP5 DUP5 PUSH2 0x353D JUMP JUMPDEST POP POP POP JUMP JUMPDEST JUMPDEST DUP2 DUP2 LT ISZERO PUSH2 0x359E JUMPI PUSH2 0x3593 PUSH1 0x0 DUP3 PUSH2 0x3567 JUMP JUMPDEST PUSH1 0x1 DUP2 ADD SWAP1 POP PUSH2 0x3580 JUMP JUMPDEST POP POP JUMP JUMPDEST PUSH1 0x1F DUP3 GT ISZERO PUSH2 0x35E3 JUMPI PUSH2 0x35B4 DUP2 PUSH2 0x348D JUMP JUMPDEST PUSH2 0x35BD DUP5 PUSH2 0x34A2 JUMP JUMPDEST DUP2 ADD PUSH1 0x20 DUP6 LT ISZERO PUSH2 0x35CC JUMPI DUP2 SWAP1 POP JUMPDEST PUSH2 0x35E0 PUSH2 0x35D8 DUP6 PUSH2 0x34A2 JUMP JUMPDEST DUP4 ADD DUP3 PUSH2 0x357F JUMP JUMPDEST POP POP JUMPDEST POP POP POP JUMP JUMPDEST PUSH1 0x0 DUP3 DUP3 SHR SWAP1 POP SWAP3 SWAP2 POP POP JUMP JUMPDEST PUSH1 0x0 PUSH2 0x3606 PUSH1 0x0 NOT DUP5 PUSH1 0x8 MUL PUSH2 0x35E8 JUMP JUMPDEST NOT DUP1 DUP4 AND SWAP2 POP POP SWAP3 SWAP2 POP POP JUMP JUMPDEST PUSH1 0x0 PUSH2 0x361F DUP4 DUP4 PUSH2 0x35F5 JUMP JUMPDEST SWAP2 POP DUP3 PUSH1 0x2 MUL DUP3 OR SWAP1 POP SWAP3 SWAP2 POP POP JUMP JUMPDEST PUSH2 0x3638 DUP3 PUSH2 0x208D JUMP JUMPDEST PUSH8 0xFFFFFFFFFFFFFFFF DUP2 GT ISZERO PUSH2 0x3651 JUMPI PUSH2 0x3650 PUSH2 0x2144 JUMP JUMPDEST JUMPDEST PUSH2 0x365B DUP3 SLOAD PUSH2 0x345C JUMP JUMPDEST PUSH2 0x3666 DUP3 DUP3 DUP6 PUSH2 0x35A2 JUMP JUMPDEST PUSH1 0x0 PUSH1 0x20 SWAP1 POP PUSH1 0x1F DUP4 GT PUSH1 0x1 DUP2 EQ PUSH2 0x3699 JUMPI PUSH1 0x0 DUP5 ISZERO PUSH2 0x3687 JUMPI DUP3 DUP8 ADD MLOAD SWAP1 POP JUMPDEST PUSH2 0x3691 DUP6 DUP3 PUSH2 0x3613 JUMP JUMPDEST DUP7 SSTORE POP PUSH2 0x36F9 JUMP JUMPDEST PUSH1 0x1F NOT DUP5 AND PUSH2 0x36A7 DUP7 PUSH2 0x348D JUMP JUMPDEST PUSH1 0x0 JUMPDEST DUP3 DUP2 LT ISZERO PUSH2 0x36CF JUMPI DUP5 DUP10 ADD MLOAD DUP3 SSTORE PUSH1 0x1 DUP3 ADD SWAP2 POP PUSH1 0x20 DUP6 ADD SWAP5 POP PUSH1 0x20 DUP2 ADD SWAP1 POP PUSH2 0x36AA JUMP JUMPDEST DUP7 DUP4 LT ISZERO PUSH2 0x36EC JUMPI DUP5 DUP10 ADD MLOAD PUSH2 0x36E8 PUSH1 0x1F DUP10 AND DUP3 PUSH2 0x35F5 JUMP JUMPDEST DUP4 SSTORE POP JUMPDEST PUSH1 0x1 PUSH1 0x2 DUP9 MUL ADD DUP9 SSTORE POP POP POP JUMPDEST POP POP POP POP POP POP JUMP INVALID LOG2 PUSH5 0x6970667358 0x22 SLT KECCAK256 0x4C PUSH19 0xE8CEC54F3CA839F28004F985B45C9B1D116115 SWAP14 SWAP15 0xF6 0x4B SELFDESTRUCT 0x2E DELEGATECALL SWAP8 0xC5 DUP10 PUSH10 0x64736F6C634300081300 CALLER "},"methodIdentifiers":{"balanceOf(address,uint256)":"00fdd58e","balanceOfBatch(address[],uint256[])":"4e1273f4","exists(uint256)":"4f558e79","initialize()":"8129fc1c","isApprovedForAll(address,address)":"e985e9c5","owner()":"8da5cb5b","pause()":"8456cb59","paused()":"5c975abb","renounceOwnership()":"715018a6","safeBatchTransferFrom(address,address,uint256[],uint256[],bytes)":"2eb2c2d6","safeTransferFrom(address,address,uint256,uint256,bytes)":"f242432a","setApprovalForAll(address,bool)":"a22cb465","supportsInterface(bytes4)":"01ffc9a7","totalSupply(uint256)":"bd85b039","transferOwnership(address)":"f2fde38b","unpause()":"3f4ba83a","uri(uint256)":"0e89341c"}}}}}