{
  "address": "0xa4afeb8dB7C88de6145C849532A592B56cA9bf7E",
  "abi": [
    {
      "inputs": [],
      "name": "DepositNotEnough",
      "type": "error"
    },
    {
      "inputs": [],
      "name": "DepositTooSmall",
      "type": "error"
    },
    {
      "inputs": [],
      "name": "DepositTransferFailed",
      "type": "error"
    },
    {
      "inputs": [],
      "name": "EntityExists",
      "type": "error"
    },
    {
      "inputs": [],
      "name": "EntityNotFound",
      "type": "error"
    },
    {
      "inputs": [],
      "name": "InvalidConfig",
      "type": "error"
    },
    {
      "inputs": [],
      "name": "InvalidKind",
      "type": "error"
    },
    {
      "inputs": [],
      "name": "InvalidSignature",
      "type": "error"
    },
    {
      "inputs": [],
      "name": "InvalidSigner",
      "type": "error"
    },
    {
      "inputs": [],
      "name": "NotEntityOwner",
      "type": "error"
    },
    {
      "anonymous": false,
      "inputs": [
        {
          "indexed": false,
          "internalType": "bytes32",
          "name": "id",
          "type": "bytes32"
        },
        {
          "indexed": false,
          "internalType": "address",
          "name": "sender",
          "type": "address"
        },
        {
          "indexed": false,
          "internalType": "uint256",
          "name": "value",
          "type": "uint256"
        }
      ],
      "name": "Deposit",
      "type": "event"
    },
    {
      "anonymous": false,
      "inputs": [
        {
          "indexed": false,
          "internalType": "address",
          "name": "owner",
          "type": "address"
        },
        {
          "indexed": false,
          "internalType": "bytes32",
          "name": "id",
          "type": "bytes32"
        }
      ],
      "name": "EntityRegistered",
      "type": "event"
    },
    {
      "anonymous": false,
      "inputs": [
        {
          "indexed": false,
          "internalType": "uint8",
          "name": "version",
          "type": "uint8"
        }
      ],
      "name": "Initialized",
      "type": "event"
    },
    {
      "anonymous": false,
      "inputs": [
        {
          "indexed": true,
          "internalType": "address",
          "name": "previousOwner",
          "type": "address"
        },
        {
          "indexed": true,
          "internalType": "address",
          "name": "newOwner",
          "type": "address"
        }
      ],
      "name": "OwnershipTransferred",
      "type": "event"
    },
    {
      "anonymous": false,
      "inputs": [
        {
          "indexed": false,
          "internalType": "address",
          "name": "account",
          "type": "address"
        }
      ],
      "name": "Paused",
      "type": "event"
    },
    {
      "anonymous": false,
      "inputs": [
        {
          "indexed": false,
          "internalType": "address",
          "name": "oldAddress",
          "type": "address"
        },
        {
          "indexed": false,
          "internalType": "address",
          "name": "newAddress",
          "type": "address"
        }
      ],
      "name": "SetConfig",
      "type": "event"
    },
    {
      "anonymous": false,
      "inputs": [
        {
          "indexed": false,
          "internalType": "bytes32",
          "name": "id",
          "type": "bytes32"
        },
        {
          "indexed": false,
          "internalType": "address",
          "name": "sender",
          "type": "address"
        },
        {
          "indexed": false,
          "internalType": "address",
          "name": "oldSigner",
          "type": "address"
        },
        {
          "indexed": false,
          "internalType": "address",
          "name": "newSigner",
          "type": "address"
        }
      ],
      "name": "SignerChanged",
      "type": "event"
    },
    {
      "anonymous": false,
      "inputs": [
        {
          "indexed": false,
          "internalType": "bytes32",
          "name": "id",
          "type": "bytes32"
        },
        {
          "indexed": false,
          "internalType": "address",
          "name": "sender",
          "type": "address"
        },
        {
          "indexed": false,
          "internalType": "bool",
          "name": "enabled",
          "type": "bool"
        }
      ],
      "name": "ToggleEnabled",
      "type": "event"
    },
    {
      "anonymous": false,
      "inputs": [
        {
          "indexed": false,
          "internalType": "address",
          "name": "account",
          "type": "address"
        }
      ],
      "name": "Unpaused",
      "type": "event"
    },
    {
      "anonymous": false,
      "inputs": [
        {
          "indexed": false,
          "internalType": "bytes32",
          "name": "id",
          "type": "bytes32"
        },
        {
          "indexed": false,
          "internalType": "address",
          "name": "sender",
          "type": "address"
        },
        {
          "indexed": false,
          "internalType": "uint256",
          "name": "value",
          "type": "uint256"
        }
      ],
      "name": "Withdraw",
      "type": "event"
    },
    {
      "inputs": [
        {
          "internalType": "bytes32",
          "name": "_id",
          "type": "bytes32"
        },
        {
          "internalType": "uint256",
          "name": "_value",
          "type": "uint256"
        }
      ],
      "name": "addDeposit",
      "outputs": [],
      "stateMutability": "nonpayable",
      "type": "function"
    },
    {
      "inputs": [
        {
          "internalType": "bytes32",
          "name": "_id",
          "type": "bytes32"
        },
        {
          "internalType": "uint256",
          "name": "_value",
          "type": "uint256"
        },
        {
          "internalType": "uint256",
          "name": "_deadline",
          "type": "uint256"
        },
        {
          "internalType": "bytes",
          "name": "sign",
          "type": "bytes"
        }
      ],
      "name": "addDeposit",
      "outputs": [],
      "stateMutability": "nonpayable",
      "type": "function"
    },
    {
      "inputs": [
        {
          "internalType": "bytes32",
          "name": "_id",
          "type": "bytes32"
        }
      ],
      "name": "balanceOfEntity",
      "outputs": [
        {
          "internalType": "uint256",
          "name": "",
          "type": "uint256"
        }
      ],
      "stateMutability": "view",
      "type": "function"
    },
    {
      "inputs": [
        {
          "internalType": "bytes32",
          "name": "_id",
          "type": "bytes32"
        },
        {
          "internalType": "address",
          "name": "_signer",
          "type": "address"
        }
      ],
      "name": "changeSigner",
      "outputs": [],
      "stateMutability": "nonpayable",
      "type": "function"
    },
    {
      "inputs": [],
      "name": "config",
      "outputs": [
        {
          "internalType": "address",
          "name": "",
          "type": "address"
        }
      ],
      "stateMutability": "view",
      "type": "function"
    },
    {
      "inputs": [
        {
          "internalType": "bytes32",
          "name": "_id",
          "type": "bytes32"
        }
      ],
      "name": "getEntity",
      "outputs": [
        {
          "components": [
            {
              "internalType": "bytes32",
              "name": "kind",
              "type": "bytes32"
            },
            {
              "internalType": "bytes32",
              "name": "id",
              "type": "bytes32"
            },
            {
              "internalType": "address",
              "name": "owner",
              "type": "address"
            },
            {
              "internalType": "bool",
              "name": "enabled",
              "type": "bool"
            },
            {
              "internalType": "address",
              "name": "signer",
              "type": "address"
            }
          ],
          "internalType": "struct IEntitiesRegistry.Entity",
          "name": "",
          "type": "tuple"
        }
      ],
      "stateMutability": "view",
      "type": "function"
    },
    {
      "inputs": [
        {
          "internalType": "address",
          "name": "_owner",
          "type": "address"
        },
        {
          "internalType": "address",
          "name": "_config",
          "type": "address"
        }
      ],
      "name": "initialize",
      "outputs": [],
      "stateMutability": "nonpayable",
      "type": "function"
    },
    {
      "inputs": [
        {
          "internalType": "bytes32",
          "name": "_id",
          "type": "bytes32"
        }
      ],
      "name": "isEntityEnabled",
      "outputs": [
        {
          "internalType": "bool",
          "name": "",
          "type": "bool"
        }
      ],
      "stateMutability": "view",
      "type": "function"
    },
    {
      "inputs": [],
      "name": "owner",
      "outputs": [
        {
          "internalType": "address",
          "name": "",
          "type": "address"
        }
      ],
      "stateMutability": "view",
      "type": "function"
    },
    {
      "inputs": [],
      "name": "pause",
      "outputs": [],
      "stateMutability": "nonpayable",
      "type": "function"
    },
    {
      "inputs": [],
      "name": "paused",
      "outputs": [
        {
          "internalType": "bool",
          "name": "",
          "type": "bool"
        }
      ],
      "stateMutability": "view",
      "type": "function"
    },
    {
      "inputs": [
        {
          "internalType": "bytes32",
          "name": "_kind",
          "type": "bytes32"
        },
        {
          "internalType": "bytes32",
          "name": "_salt",
          "type": "bytes32"
        },
        {
          "internalType": "address",
          "name": "_signer",
          "type": "address"
        }
      ],
      "name": "register",
      "outputs": [],
      "stateMutability": "nonpayable",
      "type": "function"
    },
    {
      "inputs": [],
      "name": "renounceOwnership",
      "outputs": [],
      "stateMutability": "nonpayable",
      "type": "function"
    },
    {
      "inputs": [
        {
          "internalType": "address",
          "name": "_config",
          "type": "address"
        }
      ],
      "name": "setConfig",
      "outputs": [],
      "stateMutability": "nonpayable",
      "type": "function"
    },
    {
      "inputs": [
        {
          "internalType": "bytes32",
          "name": "_id",
          "type": "bytes32"
        }
      ],
      "name": "toggleEntity",
      "outputs": [],
      "stateMutability": "nonpayable",
      "type": "function"
    },
    {
      "inputs": [
        {
          "internalType": "address",
          "name": "newOwner",
          "type": "address"
        }
      ],
      "name": "transferOwnership",
      "outputs": [],
      "stateMutability": "nonpayable",
      "type": "function"
    },
    {
      "inputs": [],
      "name": "unpause",
      "outputs": [],
      "stateMutability": "nonpayable",
      "type": "function"
    },
    {
      "inputs": [
        {
          "internalType": "bytes32",
          "name": "_id",
          "type": "bytes32"
        },
        {
          "internalType": "uint256",
          "name": "_value",
          "type": "uint256"
        }
      ],
      "name": "withdrawDeposit",
      "outputs": [],
      "stateMutability": "nonpayable",
      "type": "function"
    }
  ],
  "transactionHash": "0xebee20b7f79a1bd1077af04dfbea9b4b89d5a7a2bc1b57bd1d0c52c658a1f810",
  "args": [],
  "numDeployments": 1,
  "solcInputHash": "8d0b6126b03e4a7dfd9b020d5703a4a0",
  "bytecode": "0x608060405234801561001057600080fd5b50611667806100206000396000f3fe608060405234801561001057600080fd5b50600436106101165760003560e01c806370528312116100a25780638da5cb5b116100715780638da5cb5b14610260578063a241f54d14610271578063d42190c414610284578063ee8a116814610297578063f2fde38b146102b857600080fd5b80637052831214610212578063715018a61461022557806379502c551461022d5780638456cb591461025857600080fd5b8063485cc955116100e9578063485cc9551461015e57806353b66f36146101715780635c975abb146101d55780635cd2256a146101ec5780636e700a7f146101ff57600080fd5b806315d7bf441461011b57806320e3dbd414610130578063254352da146101435780633f4ba83a14610156575b600080fd5b61012e610129366004611378565b6102cb565b005b61012e61013e3660046113b1565b6104b4565b61012e6101513660046113d5565b610525565b61012e610754565b61012e61016c3660046113f7565b610766565b61018461017f366004611430565b6108a2565b604080518251815260208084015190820152828201516001600160a01b03908116928201929092526060808401511515908201526080928301519091169181019190915260a0015b60405180910390f35b60335460ff165b60405190151581526020016101cc565b61012e6101fa366004611430565b61096d565b61012e61020d3660046113d5565b610a65565b61012e610220366004611449565b610acb565b61012e610bc3565b609754610240906001600160a01b031681565b6040516001600160a01b0390911681526020016101cc565b61012e610bd5565b6065546001600160a01b0316610240565b6101dc61027f366004611430565b610be5565b61012e610292366004611484565b610c5e565b6102aa6102a5366004611430565b610cb6565b6040519081526020016101cc565b61012e6102c63660046113b1565b610d07565b6102d3610d80565b6097546040516373ba10af60e01b8152600481018590526001600160a01b03909116906373ba10af90602401602060405180830381865afa15801561031c573d6000803e3d6000fd5b505050506040513d601f19601f820116820180604052508101906103409190611552565b600003610360576040516302b79ed360e41b815260040160405180910390fd5b6000336040516bffffffffffffffffffffffff19606083901b16602082015260348101859052909150600090605401604051602081830303815290604052805190602001209050806098600083815260200190815260200160002060010154036103dd57604051637021226b60e01b815260040160405180910390fd5b6040805160a08101825286815260208082018481526001600160a01b038681168486018181526000606087018181528b8516608089019081528a835260988852918990209751885594516001880155905160028701805495519185166001600160a81b031990961695909517600160a01b91151591909102179093559151600390940180546001600160a01b0319169490911693909317909255825191825281018390527f18c9d97edfcf27865aca8a4f478a1b4429b4c82fb5ded476e9f317f74573d01b91015b60405180910390a15050505050565b6104bc610dc6565b609754604080516001600160a01b03928316815291831660208301527fbd7986d31c086d8cc2901a1c41d1edc0af6e8a7a5c6fc1b8283919c1b2122c38910160405180910390a1609780546001600160a01b0319166001600160a01b0392909216919091179055565b600082815260986020526040902060028101548391906001600160a01b03166105615760405163102f403f60e31b815260040160405180910390fd5b60008481526098602052604090206002015484906001600160a01b0316331461059d5760405163fef2862960e01b815260040160405180910390fd5b6105a5610d80565b6000858152609960205260409020548411156105d457604051632923ca2760e01b815260040160405180910390fd5b6097546040516321f8a72160e01b815264185cdcd95d60da1b60048201526001600160a01b03909116906321f8a72190602401602060405180830381865afa158015610624573d6000803e3d6000fd5b505050506040513d601f19601f82011682018060405250810190610648919061156b565b6001600160a01b031663a9059cbb336040516001600160e01b031960e084901b1681526001600160a01b039091166004820152602481018790526044016020604051808303816000875af11580156106a4573d6000803e3d6000fd5b505050506040513d601f19601f820116820180604052508101906106c89190611588565b6106e557604051634a7c573160e11b815260040160405180910390fd5b6000858152609960205260409020546106fe9085610e20565b6000868152609960205260409020557fe7284ffe0c70ad2f3b0aa15cde1cfe95f736935651a138725b21fd168edc5d6a8533604080519283526001600160a01b03909116602083015281018690526060016104a5565b61075c610dc6565b610764610e35565b565b600054610100900460ff16158080156107865750600054600160ff909116105b806107a05750303b1580156107a0575060005460ff166001145b6108085760405162461bcd60e51b815260206004820152602e60248201527f496e697469616c697a61626c653a20636f6e747261637420697320616c72656160448201526d191e481a5b9a5d1a585b1a5e995960921b60648201526084015b60405180910390fd5b6000805460ff19166001179055801561082b576000805461ff0019166101001790555b61083483610e87565b61083c610ed9565b609780546001600160a01b0319166001600160a01b038416179055801561089d576000805461ff0019169055604051600181527f7f26b83ff96e1f2b6a682f133852f6798a09c465da95921460cefb38474024989060200160405180910390a15b505050565b6040805160a081018252600080825260208201819052918101829052606081018290526080810191909152600082815260986020526040902060028101548391906001600160a01b03166109095760405163102f403f60e31b815260040160405180910390fd5b505050600090815260986020908152604091829020825160a0810184528154815260018201549281019290925260028101546001600160a01b0380821694840194909452600160a01b900460ff161515606083015260030154909116608082015290565b600081815260986020526040902060028101548291906001600160a01b03166109a95760405163102f403f60e31b815260040160405180910390fd5b60008381526098602052604090206002015483906001600160a01b031633146109e55760405163fef2862960e01b815260040160405180910390fd5b6109ed610d80565b6000848152609860205260409020600201805460ff60a01b198116600160a01b9182900460ff1615918202179091557f5da14598ca13cc7fc9c5011c46e87f0b8256b30e053584c1f5cdb5bfb937815e8533604080519283526001600160a01b039091166020830152831515908201526060016104a5565b600082815260986020526040902060028101548391906001600160a01b0316610aa15760405163102f403f60e31b815260040160405180910390fd5b610aa9610d80565b610ac58484600060405180602001604052806000815250610f08565b50505050565b60008281526098602052604090206002015482906001600160a01b03163314610b075760405163fef2862960e01b815260040160405180910390fd5b610b0f610d80565b6001600160a01b038216610b3657604051632057875960e21b815260040160405180910390fd5b600083815260986020526040902060030180546001600160a01b038481166001600160a01b0319831617909255167f839b4e07b209133cbcd83de21d88f6ecfcf0572d98fdef635960862dda92ff6e84610b8d3390565b604080519283526001600160a01b039182166020840152818516908301528516606082015260800160405180910390a150505050565b610bcb610dc6565b6107646000610e87565b610bdd610dc6565b61076461123d565b600081815260986020526040812060028101548391906001600160a01b0316610c215760405163102f403f60e31b815260040160405180910390fd5b600084815260986020526040902060020154600160a01b900460ff168015610c56575060008481526099602052604090205415155b949350505050565b600084815260986020526040902060028101548591906001600160a01b0316610c9a5760405163102f403f60e31b815260040160405180910390fd5b610ca2610d80565b610cae86868686610f08565b505050505050565b600081815260986020526040812060028101548391906001600160a01b0316610cf25760405163102f403f60e31b815260040160405180910390fd5b50505060009081526099602052604090205490565b610d0f610dc6565b6001600160a01b038116610d745760405162461bcd60e51b815260206004820152602660248201527f4f776e61626c653a206e6577206f776e657220697320746865207a65726f206160448201526564647265737360d01b60648201526084016107ff565b610d7d81610e87565b50565b60335460ff16156107645760405162461bcd60e51b815260206004820152601060248201526f14185d5cd8589b194e881c185d5cd95960821b60448201526064016107ff565b6065546001600160a01b031633146107645760405162461bcd60e51b815260206004820181905260248201527f4f776e61626c653a2063616c6c6572206973206e6f7420746865206f776e657260448201526064016107ff565b6000610e2c82846115c0565b90505b92915050565b610e3d61127a565b6033805460ff191690557f5db9ee0a495bf2e6ff9c91a7834c1ba4fdd244a5e8aa4e537bd38aeae4b073aa335b6040516001600160a01b03909116815260200160405180910390a1565b606580546001600160a01b038381166001600160a01b0319831681179093556040519116919082907f8be0079c531659141344cd1fd0a4f28419497f9722a3daafe3b4186f6b6457e090600090a35050565b600054610100900460ff16610f005760405162461bcd60e51b81526004016107ff906115d3565b6107646112c3565b60008481526098602052604090206002015484906001600160a01b03163314610f445760405163fef2862960e01b815260040160405180910390fd5b609754600086815260986020526040908190205490516373ba10af60e01b81526001600160a01b03909216916373ba10af91610f869160040190815260200190565b602060405180830381865afa158015610fa3573d6000803e3d6000fd5b505050506040513d601f19601f82011682018060405250810190610fc79190611552565b600086815260996020526040902054610fe090866112f6565b1015610fff57604051636ba4a1c760e01b815260040160405180910390fd5b6000336097546040516321f8a72160e01b815264185cdcd95d60da1b60048201529192506000916001600160a01b03909116906321f8a72190602401602060405180830381865afa158015611058573d6000803e3d6000fd5b505050506040513d601f19601f8201168201806040525081019061107c919061156b565b84519091501561112757600080600061109487611302565b60405163d505accf60e01b81526001600160a01b038981166004830152306024830152604482018e9052606482018d905260ff8516608483015260a4820184905260c4820183905293965091945092509085169063d505accf9060e401600060405180830381600087803b15801561110b57600080fd5b505af115801561111f573d6000803e3d6000fd5b505050505050505b6040516323b872dd60e01b81526001600160a01b038381166004830152306024830152604482018890528216906323b872dd906064016020604051808303816000875af115801561117c573d6000803e3d6000fd5b505050506040513d601f19601f820116820180604052508101906111a09190611588565b6111bd57604051634a7c573160e11b815260040160405180910390fd5b6000878152609960205260409020546111d690876112f6565b6000888152609960209081526040918290209290925580518981526001600160a01b0385169281019290925281018790527f182fa52899142d44ff5c45a6354d3b3e868d5b07db6a65580b39bd321bdaf8ac9060600160405180910390a150505050505050565b611245610d80565b6033805460ff191660011790557f62e78cea01bee320cd4e420270b5ea74000d11b0c9f74754ebdbfc544b05a258610e6a3390565b60335460ff166107645760405162461bcd60e51b815260206004820152601460248201527314185d5cd8589b194e881b9bdd081c185d5cd95960621b60448201526064016107ff565b600054610100900460ff166112ea5760405162461bcd60e51b81526004016107ff906115d3565b6033805460ff19169055565b6000610e2c828461161e565b600080600083516041036113435750505060208101516040820151606083015160001a91908261133157601b92505b6001830361133e57601c92505b61135c565b604051638baa579f60e01b815260040160405180910390fd5b9193909250565b6001600160a01b0381168114610d7d57600080fd5b60008060006060848603121561138d57600080fd5b833592506020840135915060408401356113a681611363565b809150509250925092565b6000602082840312156113c357600080fd5b81356113ce81611363565b9392505050565b600080604083850312156113e857600080fd5b50508035926020909101359150565b6000806040838503121561140a57600080fd5b823561141581611363565b9150602083013561142581611363565b809150509250929050565b60006020828403121561144257600080fd5b5035919050565b6000806040838503121561145c57600080fd5b82359150602083013561142581611363565b634e487b7160e01b600052604160045260246000fd5b6000806000806080858703121561149a57600080fd5b843593506020850135925060408501359150606085013567ffffffffffffffff808211156114c757600080fd5b818701915087601f8301126114db57600080fd5b8135818111156114ed576114ed61146e565b604051601f8201601f19908116603f011681019083821181831017156115155761151561146e565b816040528281528a602084870101111561152e57600080fd5b82602086016020830137600060208483010152809550505050505092959194509250565b60006020828403121561156457600080fd5b5051919050565b60006020828403121561157d57600080fd5b81516113ce81611363565b60006020828403121561159a57600080fd5b815180151581146113ce57600080fd5b634e487b7160e01b600052601160045260246000fd5b81810381811115610e2f57610e2f6115aa565b6020808252602b908201527f496e697469616c697a61626c653a20636f6e7472616374206973206e6f74206960408201526a6e697469616c697a696e6760a81b606082015260800190565b80820180821115610e2f57610e2f6115aa56fea26469706673582212203a601144e1bf228dcbda5d1b8b34aa3011e057c94f4afd103456ac87291bbf9264736f6c63430008130033",
  "devdoc": {
    "details": "A smart contract for registering and managing entities who can participate in the protocol.",
    "errors": {
      "DepositNotEnough()": [
        {
          "details": "Throws when the deposit withdrawal is not possible due to slack of funds"
        }
      ],
      "DepositTooSmall()": [
        {
          "details": "Throws when the deposit value is less than the `minDeposit`"
        }
      ],
      "DepositTransferFailed()": [
        {
          "details": "Throws when the deposit funds transfer is failed"
        }
      ],
      "EntityExists()": [
        {
          "details": "Throws when sender attempts to register already existed entity"
        }
      ],
      "EntityNotFound()": [
        {
          "details": "Throws when entity not found in the registry"
        }
      ],
      "InvalidConfig()": [
        {
          "details": "Throws when sender attempts to provide invalid configuration"
        }
      ],
      "InvalidKind()": [
        {
          "details": "Throws when sender attempts refer to non-registered entity type"
        }
      ],
      "InvalidSigner()": [
        {
          "details": "Throws when sender attempts send invalid signer address"
        }
      ],
      "NotEntityOwner()": [
        {
          "details": "Throws when sender not an owner of the entity"
        }
      ]
    },
    "events": {
      "Deposit(bytes32,address,uint256)": {
        "details": "Emitted when a entity makes a deposit"
      },
      "EntityRegistered(address,bytes32)": {
        "details": "Emitted when a Entity is registered"
      },
      "Initialized(uint8)": {
        "details": "Triggered when the contract has been initialized or reinitialized."
      },
      "Paused(address)": {
        "details": "Emitted when the pause is triggered by `account`."
      },
      "SetConfig(address,address)": {
        "details": "Emitted when updated an address of the protocol config contract"
      },
      "SignerChanged(bytes32,address,address,address)": {
        "details": "Emitted when the entity's signer is changed"
      },
      "ToggleEnabled(bytes32,address,bool)": {
        "details": "Emitted when a entity's enabled status is toggled"
      },
      "Unpaused(address)": {
        "details": "Emitted when the pause is lifted by `account`."
      },
      "Withdraw(bytes32,address,uint256)": {
        "details": "Emitted when a entity withdraws a deposit"
      }
    },
    "kind": "dev",
    "methods": {
      "addDeposit(bytes32,uint256)": {
        "details": "See {EntitiesRegistry._addDeposit}."
      },
      "addDeposit(bytes32,uint256,uint256,bytes)": {
        "details": "Makes deposit of `asset` tokens with permit",
        "params": {
          "_deadline": "Deadline time of permit",
          "_id": "The entity Id",
          "_sign": "Permit signature (EIP712) If `_sign` argument is provided the function will use the `permit` function to transfer tokens from the sender to the contract, overwise the usual `transferFrom` will be used. If the tokens transfer is succeeded: - the function emits `Deposit(bytes32 id, address sender, uint256 value)` event Requirements: - can be called by the entity owner only",
          "_value": "Amount of `asset` tokens that must be deposited"
        }
      },
      "balanceOfEntity(bytes32)": {
        "details": "Returns the value of the entity's deposit",
        "params": {
          "_id": "The entity Id"
        }
      },
      "changeSigner(bytes32,address)": {
        "details": "Changes signer account of the entity",
        "params": {
          "_id": "The entity Id",
          "_signer": "Account authorized by the entity to sign offers If changing of the signer is succeeded: - the function emits `SignerChanged(bytes32 id, address sender, address oldSigner, address new Signer)` event Requirements: - can be called by the entity owner only"
        }
      },
      "getEntity(bytes32)": {
        "details": "Returns entity by Id",
        "params": {
          "_id": "The entity Id"
        }
      },
      "initialize(address,address)": {
        "details": "EntitiesRegistry initializer",
        "params": {
          "_config": "The protocol config contract address"
        }
      },
      "isEntityEnabled(bytes32)": {
        "details": "Returns the value of `enabled` entity status",
        "params": {
          "_id": "The entity Id"
        }
      },
      "owner()": {
        "details": "Returns the address of the current owner."
      },
      "pause()": {
        "details": "Pauses the contract"
      },
      "paused()": {
        "details": "Returns true if the contract is paused, and false otherwise."
      },
      "register(bytes32,bytes32,address)": {
        "details": "Registers a new entity",
        "params": {
          "_kind": "Type of entity",
          "_salt": "Unique bytes32 string that allows off-chain calculation of the entity Id",
          "_signer": "Account address that authorized by the entity owner to sign offers If registering of the entity is succeeded: - the function emits `EntityRegistered(bytes32 id, bytes32 id)` event Requirements: - `salt` can be used only once. If a `salt` has been used and the entity is registered   the next attempt will results in the error `EntityExists()` - an entity type provided with `_kind` must be registered NOTE: When the entity is registered its initial `enabled` status is set to `false`. This means that to start accepting deals the entity must be enabled"
        }
      },
      "renounceOwnership()": {
        "details": "Leaves the contract without owner. It will not be possible to call `onlyOwner` functions anymore. Can only be called by the current owner. NOTE: Renouncing ownership will leave the contract without an owner, thereby removing any functionality that is only available to the owner."
      },
      "setConfig(address)": {
        "details": "Sets the new address of the protocol config contract address"
      },
      "toggleEntity(bytes32)": {
        "details": "Toggles an enabled status of the entity",
        "params": {
          "_id": "The entity Id This function inverts a value of the `enabled` parameter of the entity If toggling is succeeded: - the function emits `ToggleEnabled(bytes32 id, address sender, bool enabled)` event Requirements: - can be called by the entity owner only"
        }
      },
      "transferOwnership(address)": {
        "details": "Transfers ownership of the contract to a new account (`newOwner`). Can only be called by the current owner."
      },
      "unpause()": {
        "details": "Unpauses the contract"
      },
      "withdrawDeposit(bytes32,uint256)": {
        "details": "Makes deposit withdrawal of the entity",
        "params": {
          "_id": "The entity Id",
          "_value": "Amount of `asset` tokens that must be withdrawn If the tokens withdrawal is succeeded: - the function emits `Withdraw(bytes32 id, address sender, uint256 value)` event Requirements: - can be called by the entity owner only"
        }
      }
    },
    "stateVariables": {
      "config": {
        "details": "The protocol config contract address"
      },
      "deposits": {
        "details": "Mapping of a entity Id to deposit"
      },
      "entities": {
        "details": "Mapping of a entity Id to Entity storage"
      }
    },
    "title": "EntitiesRegistry",
    "version": 1
  },
  "userdoc": {
    "kind": "user",
    "methods": {},
    "version": 1
  },
  "storageLayout": {
    "storage": [
      {
        "astId": 152,
        "contract": "contracts/EntitiesRegistry.sol:EntitiesRegistry",
        "label": "_initialized",
        "offset": 0,
        "slot": "0",
        "type": "t_uint8"
      },
      {
        "astId": 155,
        "contract": "contracts/EntitiesRegistry.sol:EntitiesRegistry",
        "label": "_initializing",
        "offset": 1,
        "slot": "0",
        "type": "t_bool"
      },
      {
        "astId": 3290,
        "contract": "contracts/EntitiesRegistry.sol:EntitiesRegistry",
        "label": "__gap",
        "offset": 0,
        "slot": "1",
        "type": "t_array(t_uint256)50_storage"
      },
      {
        "astId": 335,
        "contract": "contracts/EntitiesRegistry.sol:EntitiesRegistry",
        "label": "_paused",
        "offset": 0,
        "slot": "51",
        "type": "t_bool"
      },
      {
        "astId": 440,
        "contract": "contracts/EntitiesRegistry.sol:EntitiesRegistry",
        "label": "__gap",
        "offset": 0,
        "slot": "52",
        "type": "t_array(t_uint256)49_storage"
      },
      {
        "astId": 10,
        "contract": "contracts/EntitiesRegistry.sol:EntitiesRegistry",
        "label": "_owner",
        "offset": 0,
        "slot": "101",
        "type": "t_address"
      },
      {
        "astId": 130,
        "contract": "contracts/EntitiesRegistry.sol:EntitiesRegistry",
        "label": "__gap",
        "offset": 0,
        "slot": "102",
        "type": "t_array(t_uint256)49_storage"
      },
      {
        "astId": 8127,
        "contract": "contracts/EntitiesRegistry.sol:EntitiesRegistry",
        "label": "config",
        "offset": 0,
        "slot": "151",
        "type": "t_address"
      },
      {
        "astId": 8133,
        "contract": "contracts/EntitiesRegistry.sol:EntitiesRegistry",
        "label": "entities",
        "offset": 0,
        "slot": "152",
        "type": "t_mapping(t_bytes32,t_struct(Entity)9182_storage)"
      },
      {
        "astId": 8138,
        "contract": "contracts/EntitiesRegistry.sol:EntitiesRegistry",
        "label": "deposits",
        "offset": 0,
        "slot": "153",
        "type": "t_mapping(t_bytes32,t_uint256)"
      },
      {
        "astId": 8762,
        "contract": "contracts/EntitiesRegistry.sol:EntitiesRegistry",
        "label": "__gap",
        "offset": 0,
        "slot": "154",
        "type": "t_array(t_uint256)50_storage"
      }
    ],
    "types": {
      "t_address": {
        "encoding": "inplace",
        "label": "address",
        "numberOfBytes": "20"
      },
      "t_array(t_uint256)49_storage": {
        "base": "t_uint256",
        "encoding": "inplace",
        "label": "uint256[49]",
        "numberOfBytes": "1568"
      },
      "t_array(t_uint256)50_storage": {
        "base": "t_uint256",
        "encoding": "inplace",
        "label": "uint256[50]",
        "numberOfBytes": "1600"
      },
      "t_bool": {
        "encoding": "inplace",
        "label": "bool",
        "numberOfBytes": "1"
      },
      "t_bytes32": {
        "encoding": "inplace",
        "label": "bytes32",
        "numberOfBytes": "32"
      },
      "t_mapping(t_bytes32,t_struct(Entity)9182_storage)": {
        "encoding": "mapping",
        "key": "t_bytes32",
        "label": "mapping(bytes32 => struct IEntitiesRegistry.Entity)",
        "numberOfBytes": "32",
        "value": "t_struct(Entity)9182_storage"
      },
      "t_mapping(t_bytes32,t_uint256)": {
        "encoding": "mapping",
        "key": "t_bytes32",
        "label": "mapping(bytes32 => uint256)",
        "numberOfBytes": "32",
        "value": "t_uint256"
      },
      "t_struct(Entity)9182_storage": {
        "encoding": "inplace",
        "label": "struct IEntitiesRegistry.Entity",
        "members": [
          {
            "astId": 9173,
            "contract": "contracts/EntitiesRegistry.sol:EntitiesRegistry",
            "label": "kind",
            "offset": 0,
            "slot": "0",
            "type": "t_bytes32"
          },
          {
            "astId": 9175,
            "contract": "contracts/EntitiesRegistry.sol:EntitiesRegistry",
            "label": "id",
            "offset": 0,
            "slot": "1",
            "type": "t_bytes32"
          },
          {
            "astId": 9177,
            "contract": "contracts/EntitiesRegistry.sol:EntitiesRegistry",
            "label": "owner",
            "offset": 0,
            "slot": "2",
            "type": "t_address"
          },
          {
            "astId": 9179,
            "contract": "contracts/EntitiesRegistry.sol:EntitiesRegistry",
            "label": "enabled",
            "offset": 20,
            "slot": "2",
            "type": "t_bool"
          },
          {
            "astId": 9181,
            "contract": "contracts/EntitiesRegistry.sol:EntitiesRegistry",
            "label": "signer",
            "offset": 0,
            "slot": "3",
            "type": "t_address"
          }
        ],
        "numberOfBytes": "128"
      },
      "t_uint256": {
        "encoding": "inplace",
        "label": "uint256",
        "numberOfBytes": "32"
      },
      "t_uint8": {
        "encoding": "inplace",
        "label": "uint8",
        "numberOfBytes": "1"
      }
    }
  }
}