{
  "address": "0x9Fb6d3Fa4fd3e407CebDBA609Bca28209Da242d0",
  "abi": [
    {
      "inputs": [],
      "stateMutability": "nonpayable",
      "type": "constructor"
    },
    {
      "inputs": [],
      "name": "DealAlreadyCreated",
      "type": "error"
    },
    {
      "inputs": [],
      "name": "DealExists",
      "type": "error"
    },
    {
      "inputs": [],
      "name": "DealFundsTransferFailed",
      "type": "error"
    },
    {
      "inputs": [],
      "name": "DealNotFound",
      "type": "error"
    },
    {
      "inputs": [],
      "name": "DisabledRetailer",
      "type": "error"
    },
    {
      "inputs": [],
      "name": "DisabledSupplier",
      "type": "error"
    },
    {
      "inputs": [],
      "name": "InvalidCancelOptions",
      "type": "error"
    },
    {
      "inputs": [],
      "name": "InvalidOfferSignature",
      "type": "error"
    },
    {
      "inputs": [],
      "name": "InvalidPaymentId",
      "type": "error"
    },
    {
      "inputs": [],
      "name": "InvalidPaymentOptions",
      "type": "error"
    },
    {
      "inputs": [],
      "name": "InvalidPercent",
      "type": "error"
    },
    {
      "inputs": [],
      "name": "InvalidRetailer",
      "type": "error"
    },
    {
      "inputs": [],
      "name": "InvalidSignature",
      "type": "error"
    },
    {
      "inputs": [],
      "name": "NotAllowedAuth",
      "type": "error"
    },
    {
      "inputs": [],
      "name": "NotAllowedStatus",
      "type": "error"
    },
    {
      "inputs": [],
      "name": "NotAllowedTime",
      "type": "error"
    },
    {
      "inputs": [],
      "name": "TokenTransferNotAllowed",
      "type": "error"
    },
    {
      "anonymous": false,
      "inputs": [
        {
          "indexed": true,
          "internalType": "address",
          "name": "owner",
          "type": "address"
        },
        {
          "indexed": true,
          "internalType": "address",
          "name": "approved",
          "type": "address"
        },
        {
          "indexed": true,
          "internalType": "uint256",
          "name": "tokenId",
          "type": "uint256"
        }
      ],
      "name": "Approval",
      "type": "event"
    },
    {
      "anonymous": false,
      "inputs": [
        {
          "indexed": true,
          "internalType": "address",
          "name": "owner",
          "type": "address"
        },
        {
          "indexed": true,
          "internalType": "address",
          "name": "operator",
          "type": "address"
        },
        {
          "indexed": false,
          "internalType": "bool",
          "name": "approved",
          "type": "bool"
        }
      ],
      "name": "ApprovalForAll",
      "type": "event"
    },
    {
      "anonymous": false,
      "inputs": [
        {
          "indexed": false,
          "internalType": "uint8",
          "name": "version",
          "type": "uint8"
        }
      ],
      "name": "Initialized",
      "type": "event"
    },
    {
      "anonymous": false,
      "inputs": [
        {
          "indexed": true,
          "internalType": "address",
          "name": "previousOwner",
          "type": "address"
        },
        {
          "indexed": true,
          "internalType": "address",
          "name": "newOwner",
          "type": "address"
        }
      ],
      "name": "OwnershipTransferred",
      "type": "event"
    },
    {
      "anonymous": false,
      "inputs": [
        {
          "indexed": false,
          "internalType": "address",
          "name": "account",
          "type": "address"
        }
      ],
      "name": "Paused",
      "type": "event"
    },
    {
      "anonymous": false,
      "inputs": [
        {
          "indexed": false,
          "internalType": "address",
          "name": "oldAddress",
          "type": "address"
        },
        {
          "indexed": false,
          "internalType": "address",
          "name": "newAddress",
          "type": "address"
        }
      ],
      "name": "SetConfig",
      "type": "event"
    },
    {
      "anonymous": false,
      "inputs": [
        {
          "indexed": false,
          "internalType": "address",
          "name": "oldAddress",
          "type": "address"
        },
        {
          "indexed": false,
          "internalType": "address",
          "name": "newAddress",
          "type": "address"
        }
      ],
      "name": "SetEntities",
      "type": "event"
    },
    {
      "anonymous": false,
      "inputs": [
        {
          "indexed": false,
          "internalType": "bytes32",
          "name": "offerId",
          "type": "bytes32"
        },
        {
          "indexed": false,
          "internalType": "enum Utils.DealStatus",
          "name": "status",
          "type": "uint8"
        },
        {
          "indexed": false,
          "internalType": "address",
          "name": "sender",
          "type": "address"
        }
      ],
      "name": "Status",
      "type": "event"
    },
    {
      "anonymous": false,
      "inputs": [
        {
          "indexed": true,
          "internalType": "address",
          "name": "from",
          "type": "address"
        },
        {
          "indexed": true,
          "internalType": "address",
          "name": "to",
          "type": "address"
        },
        {
          "indexed": true,
          "internalType": "uint256",
          "name": "tokenId",
          "type": "uint256"
        }
      ],
      "name": "Transfer",
      "type": "event"
    },
    {
      "anonymous": false,
      "inputs": [
        {
          "indexed": false,
          "internalType": "address",
          "name": "account",
          "type": "address"
        }
      ],
      "name": "Unpaused",
      "type": "event"
    },
    {
      "inputs": [
        {
          "internalType": "address",
          "name": "to",
          "type": "address"
        },
        {
          "internalType": "uint256",
          "name": "tokenId",
          "type": "uint256"
        }
      ],
      "name": "approve",
      "outputs": [],
      "stateMutability": "nonpayable",
      "type": "function"
    },
    {
      "inputs": [
        {
          "internalType": "address",
          "name": "owner",
          "type": "address"
        }
      ],
      "name": "balanceOf",
      "outputs": [
        {
          "internalType": "uint256",
          "name": "",
          "type": "uint256"
        }
      ],
      "stateMutability": "view",
      "type": "function"
    },
    {
      "inputs": [
        {
          "internalType": "bytes32",
          "name": "offerId",
          "type": "bytes32"
        },
        {
          "components": [
            {
              "internalType": "uint256",
              "name": "time",
              "type": "uint256"
            },
            {
              "internalType": "uint256",
              "name": "penalty",
              "type": "uint256"
            }
          ],
          "internalType": "struct Utils.CancelOption[]",
          "name": "_cancelOptions",
          "type": "tuple[]"
        }
      ],
      "name": "cancel",
      "outputs": [],
      "stateMutability": "nonpayable",
      "type": "function"
    },
    {
      "inputs": [
        {
          "internalType": "bytes32",
          "name": "offerId",
          "type": "bytes32"
        },
        {
          "internalType": "bytes[]",
          "name": "signs",
          "type": "bytes[]"
        }
      ],
      "name": "checkIn",
      "outputs": [],
      "stateMutability": "nonpayable",
      "type": "function"
    },
    {
      "inputs": [
        {
          "internalType": "bytes32",
          "name": "offerId",
          "type": "bytes32"
        }
      ],
      "name": "checkOut",
      "outputs": [],
      "stateMutability": "nonpayable",
      "type": "function"
    },
    {
      "inputs": [
        {
          "internalType": "bytes32",
          "name": "offerId",
          "type": "bytes32"
        }
      ],
      "name": "claim",
      "outputs": [],
      "stateMutability": "nonpayable",
      "type": "function"
    },
    {
      "inputs": [],
      "name": "config",
      "outputs": [
        {
          "internalType": "address",
          "name": "",
          "type": "address"
        }
      ],
      "stateMutability": "view",
      "type": "function"
    },
    {
      "inputs": [
        {
          "components": [
            {
              "internalType": "bytes32",
              "name": "id",
              "type": "bytes32"
            },
            {
              "internalType": "uint256",
              "name": "expire",
              "type": "uint256"
            },
            {
              "internalType": "bytes32",
              "name": "supplierId",
              "type": "bytes32"
            },
            {
              "internalType": "uint256",
              "name": "chainId",
              "type": "uint256"
            },
            {
              "internalType": "bytes32",
              "name": "requestHash",
              "type": "bytes32"
            },
            {
              "internalType": "bytes32",
              "name": "optionsHash",
              "type": "bytes32"
            },
            {
              "internalType": "bytes32",
              "name": "paymentHash",
              "type": "bytes32"
            },
            {
              "internalType": "bytes32",
              "name": "cancelHash",
              "type": "bytes32"
            },
            {
              "internalType": "bool",
              "name": "transferable",
              "type": "bool"
            },
            {
              "internalType": "uint256",
              "name": "checkIn",
              "type": "uint256"
            },
            {
              "internalType": "uint256",
              "name": "checkOut",
              "type": "uint256"
            }
          ],
          "internalType": "struct Utils.Offer",
          "name": "offer",
          "type": "tuple"
        },
        {
          "components": [
            {
              "internalType": "bytes32",
              "name": "id",
              "type": "bytes32"
            },
            {
              "internalType": "uint256",
              "name": "price",
              "type": "uint256"
            },
            {
              "internalType": "address",
              "name": "asset",
              "type": "address"
            }
          ],
          "internalType": "struct Utils.PaymentOption[]",
          "name": "paymentOptions",
          "type": "tuple[]"
        },
        {
          "internalType": "bytes32",
          "name": "paymentId",
          "type": "bytes32"
        },
        {
          "internalType": "bytes32",
          "name": "retailerId",
          "type": "bytes32"
        },
        {
          "internalType": "bytes[]",
          "name": "signs",
          "type": "bytes[]"
        }
      ],
      "name": "deal",
      "outputs": [],
      "stateMutability": "nonpayable",
      "type": "function"
    },
    {
      "inputs": [
        {
          "internalType": "bytes32",
          "name": "",
          "type": "bytes32"
        }
      ],
      "name": "deals",
      "outputs": [
        {
          "internalType": "uint256",
          "name": "created",
          "type": "uint256"
        },
        {
          "components": [
            {
              "internalType": "bytes32",
              "name": "id",
              "type": "bytes32"
            },
            {
              "internalType": "uint256",
              "name": "expire",
              "type": "uint256"
            },
            {
              "internalType": "bytes32",
              "name": "supplierId",
              "type": "bytes32"
            },
            {
              "internalType": "uint256",
              "name": "chainId",
              "type": "uint256"
            },
            {
              "internalType": "bytes32",
              "name": "requestHash",
              "type": "bytes32"
            },
            {
              "internalType": "bytes32",
              "name": "optionsHash",
              "type": "bytes32"
            },
            {
              "internalType": "bytes32",
              "name": "paymentHash",
              "type": "bytes32"
            },
            {
              "internalType": "bytes32",
              "name": "cancelHash",
              "type": "bytes32"
            },
            {
              "internalType": "bool",
              "name": "transferable",
              "type": "bool"
            },
            {
              "internalType": "uint256",
              "name": "checkIn",
              "type": "uint256"
            },
            {
              "internalType": "uint256",
              "name": "checkOut",
              "type": "uint256"
            }
          ],
          "internalType": "struct Utils.Offer",
          "name": "offer",
          "type": "tuple"
        },
        {
          "internalType": "bytes32",
          "name": "retailerId",
          "type": "bytes32"
        },
        {
          "internalType": "address",
          "name": "buyer",
          "type": "address"
        },
        {
          "internalType": "uint256",
          "name": "price",
          "type": "uint256"
        },
        {
          "internalType": "address",
          "name": "asset",
          "type": "address"
        },
        {
          "internalType": "enum Utils.DealStatus",
          "name": "status",
          "type": "uint8"
        }
      ],
      "stateMutability": "view",
      "type": "function"
    },
    {
      "inputs": [],
      "name": "entities",
      "outputs": [
        {
          "internalType": "address",
          "name": "",
          "type": "address"
        }
      ],
      "stateMutability": "view",
      "type": "function"
    },
    {
      "inputs": [
        {
          "internalType": "uint256",
          "name": "tokenId",
          "type": "uint256"
        }
      ],
      "name": "getApproved",
      "outputs": [
        {
          "internalType": "address",
          "name": "",
          "type": "address"
        }
      ],
      "stateMutability": "view",
      "type": "function"
    },
    {
      "inputs": [
        {
          "internalType": "address",
          "name": "_owner",
          "type": "address"
        },
        {
          "internalType": "string",
          "name": "_name",
          "type": "string"
        },
        {
          "internalType": "string",
          "name": "_version",
          "type": "string"
        },
        {
          "internalType": "address",
          "name": "_config",
          "type": "address"
        },
        {
          "internalType": "address",
          "name": "_entities",
          "type": "address"
        }
      ],
      "name": "initialize",
      "outputs": [],
      "stateMutability": "nonpayable",
      "type": "function"
    },
    {
      "inputs": [
        {
          "internalType": "address",
          "name": "owner",
          "type": "address"
        },
        {
          "internalType": "address",
          "name": "operator",
          "type": "address"
        }
      ],
      "name": "isApprovedForAll",
      "outputs": [
        {
          "internalType": "bool",
          "name": "",
          "type": "bool"
        }
      ],
      "stateMutability": "view",
      "type": "function"
    },
    {
      "inputs": [],
      "name": "name",
      "outputs": [
        {
          "internalType": "string",
          "name": "",
          "type": "string"
        }
      ],
      "stateMutability": "view",
      "type": "function"
    },
    {
      "inputs": [
        {
          "internalType": "bytes32",
          "name": "",
          "type": "bytes32"
        }
      ],
      "name": "offerTokens",
      "outputs": [
        {
          "internalType": "uint256",
          "name": "",
          "type": "uint256"
        }
      ],
      "stateMutability": "view",
      "type": "function"
    },
    {
      "inputs": [],
      "name": "owner",
      "outputs": [
        {
          "internalType": "address",
          "name": "",
          "type": "address"
        }
      ],
      "stateMutability": "view",
      "type": "function"
    },
    {
      "inputs": [
        {
          "internalType": "uint256",
          "name": "tokenId",
          "type": "uint256"
        }
      ],
      "name": "ownerOf",
      "outputs": [
        {
          "internalType": "address",
          "name": "",
          "type": "address"
        }
      ],
      "stateMutability": "view",
      "type": "function"
    },
    {
      "inputs": [],
      "name": "pause",
      "outputs": [],
      "stateMutability": "nonpayable",
      "type": "function"
    },
    {
      "inputs": [],
      "name": "paused",
      "outputs": [
        {
          "internalType": "bool",
          "name": "",
          "type": "bool"
        }
      ],
      "stateMutability": "view",
      "type": "function"
    },
    {
      "inputs": [
        {
          "internalType": "bytes32",
          "name": "offerId",
          "type": "bytes32"
        }
      ],
      "name": "refund",
      "outputs": [],
      "stateMutability": "nonpayable",
      "type": "function"
    },
    {
      "inputs": [
        {
          "internalType": "bytes32",
          "name": "offerId",
          "type": "bytes32"
        },
        {
          "internalType": "bytes32",
          "name": "reason",
          "type": "bytes32"
        }
      ],
      "name": "reject",
      "outputs": [],
      "stateMutability": "nonpayable",
      "type": "function"
    },
    {
      "inputs": [],
      "name": "renounceOwnership",
      "outputs": [],
      "stateMutability": "nonpayable",
      "type": "function"
    },
    {
      "inputs": [
        {
          "internalType": "uint256",
          "name": "tokenId",
          "type": "uint256"
        }
      ],
      "name": "resolveTokenId",
      "outputs": [
        {
          "internalType": "bytes32",
          "name": "offerId",
          "type": "bytes32"
        }
      ],
      "stateMutability": "view",
      "type": "function"
    },
    {
      "inputs": [
        {
          "internalType": "address",
          "name": "from",
          "type": "address"
        },
        {
          "internalType": "address",
          "name": "to",
          "type": "address"
        },
        {
          "internalType": "uint256",
          "name": "tokenId",
          "type": "uint256"
        }
      ],
      "name": "safeTransferFrom",
      "outputs": [],
      "stateMutability": "nonpayable",
      "type": "function"
    },
    {
      "inputs": [
        {
          "internalType": "address",
          "name": "from",
          "type": "address"
        },
        {
          "internalType": "address",
          "name": "to",
          "type": "address"
        },
        {
          "internalType": "uint256",
          "name": "tokenId",
          "type": "uint256"
        },
        {
          "internalType": "bytes",
          "name": "data",
          "type": "bytes"
        }
      ],
      "name": "safeTransferFrom",
      "outputs": [],
      "stateMutability": "nonpayable",
      "type": "function"
    },
    {
      "inputs": [
        {
          "internalType": "address",
          "name": "operator",
          "type": "address"
        },
        {
          "internalType": "bool",
          "name": "approved",
          "type": "bool"
        }
      ],
      "name": "setApprovalForAll",
      "outputs": [],
      "stateMutability": "nonpayable",
      "type": "function"
    },
    {
      "inputs": [
        {
          "internalType": "address",
          "name": "_config",
          "type": "address"
        }
      ],
      "name": "setConfig",
      "outputs": [],
      "stateMutability": "nonpayable",
      "type": "function"
    },
    {
      "inputs": [
        {
          "internalType": "address",
          "name": "_entities",
          "type": "address"
        }
      ],
      "name": "setEntities",
      "outputs": [],
      "stateMutability": "nonpayable",
      "type": "function"
    },
    {
      "inputs": [
        {
          "internalType": "bytes4",
          "name": "interfaceId",
          "type": "bytes4"
        }
      ],
      "name": "supportsInterface",
      "outputs": [
        {
          "internalType": "bool",
          "name": "",
          "type": "bool"
        }
      ],
      "stateMutability": "view",
      "type": "function"
    },
    {
      "inputs": [],
      "name": "symbol",
      "outputs": [
        {
          "internalType": "string",
          "name": "",
          "type": "string"
        }
      ],
      "stateMutability": "view",
      "type": "function"
    },
    {
      "inputs": [
        {
          "internalType": "uint256",
          "name": "index",
          "type": "uint256"
        }
      ],
      "name": "tokenByIndex",
      "outputs": [
        {
          "internalType": "uint256",
          "name": "",
          "type": "uint256"
        }
      ],
      "stateMutability": "view",
      "type": "function"
    },
    {
      "inputs": [
        {
          "internalType": "address",
          "name": "owner",
          "type": "address"
        },
        {
          "internalType": "uint256",
          "name": "index",
          "type": "uint256"
        }
      ],
      "name": "tokenOfOwnerByIndex",
      "outputs": [
        {
          "internalType": "uint256",
          "name": "",
          "type": "uint256"
        }
      ],
      "stateMutability": "view",
      "type": "function"
    },
    {
      "inputs": [
        {
          "internalType": "uint256",
          "name": "",
          "type": "uint256"
        }
      ],
      "name": "tokenOffers",
      "outputs": [
        {
          "internalType": "bytes32",
          "name": "",
          "type": "bytes32"
        }
      ],
      "stateMutability": "view",
      "type": "function"
    },
    {
      "inputs": [
        {
          "internalType": "uint256",
          "name": "tokenId",
          "type": "uint256"
        }
      ],
      "name": "tokenURI",
      "outputs": [
        {
          "internalType": "string",
          "name": "",
          "type": "string"
        }
      ],
      "stateMutability": "view",
      "type": "function"
    },
    {
      "inputs": [],
      "name": "totalSupply",
      "outputs": [
        {
          "internalType": "uint256",
          "name": "",
          "type": "uint256"
        }
      ],
      "stateMutability": "view",
      "type": "function"
    },
    {
      "inputs": [
        {
          "internalType": "address",
          "name": "from",
          "type": "address"
        },
        {
          "internalType": "address",
          "name": "to",
          "type": "address"
        },
        {
          "internalType": "uint256",
          "name": "tokenId",
          "type": "uint256"
        }
      ],
      "name": "transferFrom",
      "outputs": [],
      "stateMutability": "nonpayable",
      "type": "function"
    },
    {
      "inputs": [
        {
          "internalType": "address",
          "name": "newOwner",
          "type": "address"
        }
      ],
      "name": "transferOwnership",
      "outputs": [],
      "stateMutability": "nonpayable",
      "type": "function"
    },
    {
      "inputs": [],
      "name": "unpause",
      "outputs": [],
      "stateMutability": "nonpayable",
      "type": "function"
    }
  ],
  "transactionHash": "0x2616f5d156f264f7a65ed2e5d7ad522bfff0d2f8c5c2e41c01f723b1ffcd4943",
  "args": [],
  "numDeployments": 1,
  "solcInputHash": "8d0b6126b03e4a7dfd9b020d5703a4a0",
  "bytecode": "0x60806040523480156200001157600080fd5b506200001c62000022565b620000e4565b600054610100900460ff16156200008f5760405162461bcd60e51b815260206004820152602760248201527f496e697469616c697a61626c653a20636f6e747261637420697320696e697469604482015266616c697a696e6760c81b606482015260840160405180910390fd5b60005460ff9081161015620000e2576000805460ff191660ff9081179091556040519081527f7f26b83ff96e1f2b6a682f133852f6798a09c465da95921460cefb38474024989060200160405180910390a15b565b6159a680620000f46000396000f3fe608060405234801561001057600080fd5b50600436106102325760003560e01c806370a0823111610130578063aaf741e4116100b8578063d2d849761161007c578063d2d849761461059c578063d56f7bcc146105af578063e985e9c5146105c2578063f2ca5dc5146105fe578063f2fde38b1461061157600080fd5b8063aaf741e414610521578063b88d4fde14610542578063bd66528a14610555578063c87b56dd14610568578063ca0345271461057b57600080fd5b806381cd872a116100ff57806381cd872a146104005780638456cb59146104ec5780638da5cb5b146104f457806395d89b4114610506578063a22cb4651461050e57600080fd5b806370a08231146103be578063715018a6146103d15780637249fbb6146103d957806379502c55146103ec57600080fd5b806320e3dbd4116101be57806342842e0e1161018257806342842e0e146103675780634f6ccce71461037a5780635c975abb1461038d5780636352211e146103985780636cf1dbed146103ab57600080fd5b806320e3dbd41461031357806323b872dd146103265780632f745c59146103395780633f4ba83a1461034c5780634246c1b71461035457600080fd5b806308122cc71161020557806308122cc71461029c578063081812fc146102af578063095ea7b3146102da5780631615fd03146102ed57806318160ddd1461030157600080fd5b806301ffc9a714610237578063042bc95b1461025f57806304f999c71461027457806306fdde0314610287575b600080fd5b61024a610245366004614beb565b610624565b60405190151581526020015b60405180910390f35b61027261026d366004614cde565b610635565b005b610272610282366004614da3565b610cfc565b61028f611046565b6040516102569190614e15565b6102726102aa366004614e28565b6110d8565b6102c26102bd366004614e28565b611813565b6040516001600160a01b039091168152602001610256565b6102726102e8366004614e56565b61183a565b610163546102c2906001600160a01b031681565b60cd545b604051908152602001610256565b610272610321366004614e82565b611954565b610272610334366004614e9f565b6119c7565b610305610347366004614e56565b6119f9565b610272611a8f565b610272610362366004614fd9565b611aa1565b610272610375366004614e9f565b611ede565b610305610388366004614e28565b611ef9565b60fd5460ff1661024a565b6102c26103a6366004614e28565b611f8c565b6102726103b936600461501f565b611fec565b6103056103cc366004614e82565b612156565b6102726121dc565b6102726103e7366004614e28565b6121ee565b610162546102c2906001600160a01b031681565b6104d961040e366004614e28565b610165602090815260009182526040918290208054835161016081018552600183015481526002830154938101939093526003820154938301939093526004810154606083015260058101546080830152600681015460a0830152600781015460c0830152600881015460e0830152600981015460ff9081161515610100840152600a820154610120840152600b820154610140840152600c820154600d830154600e840154600f9094015491936001600160a01b0391821693909291821691600160a01b90041687565b60405161025697969594939291906150f4565b610272612537565b61012f546001600160a01b03166102c2565b61028f612547565b61027261051c3660046151df565b612556565b61030561052f366004614e28565b6101996020526000908152604090205481565b610272610550366004615218565b612565565b610272610563366004614e28565b61259d565b61028f610576366004614e28565b612864565b610305610589366004614e28565b6101986020526000908152604090205481565b6102726105aa366004614e82565b612883565b6102726105bd366004615320565b6128f6565b61024a6105d036600461542e565b6001600160a01b039182166000908152609e6020908152604080832093909416825291909152205460ff1690565b61030561060c366004614e28565b61300d565b61027261061f366004614e82565b61302c565b600061062f826130a5565b92915050565b6000828152610165602052604090206001015482906106675760405163223da47360e21b815260040160405180910390fd5b6518d85b98d95b60d21b60005261016460209081527f81062d4f7ca92921b22616119900c96f98bed102c24746a50196946c312490ea8054604080518285028101850190915281815286939092919083018282801561071557602002820191906000526020600020906000905b82829054906101000a900460ff1660078111156106f3576106f36150bc565b8152602060019283018181049485019490930390920291018084116106d45790505b505050600084815261016560205260408120600f0154909250600160a01b900460ff169050815b83518110156107a2578381815181106107575761075761545c565b60200260200101516007811115610770576107706150bc565b826007811115610782576107826150bc565b0361079057600192506107a2565b8061079a81615488565b91505061073c565b50816001146107c457604051632adde06f60e21b815260040160405180910390fd5b600087815261016560205260409020600d8101543391906001600160a01b03168214610803576040516308ffd32360e41b815260040160405180910390fd5b61016254604051630bb2c35960e21b81526b18db185a5b57dc195c9a5bd960a21b6004820152610889916001600160a01b031690632ecb0d6490602401602060405180830381865afa15801561085d573d6000803e3d6000fd5b505050506040513d601f19601f8201168201806040525081019061088191906154a1565b8254906130ca565b4210156108a95760405163e340eb8560e01b815260040160405180910390fd5b600f8101805460ff60a01b198116600160a21b17909155600160a01b900460ff166108d38a6130dd565b60008160078111156108e7576108e76150bc565b0361099157600f820154600d830154600e84015460405163a9059cbb60e01b81526001600160a01b039283166004820152602481019190915291169063a9059cbb906044016020604051808303816000875af115801561094b573d6000803e3d6000fd5b505050506040513d601f19601f8201168201806040525081019061096f91906154ba565b61098c5760405163244743ff60e01b815260040160405180910390fd5b610cbd565b60018160078111156109a5576109a56150bc565b1480156109b55750600a82015442105b15610ca4576109c3896130e5565b6008830154146109e65760405163b124e96f60e01b815260040160405180910390fd5b60008060005b8b51811015610a9e578b8181518110610a0757610a0761545c565b6020026020010151600001514210158015610a465750821580610a465750828c8281518110610a3857610a3861545c565b602002602001015160000151105b15610a8c578b8181518110610a5d57610a5d61545c565b60200260200101516000015192508b8181518110610a7d57610a7d61545c565b60200260200101516020015191505b80610a9681615488565b9150506109ec565b506064811115610aac575060645b6000610abc85600e015483613194565b600f860154600d870154600e8801549293506001600160a01b039182169263a9059cbb9290911690610aee90856131db565b6040516001600160e01b031960e085901b1681526001600160a01b03909216600483015260248201526044016020604051808303816000875af1158015610b39573d6000803e3d6000fd5b505050506040513d601f19601f82011682018060405250810190610b5d91906154ba565b610b7a5760405163244743ff60e01b815260040160405180910390fd5b600081118015610c7e5750600f8501546101635460038701546040516329db379b60e11b815260048101919091526001600160a01b039283169263a9059cbb9216906353b66f369060240160a060405180830381865afa158015610be2573d6000803e3d6000fd5b505050506040513d601f19601f82011682018060405250810190610c0691906154d7565b60409081015190516001600160e01b031960e084901b1681526001600160a01b039091166004820152602481018490526044016020604051808303816000875af1158015610c58573d6000803e3d6000fd5b505050506040513d601f19601f82011682018060405250810190610c7c91906154ba565b155b15610c9c5760405163244743ff60e01b815260040160405180910390fd5b505050610cbd565b604051632adde06f60e21b815260040160405180910390fd5b6000805160206159518339815191528a600485604051610cdf9392919061555e565b60405180910390a1610cf08a6131e7565b50505050505050505050565b600082815261016560205260409020600101548290610d2e5760405163223da47360e21b815260040160405180910390fd5b6101635460008481526101656020526040908190206003015490516329db379b60e11b8152600481019190915284916001600160a01b0316906353b66f369060240160a060405180830381865afa158015610d8d573d6000803e3d6000fd5b505050506040513d601f19601f82011682018060405250810190610db191906154d7565b608001516001600160a01b0316336001600160a01b031614610de6576040516308ffd32360e41b815260040160405180910390fd5b651c995a9958dd60d21b60005261016460209081527fc46af9fb757a5392b04e96a191cee5d6fe9386d767a56a820e480e8cd4dd9fd980546040805182850281018501909152818152879390929190830182828015610e9457602002820191906000526020600020906000905b82829054906101000a900460ff166007811115610e7257610e726150bc565b815260206001928301818104948501949093039092029101808411610e535790505b505050600084815261016560205260408120600f0154909250600160a01b900460ff169050815b8351811015610f2157838181518110610ed657610ed661545c565b60200260200101516007811115610eef57610eef6150bc565b826007811115610f0157610f016150bc565b03610f0f5760019250610f21565b80610f1981615488565b915050610ebb565b5081600114610f4357604051632adde06f60e21b815260040160405180910390fd5b600088815261016560205260409020600f8101805460ff60a01b1916600160a11b179055610f718989613231565b600f810154600d820154600e83015460405163a9059cbb60e01b81526001600160a01b039283166004820152602481019190915291169063a9059cbb906044016020604051808303816000875af1158015610fd0573d6000803e3d6000fd5b505050506040513d601f19601f82011682018060405250810190610ff491906154ba565b6110115760405163244743ff60e01b815260040160405180910390fd5b600080516020615951833981519152896002336040516110339392919061555e565b60405180910390a1505050505050505050565b6060609980546110559061558b565b80601f01602080910402602001604051908101604052809291908181526020018280546110819061558b565b80156110ce5780601f106110a3576101008083540402835291602001916110ce565b820191906000526020600020905b8154815290600101906020018083116110b157829003601f168201915b5050505050905090565b60008181526101656020526040902060010154819061110a5760405163223da47360e21b815260040160405180910390fd5b6101635460008381526101656020526040908190206003015490516329db379b60e11b8152600481019190915283916001600160a01b0316906353b66f369060240160a060405180830381865afa158015611169573d6000803e3d6000fd5b505050506040513d601f19601f8201168201806040525081019061118d91906154d7565b608001516001600160a01b0316336001600160a01b0316146111c2576040516308ffd32360e41b815260040160405180910390fd5b6718da1958dad3dd5d60c21b60005261016460209081527fc1dd3999e8023eaa9ce335ac20c9f0911c06155bdf47040ab8df5eebc20004ba8054604080518285028101850190915281815286939092919083018282801561127257602002820191906000526020600020906000905b82829054906101000a900460ff166007811115611250576112506150bc565b8152602060019283018181049485019490930390920291018084116112315790505b505050600084815261016560205260408120600f0154909250600160a01b900460ff169050815b83518110156112ff578381815181106112b4576112b461545c565b602002602001015160078111156112cd576112cd6150bc565b8260078111156112df576112df6150bc565b036112ed57600192506112ff565b806112f781615488565b915050611299565b508160011461132157604051632adde06f60e21b815260040160405180910390fd5b600087815261016560205260409020600b8101544210156113555760405163e340eb8560e01b815260040160405180910390fd5b600f8101805460ff60a01b1916600360a11b179055611373886130dd565b600e81015461016254604051630bb2c35960e21b81526b70726f746f636f6c5f66656560a01b60048201526000928392839261140492916001600160a01b031690632ecb0d64906024015b602060405180830381865afa1580156113db573d6000803e3d6000fd5b505050506040513d601f19601f820116820180604052508101906113ff91906154a1565b613194565b600c8501549093501561145c57600e84015461016254604051630bb2c35960e21b81526b72657461696c65725f66656560a01b600482015261145992916001600160a01b031690632ecb0d64906024016113be565b91505b61147d826114778587600e01546131db90919063ffffffff16565b906131db565b90506000831180156115875750600f840154610162546040516321f8a72160e01b81526c19995957dc9958da5c1a595b9d609a1b60048201526001600160a01b039283169263a9059cbb9216906321f8a72190602401602060405180830381865afa1580156114f0573d6000803e3d6000fd5b505050506040513d601f19601f8201168201806040525081019061151491906155c5565b6040516001600160e01b031960e084901b1681526001600160a01b039091166004820152602481018690526044016020604051808303816000875af1158015611561573d6000803e3d6000fd5b505050506040513d601f19601f8201168201806040525081019061158591906154ba565b155b156115a55760405163244743ff60e01b815260040160405180910390fd5b6000821180156116a95750600f84015461016354600c8601546040516329db379b60e11b815260048101919091526001600160a01b039283169263a9059cbb9216906353b66f369060240160a060405180830381865afa15801561160d573d6000803e3d6000fd5b505050506040513d601f19601f8201168201806040525081019061163191906154d7565b60409081015190516001600160e01b031960e084901b1681526001600160a01b039091166004820152602481018590526044016020604051808303816000875af1158015611683573d6000803e3d6000fd5b505050506040513d601f19601f820116820180604052508101906116a791906154ba565b155b156116c75760405163244743ff60e01b815260040160405180910390fd5b600f8401546101635460038601546040516329db379b60e11b815260048101919091526001600160a01b039283169263a9059cbb9216906353b66f369060240160a060405180830381865afa158015611724573d6000803e3d6000fd5b505050506040513d601f19601f8201168201806040525081019061174891906154d7565b60409081015190516001600160e01b031960e084901b1681526001600160a01b039091166004820152602481018490526044016020604051808303816000875af115801561179a573d6000803e3d6000fd5b505050506040513d601f19601f820116820180604052508101906117be91906154ba565b6117db5760405163244743ff60e01b815260040160405180910390fd5b6000805160206159518339815191528b6006336040516117fd9392919061555e565b60405180910390a15b5050505050505050505050565b600061181e82613239565b506000908152609d60205260409020546001600160a01b031690565b600061184582611f8c565b9050806001600160a01b0316836001600160a01b0316036118b75760405162461bcd60e51b815260206004820152602160248201527f4552433732313a20617070726f76616c20746f2063757272656e74206f776e656044820152603960f91b60648201526084015b60405180910390fd5b336001600160a01b03821614806118d357506118d381336105d0565b6119455760405162461bcd60e51b815260206004820152603d60248201527f4552433732313a20617070726f76652063616c6c6572206973206e6f7420746f60448201527f6b656e206f776e6572206f7220617070726f76656420666f7220616c6c00000060648201526084016118ae565b61194f8383613298565b505050565b61195c613306565b61016254604080516001600160a01b03928316815291831660208301527fbd7986d31c086d8cc2901a1c41d1edc0af6e8a7a5c6fc1b8283919c1b2122c38910160405180910390a161016280546001600160a01b0319166001600160a01b0392909216919091179055565b6119d2335b82613361565b6119ee5760405162461bcd60e51b81526004016118ae906155e2565b61194f8383836133e0565b6000611a0483612156565b8210611a665760405162461bcd60e51b815260206004820152602b60248201527f455243373231456e756d657261626c653a206f776e657220696e646578206f7560448201526a74206f6620626f756e647360a81b60648201526084016118ae565b506001600160a01b0391909116600090815260cb60209081526040808320938352929052205490565b611a97613306565b611a9f613551565b565b600082815261016560205260409020600101548290611ad35760405163223da47360e21b815260040160405180910390fd5b6631b432b1b5a4b760c91b60005261016460209081527fc78e0758b723b136c59844f7da34685e7f27894489b1657d97b9b8e3e8e19ced80546040805182850281018501909152818152869390929190830182828015611b8257602002820191906000526020600020906000905b82829054906101000a900460ff166007811115611b6057611b606150bc565b815260206001928301818104948501949093039092029101808411611b415790505b505050600084815261016560205260408120600f0154909250600160a01b900460ff169050815b8351811015611c0f57838181518110611bc457611bc461545c565b60200260200101516007811115611bdd57611bdd6150bc565b826007811115611bef57611bef6150bc565b03611bfd5760019250611c0f565b80611c0781615488565b915050611ba9565b5081600114611c3157604051632adde06f60e21b815260040160405180910390fd5b6000878152610165602052604080822061016354600382015492516329db379b60e11b81529193926001600160a01b03909116916353b66f3691611c7b9160040190815260200190565b60a060405180830381865afa158015611c98573d6000803e3d6000fd5b505050506040513d601f19601f82011682018060405250810190611cbc91906154d7565b608081015190915033906000906001600160a01b03168203611dd757611cf5611cf0856001016000015485608001516135a3565b613607565b9050611d33818b600081518110611d0e57611d0e61545c565b602002602001015185608001516001600160a01b031661361a9092919063ffffffff16565b611d505760405163a2fb840f60e01b815260040160405180910390fd5b600a840154421015611dd2576001840154600d850154611d7c91611cf0916001600160a01b03166135a3565b9050611db5818b600181518110611d9557611d9561545c565b6020908102919091010151600d8701546001600160a01b0316919061361a565b611dd25760405163a2fb840f60e01b815260040160405180910390fd5b611e8f565b600d8401546001600160a01b0390811690831603611e76576001840154600d850154611e0f91611cf0916001600160a01b03166135a3565b9050611e28818b600081518110611d9557611d9561545c565b611e455760405163a2fb840f60e01b815260040160405180910390fd5b611e5d611cf0856001016000015485608001516135a3565b9050611db5818b600181518110611d0e57611d0e61545c565b6040516308ffd32360e41b815260040160405180910390fd5b611e998b8b613231565b600f8401805460ff60a01b1916600560a01b17905560405160008051602061595183398151915290611ed1908d90600590869061555e565b60405180910390a1611806565b61194f83838360405180602001604052806000815250612565565b6000611f0460cd5490565b8210611f675760405162461bcd60e51b815260206004820152602c60248201527f455243373231456e756d657261626c653a20676c6f62616c20696e646578206f60448201526b7574206f6620626f756e647360a01b60648201526084016118ae565b60cd8281548110611f7a57611f7a61545c565b90600052602060002001549050919050565b6000818152609b60205260408120546001600160a01b03168061062f5760405162461bcd60e51b8152602060048201526018602482015277115490cdcc8c4e881a5b9d985b1a59081d1bdad95b88125160421b60448201526064016118ae565b600054610100900460ff161580801561200c5750600054600160ff909116105b806120265750303b158015612026575060005460ff166001145b6120895760405162461bcd60e51b815260206004820152602e60248201527f496e697469616c697a61626c653a20636f6e747261637420697320616c72656160448201526d191e481a5b9a5d1a585b1a5e995960921b60648201526084016118ae565b6000805460ff1916600117905580156120ac576000805461ff0019166101001790555b6120b58661375c565b6120fc604051806040016040528060098152602001682232b0b62a37b5b2b760b91b815250604051806040016040528060048152602001631111505360e21b8152506137af565b612108858585856137f0565b801561214e576000805461ff0019169055604051600181527f7f26b83ff96e1f2b6a682f133852f6798a09c465da95921460cefb38474024989060200160405180910390a15b505050505050565b60006001600160a01b0382166121c05760405162461bcd60e51b815260206004820152602960248201527f4552433732313a2061646472657373207a65726f206973206e6f7420612076616044820152683634b21037bbb732b960b91b60648201526084016118ae565b506001600160a01b03166000908152609c602052604090205490565b6121e4613306565b611a9f600061375c565b6000818152610165602052604090206001015481906122205760405163223da47360e21b815260040160405180910390fd5b6101635460008381526101656020526040908190206003015490516329db379b60e11b8152600481019190915283916001600160a01b0316906353b66f369060240160a060405180830381865afa15801561227f573d6000803e3d6000fd5b505050506040513d601f19601f820116820180604052508101906122a391906154d7565b608001516001600160a01b0316336001600160a01b0316146122d8576040516308ffd32360e41b815260040160405180910390fd5b651c99599d5b9960d21b60005261016460209081527f07a4462434a8663ef8cbef768cea3239b3345cd5f028a224e47a7db4a71138368054604080518285028101850190915281815286939092919083018282801561238657602002820191906000526020600020906000905b82829054906101000a900460ff166007811115612364576123646150bc565b8152602060019283018181049485019490930390920291018084116123455790505b505050600084815261016560205260408120600f0154909250600160a01b900460ff169050815b8351811015612413578381815181106123c8576123c861545c565b602002602001015160078111156123e1576123e16150bc565b8260078111156123f3576123f36150bc565b036124015760019250612413565b8061240b81615488565b9150506123ad565b508160011461243557604051632adde06f60e21b815260040160405180910390fd5b600087815261016560205260409020600f8101805460ff60a01b1916600360a01b179055612462886130dd565b600f810154600d820154600e83015460405163a9059cbb60e01b81526001600160a01b039283166004820152602481019190915291169063a9059cbb906044016020604051808303816000875af11580156124c1573d6000803e3d6000fd5b505050506040513d601f19601f820116820180604052508101906124e591906154ba565b6125025760405163244743ff60e01b815260040160405180910390fd5b600080516020615951833981519152886003336040516125249392919061555e565b60405180910390a15b5050505050505050565b61253f613306565b611a9f613aad565b6060609a80546110559061558b565b612561338383613aea565b5050565b61256f3383613361565b61258b5760405162461bcd60e51b81526004016118ae906155e2565b61259784848484613bb8565b50505050565b6000818152610165602052604090206001015481906125cf5760405163223da47360e21b815260040160405180910390fd5b6101635460008381526101656020526040908190206003015490516329db379b60e11b8152600481019190915283916001600160a01b0316906353b66f369060240160a060405180830381865afa15801561262e573d6000803e3d6000fd5b505050506040513d601f19601f8201168201806040525081019061265291906154d7565b608001516001600160a01b0316336001600160a01b031614612687576040516308ffd32360e41b815260040160405180910390fd5b64636c61696d60d81b60005261016460209081527f8fded9216611b5e46bf52fe515d6ddc32059da80463e1a4891e5dc68d5c1a8a88054604080518285028101850190915281815286939092919083018282801561273457602002820191906000526020600020906000905b82829054906101000a900460ff166007811115612712576127126150bc565b8152602060019283018181049485019490930390920291018084116126f35790505b505050600084815261016560205260408120600f0154909250600160a01b900460ff169050815b83518110156127c1578381815181106127765761277661545c565b6020026020010151600781111561278f5761278f6150bc565b8260078111156127a1576127a16150bc565b036127af57600192506127c1565b806127b981615488565b91505061275b565b50816001146127e357604051632adde06f60e21b815260040160405180910390fd5b600087815261016560205260409020600d81015461280b9089906001600160a01b0316613231565b600f8101805460ff60a01b1916600160a01b17905560405160008051602061595183398151915290612843908a90600190339061555e565b60405180910390a1600d81015461252d9089906001600160a01b0316613beb565b606061286f82613239565b505060408051602081019091526000815290565b61288b613306565b61016354604080516001600160a01b03928316815291831660208301527fb468923d3f8581bd45345fed844c850e4c681b7170a99d4b47a7f92f66e226d2910160405180910390a161016380546001600160a01b0319166001600160a01b0392909216919091179055565b336000612905611cf088613c1f565b610163546040808a015190516329db379b60e11b81529293506000926001600160a01b03909216916353b66f36916129439160040190815260200190565b60a060405180830381865afa158015612960573d6000803e3d6000fd5b505050506040513d601f19601f8201168201806040525081019061298491906154d7565b90506129c2828560008151811061299d5761299d61545c565b602002602001015183608001516001600160a01b031661361a9092919063ffffffff16565b6129df5760405163a2fb840f60e01b815260040160405180910390fd5b610163546040808a0151905163a241f54d60e01b81526001600160a01b039092169163a241f54d91612a179160040190815260200190565b602060405180830381865afa158015612a34573d6000803e3d6000fd5b505050506040513d601f19601f82011682018060405250810190612a5891906154ba565b612a755760405163e1040adb60e01b815260040160405180910390fd5b8415612ba557610163546040516329db379b60e11b8152600481018790526000916001600160a01b0316906353b66f369060240160a060405180830381865afa158015612ac6573d6000803e3d6000fd5b505050506040513d601f19601f82011682018060405250810190612aea91906154d7565b60408101519091506001600160a01b0316612b18576040516301e8b0f960e51b815260040160405180910390fd5b6101635460405163a241f54d60e01b8152600481018890526001600160a01b039091169063a241f54d90602401602060405180830381865afa158015612b62573d6000803e3d6000fd5b505050506040513d601f19601f82011682018060405250810190612b8691906154ba565b612ba357604051630620118d60e51b815260040160405180910390fd5b505b87516000818152610165602052604090206001015403612bd857604051635d341dcb60e11b815260040160405180910390fd5b6000612be388613cf8565b90508860c001518114612c09576040516304b1ffc560e51b815260040160405180910390fd5b50505060008060005b8751811015612c965786888281518110612c2e57612c2e61545c565b60200260200101516000015103612c8457878181518110612c5157612c5161545c565b6020026020010151602001519250878181518110612c7157612c7161545c565b6020026020010151604001519150612c96565b80612c8e81615488565b915050612c12565b506001600160a01b038116612cbe57604051632c46fa3160e21b815260040160405180910390fd5b612cca88838387613d9d565b87516000818152610165602052604090206001015403612cfd5760405163a00179fd60e01b815260040160405180910390fd5b6040518060e00160405280428152602001898152602001868152602001846001600160a01b03168152602001838152602001826001600160a01b0316815260200160006007811115612d5157612d516150bc565b90528851600090815261016560209081526040918290208351815583820151805160018301559182015160028201558183015160038201556060808301516004830155608080840151600584015560a080850151600685015560c08086015160078087019190915560e0870151600887015561010087015160098701805491151560ff19909216919091179055610120870151600a87015561014090960151600b86015595870151600c85015591860151600d840180546001600160a01b039283166001600160a01b03199182161790915591870151600e85015591860151600f840180549190931691811682178355948601519294929391926001600160a81b0319161790600160a01b908490811115612e6e57612e6e6150bc565b0217905550905050600184511115612f40576000806000612ea887600181518110612e9b57612e9b61545c565b6020026020010151613db1565b60208e015160405163d505accf60e01b81526001600160a01b038b81166004830152306024830152604482018b9052606482019290925260ff8516608482015260a4810184905260c48101839052939650919450925085169063d505accf9060e401600060405180830381600087803b158015612f2457600080fd5b505af1158015612f38573d6000803e3d6000fd5b505050505050505b6040516323b872dd60e01b81526001600160a01b038481166004830152306024830152604482018490528216906323b872dd906064016020604051808303816000875af1158015612f95573d6000803e3d6000fd5b505050506040513d601f19601f82011682018060405250810190612fb991906154ba565b612fd65760405163244743ff60e01b815260040160405180910390fd5b875160405160008051602061595183398151915291612ff991600090879061555e565b60405180910390a161252d88838387613e12565b600061301882613239565b506000908152610198602052604090205490565b613034613306565b6001600160a01b0381166130995760405162461bcd60e51b815260206004820152602660248201527f4f776e61626c653a206e6577206f776e657220697320746865207a65726f206160448201526564647265737360d01b60648201526084016118ae565b6130a28161375c565b50565b60006001600160e01b0319821663780e9d6360e01b148061062f575061062f82613e17565b60006130d6828461562f565b9392505050565b6130a2613e67565b60008082516001600160401b0381111561310157613101614c08565b60405190808252806020026020018201604052801561312a578160200160208202803683370190505b50905060005b835181101561318a5761315b84828151811061314e5761314e61545c565b6020026020010151613ead565b82828151811061316d5761316d61545c565b60209081029190910101528061318281615488565b915050613130565b506130d681613efa565b600060648211156131b857604051635c974e3d60e11b815260040160405180910390fd5b6130d66103e86131d5606481866131cf8986613f0d565b90613f0d565b90613f19565b60006130d68284615642565b6000818152610199602052604090205480156132285761320681613f25565b6000818152610198602090815260408083208390558483526101999091528120555b612561826130dd565b612561613e67565b6000818152609b60205260409020546001600160a01b03166130a25760405162461bcd60e51b8152602060048201526018602482015277115490cdcc8c4e881a5b9d985b1a59081d1bdad95b88125160421b60448201526064016118ae565b6000818152609d6020526040902080546001600160a01b0319166001600160a01b03841690811790915581906132cd82611f8c565b6001600160a01b03167f8c5be1e5ebec7d5bd14f71427d1e84f3dd0314c0f7b2291e5b200ac8c7c3b92560405160405180910390a45050565b61012f546001600160a01b03163314611a9f5760405162461bcd60e51b815260206004820181905260248201527f4f776e61626c653a2063616c6c6572206973206e6f7420746865206f776e657260448201526064016118ae565b60008061336d83611f8c565b9050806001600160a01b0316846001600160a01b031614806133b457506001600160a01b038082166000908152609e602090815260408083209388168352929052205460ff165b806133d85750836001600160a01b03166133cd84611813565b6001600160a01b0316145b949350505050565b826001600160a01b03166133f382611f8c565b6001600160a01b0316146134195760405162461bcd60e51b81526004016118ae90615655565b6001600160a01b03821661347b5760405162461bcd60e51b8152602060048201526024808201527f4552433732313a207472616e7366657220746f20746865207a65726f206164646044820152637265737360e01b60648201526084016118ae565b6134888383836001613f53565b826001600160a01b031661349b82611f8c565b6001600160a01b0316146134c15760405162461bcd60e51b81526004016118ae90615655565b6000818152609d6020908152604080832080546001600160a01b03199081169091556001600160a01b03878116808652609c8552838620805460001901905590871680865283862080546001019055868652609b90945282852080549092168417909155905184937fddf252ad1be2c89b69c2b068fc378daa952ba7f163c4a11628f55a4df523b3ef91a4505050565b613559614039565b60fd805460ff191690557f5db9ee0a495bf2e6ff9c91a7834c1ba4fdd244a5e8aa4e537bd38aeae4b073aa335b6040516001600160a01b03909116815260200160405180910390a1565b604080517ff811d7f3ddb148410001929e2cbfb7fea8779b9349b7c2f650fa91840528d69c60208201529081018390526001600160a01b03821660608201526000906080015b60405160208183030381529060405280519060200120905092915050565b600061062f613614614082565b83614102565b60008060006136298585614129565b90925090506000816004811115613642576136426150bc565b1480156136605750856001600160a01b0316826001600160a01b0316145b15613670576001925050506130d6565b600080876001600160a01b0316631626ba7e60e01b888860405160240161369892919061569a565b60408051601f198184030181529181526020820180516001600160e01b03166001600160e01b03199094169390931790925290516136d691906156b3565b600060405180830381855afa9150503d8060008114613711576040519150601f19603f3d011682016040523d82523d6000602084013e613716565b606091505b5091509150818015613729575080516020145b801561375057508051630b135d3f60e11b9061374e90830160209081019084016154a1565b145b98975050505050505050565b61012f80546001600160a01b038381166001600160a01b0319831681179093556040519116919082907f8be0079c531659141344cd1fd0a4f28419497f9722a3daafe3b4186f6b6457e090600090a35050565b600054610100900460ff166137d65760405162461bcd60e51b81526004016118ae906156cf565b6137e0828261416e565b6137e861419f565b6125616141c6565b600054610100900460ff166138175760405162461bcd60e51b81526004016118ae906156cf565b61382184846141f5565b6138296141c6565b61016280546001600160a01b038481166001600160a01b03199283161790925561016380549284169290911691909117905560408051602081019091528060009052651c995a9958dd60d21b6000526101646020526138ab907fc46af9fb757a5392b04e96a191cee5d6fe9386d767a56a820e480e8cd4dd9fd9906001614a97565b50604080518082019091528060008152602001600190526518d85b98d95b60d21b600052610164602052613902907f81062d4f7ca92921b22616119900c96f98bed102c24746a50196946c312490ea906002614b4b565b5060408051808201909152806001815260200160059052651c99599d5b9960d21b600052610164602052613959907f07a4462434a8663ef8cbef768cea3239b3345cd5f028a224e47a7db4a7113836906002614b4b565b506040805160208101909152806000905264636c61696d60d81b6000526101646020526139a9907f8fded9216611b5e46bf52fe515d6ddc32059da80463e1a4891e5dc68d5c1a8a8906001614a97565b50604080516020810190915280600190526631b432b1b5a4b760c91b6000526101646020526139fb907fc78e0758b723b136c59844f7da34685e7f27894489b1657d97b9b8e3e8e19ced906001614a97565b50604080516020810190915280600590526718da1958dad3dd5d60c21b600052610164602052613a4e907fc1dd3999e8023eaa9ce335ac20c9f0911c06155bdf47040ab8df5eebc20004ba906001614a97565b5060408051808201909152806005815260200160069052666469737075746560c81b600052610164602052613aa6907f755971b5036353f540d427876647973a20fcd901626978bb47564e1a4a28b6d4906002614b4b565b5050505050565b613ab5613e67565b60fd805460ff191660011790557f62e78cea01bee320cd4e420270b5ea74000d11b0c9f74754ebdbfc544b05a2586135863390565b816001600160a01b0316836001600160a01b031603613b4b5760405162461bcd60e51b815260206004820152601960248201527f4552433732313a20617070726f766520746f2063616c6c65720000000000000060448201526064016118ae565b6001600160a01b038381166000818152609e6020908152604080832094871680845294825291829020805460ff191686151590811790915591519182527f17307eab39ab6107e8899845ad3d59bd9653f200f220920489ca2b5937696c31910160405180910390a3505050565b613bc38484846133e0565b613bcf84848484614226565b6125975760405162461bcd60e51b81526004016118ae9061571a565b6000613bf682614327565b600081815261019860209081526040808320879055958252610199905293909320929092555050565b60007fcf2addd2f89a78825d3f130a17e47b4e9963adfd09837fa9c454569faa073354826000015183602001518460400151856060015186608001518760a001518860c001518960e001518a61010001518b6101200151604051602001613cdb9b9a999897969594939291909a8b5260208b019990995260408a01979097526060890195909552608088019390935260a087019190915260c086015260e085015261010084015215156101208301526101408201526101600190565b604051602081830303815290604052805190602001209050919050565b60008082516001600160401b03811115613d1457613d14614c08565b604051908082528060200260200182016040528015613d3d578160200160208202803683370190505b50905060005b835181101561318a57613d6e848281518110613d6157613d6161545c565b602002602001015161434f565b828281518110613d8057613d8061545c565b602090810291909101015280613d9581615488565b915050613d43565b613da5613e67565b612597848484846143bd565b60008060008351604103613df25750505060208101516040820151606083015160001a919082613de057601b92505b60018303613ded57601c92505b613e0b565b604051638baa579f60e01b815260040160405180910390fd5b9193909250565b612597565b60006001600160e01b031982166380ac58cd60e01b1480613e4857506001600160e01b03198216635b5e139f60e01b145b8061062f57506301ffc9a760e01b6001600160e01b031983161461062f565b60fd5460ff1615611a9f5760405162461bcd60e51b815260206004820152601060248201526f14185d5cd8589b194e881c185d5cd95960821b60448201526064016118ae565b8051602080830151604051600093613cdb937f8ea27057ea8a0239f02c8b75748218a035a5a2a2a0785b53aaa99af91ff538c5939192019283526020830191909152604082015260600190565b600081604051602001613cdb919061576c565b60006130d682846157a2565b60006130d682846157b9565b613f2e336119cc565b613f4a5760405162461bcd60e51b81526004016118ae906155e2565b6130a2816143c5565b613f5b613e67565b6001600160a01b03841615801590613f7b57506001600160a01b03831615155b1561402d576000828152610198602052604090205480613fae5760405163223da47360e21b815260040160405180910390fd5b600081815261016560205260409020600981015460ff161580613ff157506001600f820154600160a01b900460ff166007811115613fee57613fee6150bc565b14155b1561400f5760405163ca7cbc7760e01b815260040160405180910390fd5b600d0180546001600160a01b0319166001600160a01b038616179055505b61259784848484614468565b60fd5460ff16611a9f5760405162461bcd60e51b815260206004820152601460248201527314185d5cd8589b194e881b9bdd081c185d5cd95960621b60448201526064016118ae565b60006140fd7f8b73c3c69bb8fe3d512ecc4cf759cc79239f7b179b0ffacaa9a75d522b39400f6140b160015490565b6002546040805160208101859052908101839052606081018290524660808201523060a082015260009060c0016040516020818303038152906040528051906020012090509392505050565b905090565b60405161190160f01b602082015260228101839052604281018290526000906062016135e9565b600080825160410361415f5760208301516040840151606085015160001a6141538782858561447c565b94509450505050614167565b506000905060025b9250929050565b600054610100900460ff166141955760405162461bcd60e51b81526004016118ae906156cf565b6125618282614540565b600054610100900460ff16611a9f5760405162461bcd60e51b81526004016118ae906156cf565b600054610100900460ff166141ed5760405162461bcd60e51b81526004016118ae906156cf565b611a9f614580565b600054610100900460ff1661421c5760405162461bcd60e51b81526004016118ae906156cf565b61256182826145b3565b60006001600160a01b0384163b1561431c57604051630a85bd0160e11b81526001600160a01b0385169063150b7a029061426a9033908990889088906004016157db565b6020604051808303816000875af19250505080156142a5575060408051601f3d908101601f191682019092526142a291810190615818565b60015b614302573d8080156142d3576040519150601f19603f3d011682016040523d82523d6000602084013e6142d8565b606091505b5080516000036142fa5760405162461bcd60e51b81526004016118ae9061571a565b805181602001fd5b6001600160e01b031916630a85bd0160e11b1490506133d8565b506001949350505050565b6000806143346101615490565b905061434561016180546001019055565b61062f83826145f4565b60007f2f8fc0b3ad3f58f6deb367673d38e4112a3c8c64de033c5b780b84ef8f67cde6826000015183602001518460400151604051602001613cdb949392919093845260208401929092526040830152606090811b6bffffffffffffffffffffffff19169082015260740190565b612597613e67565b60006143d082611f8c565b90506143e0816000846001613f53565b6143e982611f8c565b6000838152609d6020908152604080832080546001600160a01b03199081169091556001600160a01b038516808552609c84528285208054600019019055878552609b909352818420805490911690555192935084927fddf252ad1be2c89b69c2b068fc378daa952ba7f163c4a11628f55a4df523b3ef908390a45050565b614470613e67565b6125978484848461460e565b6000807f7fffffffffffffffffffffffffffffff5d576e7357a4501ddfe92f46681b20a08311156144b35750600090506003614537565b6040805160008082526020820180845289905260ff881692820192909252606081018690526080810185905260019060a0016020604051602081039080840390855afa158015614507573d6000803e3d6000fd5b5050604051601f1901519150506001600160a01b03811661453057600060019250925050614537565b9150600090505b94509492505050565b600054610100900460ff166145675760405162461bcd60e51b81526004016118ae906156cf565b6099614573838261587b565b50609a61194f828261587b565b600054610100900460ff166145a75760405162461bcd60e51b81526004016118ae906156cf565b60fd805460ff19169055565b600054610100900460ff166145da5760405162461bcd60e51b81526004016118ae906156cf565b815160209283012081519190920120600191909155600255565b61256182826040518060200160405280600081525061473b565b600181111561467d5760405162461bcd60e51b815260206004820152603560248201527f455243373231456e756d657261626c653a20636f6e7365637574697665207472604482015274185b9cd9995c9cc81b9bdd081cdd5c1c1bdc9d1959605a1b60648201526084016118ae565b816001600160a01b0385166146d9576146d48160cd8054600083815260ce60205260408120829055600182018355919091527f83978b4c69c48dd978ab43fe30f077615294f938fb7f936d9eb340e51ea7db2e0155565b6146fc565b836001600160a01b0316856001600160a01b0316146146fc576146fc858261476e565b6001600160a01b038416614718576147138161480b565b613aa6565b846001600160a01b0316846001600160a01b031614613aa657613aa684826148ba565b61474583836148fe565b6147526000848484614226565b61194f5760405162461bcd60e51b81526004016118ae9061571a565b6000600161477b84612156565b6147859190615642565b600083815260cc60205260409020549091508082146147d8576001600160a01b038416600090815260cb60209081526040808320858452825280832054848452818420819055835260cc90915290208190555b50600091825260cc602090815260408084208490556001600160a01b03909416835260cb81528383209183525290812055565b60cd5460009061481d90600190615642565b600083815260ce602052604081205460cd80549394509092849081106148455761484561545c565b906000526020600020015490508060cd83815481106148665761486661545c565b600091825260208083209091019290925582815260ce909152604080822084905585825281205560cd80548061489e5761489e61593a565b6001900381819060005260206000200160009055905550505050565b60006148c583612156565b6001600160a01b03909316600090815260cb60209081526040808320868452825280832085905593825260cc9052919091209190915550565b6001600160a01b0382166149545760405162461bcd60e51b815260206004820181905260248201527f4552433732313a206d696e7420746f20746865207a65726f206164647265737360448201526064016118ae565b6000818152609b60205260409020546001600160a01b0316156149b95760405162461bcd60e51b815260206004820152601c60248201527f4552433732313a20746f6b656e20616c7265616479206d696e7465640000000060448201526064016118ae565b6149c7600083836001613f53565b6000818152609b60205260409020546001600160a01b031615614a2c5760405162461bcd60e51b815260206004820152601c60248201527f4552433732313a20746f6b656e20616c7265616479206d696e7465640000000060448201526064016118ae565b6001600160a01b0382166000818152609c6020908152604080832080546001019055848352609b90915280822080546001600160a01b0319168417905551839291907fddf252ad1be2c89b69c2b068fc378daa952ba7f163c4a11628f55a4df523b3ef908290a45050565b82805482825590600052602060002090601f01602090048101928215614b3b5791602002820160005b83821115614b0c57835183826101000a81548160ff02191690836007811115614aeb57614aeb6150bc565b02179055509260200192600101602081600001049283019260010302614ac0565b8015614b395782816101000a81549060ff0219169055600101602081600001049283019260010302614b0c565b505b50614b47929150614bc0565b5090565b82805482825590600052602060002090601f01602090048101928215614b3b5791602002820160005b83821115614b0c57835183826101000a81548160ff02191690836007811115614b9f57614b9f6150bc565b02179055509260200192600101602081600001049283019260010302614b74565b5b80821115614b475760008155600101614bc1565b6001600160e01b0319811681146130a257600080fd5b600060208284031215614bfd57600080fd5b81356130d681614bd5565b634e487b7160e01b600052604160045260246000fd5b604080519081016001600160401b0381118282101715614c4057614c40614c08565b60405290565b604051606081016001600160401b0381118282101715614c4057614c40614c08565b60405161016081016001600160401b0381118282101715614c4057614c40614c08565b604051601f8201601f191681016001600160401b0381118282101715614cb357614cb3614c08565b604052919050565b60006001600160401b03821115614cd457614cd4614c08565b5060051b60200190565b6000806040808486031215614cf257600080fd5b833592506020808501356001600160401b03811115614d1057600080fd5b8501601f81018713614d2157600080fd5b8035614d34614d2f82614cbb565b614c8b565b81815260069190911b82018301908381019089831115614d5357600080fd5b928401925b82841015614d935785848b031215614d705760008081fd5b614d78614c1e565b84358152858501358682015282529285019290840190614d58565b8096505050505050509250929050565b60008060408385031215614db657600080fd5b50508035926020909101359150565b60005b83811015614de0578181015183820152602001614dc8565b50506000910152565b60008151808452614e01816020860160208601614dc5565b601f01601f19169290920160200192915050565b6020815260006130d66020830184614de9565b600060208284031215614e3a57600080fd5b5035919050565b6001600160a01b03811681146130a257600080fd5b60008060408385031215614e6957600080fd5b8235614e7481614e41565b946020939093013593505050565b600060208284031215614e9457600080fd5b81356130d681614e41565b600080600060608486031215614eb457600080fd5b8335614ebf81614e41565b92506020840135614ecf81614e41565b929592945050506040919091013590565b600082601f830112614ef157600080fd5b81356001600160401b03811115614f0a57614f0a614c08565b614f1d601f8201601f1916602001614c8b565b818152846020838601011115614f3257600080fd5b816020850160208301376000918101602001919091529392505050565b600082601f830112614f6057600080fd5b81356020614f70614d2f83614cbb565b82815260059290921b84018101918181019086841115614f8f57600080fd5b8286015b84811015614fce5780356001600160401b03811115614fb25760008081fd5b614fc08986838b0101614ee0565b845250918301918301614f93565b509695505050505050565b60008060408385031215614fec57600080fd5b8235915060208301356001600160401b0381111561500957600080fd5b61501585828601614f4f565b9150509250929050565b600080600080600060a0868803121561503757600080fd5b853561504281614e41565b945060208601356001600160401b038082111561505e57600080fd5b61506a89838a01614ee0565b9550604088013591508082111561508057600080fd5b5061508d88828901614ee0565b935050606086013561509e81614e41565b915060808601356150ae81614e41565b809150509295509295909350565b634e487b7160e01b600052602160045260246000fd5b600881106150f057634e487b7160e01b600052602160045260246000fd5b9052565b60006102208201905088825287516020830152602088015160408301526040880151606083015260608801516080830152608088015160a083015260a088015160c083015260c088015160e083015260e08801516101008181850152808a01519150506101206151678185018315159052565b890151610140848101919091528901516101608401525061018082018790526001600160a01b0386166101a0830152846101c08301526151b36101e08301856001600160a01b03169052565b6137506102008301846150d2565b80151581146130a257600080fd5b80356151da816151c1565b919050565b600080604083850312156151f257600080fd5b82356151fd81614e41565b9150602083013561520d816151c1565b809150509250929050565b6000806000806080858703121561522e57600080fd5b843561523981614e41565b9350602085013561524981614e41565b92506040850135915060608501356001600160401b0381111561526b57600080fd5b61527787828801614ee0565b91505092959194509250565b600082601f83011261529457600080fd5b813560206152a4614d2f83614cbb565b828152606092830285018201928282019190878511156152c357600080fd5b8387015b858110156153135781818a0312156152df5760008081fd5b6152e7614c46565b81358152858201358682015260408083013561530281614e41565b9082015284529284019281016152c7565b5090979650505050505050565b60008060008060008587036101e081121561533a57600080fd5b6101608082121561534a57600080fd5b615352614c68565b9150873582526020880135602083015260408801356040830152606088013560608301526080880135608083015260a088013560a083015260c088013560c083015260e088013560e08301526101006153ac818a016151cf565b90830152610120888101359083015261014080890135908301529095508601356001600160401b03808211156153e157600080fd5b6153ed89838a01615283565b955061018088013594506101a088013593506101c088013591508082111561541457600080fd5b5061542188828901614f4f565b9150509295509295909350565b6000806040838503121561544157600080fd5b823561544c81614e41565b9150602083013561520d81614e41565b634e487b7160e01b600052603260045260246000fd5b634e487b7160e01b600052601160045260246000fd5b60006001820161549a5761549a615472565b5060010190565b6000602082840312156154b357600080fd5b5051919050565b6000602082840312156154cc57600080fd5b81516130d6816151c1565b600060a082840312156154e957600080fd5b60405160a081018181106001600160401b038211171561550b5761550b614c08565b80604052508251815260208301516020820152604083015161552c81614e41565b6040820152606083015161553f816151c1565b6060820152608083015161555281614e41565b60808201529392505050565b8381526060810161557260208301856150d2565b6001600160a01b03929092166040919091015292915050565b600181811c9082168061559f57607f821691505b6020821081036155bf57634e487b7160e01b600052602260045260246000fd5b50919050565b6000602082840312156155d757600080fd5b81516130d681614e41565b6020808252602d908201527f4552433732313a2063616c6c6572206973206e6f7420746f6b656e206f776e6560408201526c1c881bdc88185c1c1c9bdd9959609a1b606082015260800190565b8082018082111561062f5761062f615472565b8181038181111561062f5761062f615472565b60208082526025908201527f4552433732313a207472616e736665722066726f6d20696e636f72726563742060408201526437bbb732b960d91b606082015260800190565b8281526040602082015260006133d86040830184614de9565b600082516156c5818460208701614dc5565b9190910192915050565b6020808252602b908201527f496e697469616c697a61626c653a20636f6e7472616374206973206e6f74206960408201526a6e697469616c697a696e6760a81b606082015260800190565b60208082526032908201527f4552433732313a207472616e7366657220746f206e6f6e20455243373231526560408201527131b2b4bb32b91034b6b83632b6b2b73a32b960711b606082015260800190565b815160009082906020808601845b838110156157965781518552938201939082019060010161577a565b50929695505050505050565b808202811582820484141761062f5761062f615472565b6000826157d657634e487b7160e01b600052601260045260246000fd5b500490565b6001600160a01b038581168252841660208201526040810183905260806060820181905260009061580e90830184614de9565b9695505050505050565b60006020828403121561582a57600080fd5b81516130d681614bd5565b601f82111561194f57600081815260208120601f850160051c8101602086101561585c5750805b601f850160051c820191505b8181101561214e57828155600101615868565b81516001600160401b0381111561589457615894614c08565b6158a8816158a2845461558b565b84615835565b602080601f8311600181146158dd57600084156158c55750858301515b600019600386901b1c1916600185901b17855561214e565b600085815260208120601f198616915b8281101561590c578886015182559484019460019091019084016158ed565b508582101561592a5787850151600019600388901b60f8161c191681555b5050505050600190811b01905550565b634e487b7160e01b600052603160045260246000fdfe9249b5b023ae28b94b85dd92d6432cec63267a9d5c52f82a83da2f987b142cc9a264697066735822122065e58bc47c219f2a466d9848ffe681866cd01b1ef41e420d16231fb9137303ff64736f6c63430008130033",
  "devdoc": {
    "custom:security-contact": "security@windingtree.com",
    "details": "This contract enables the creation and management of deals",
    "errors": {
      "DealAlreadyCreated()": [
        {
          "details": "Thrown when Deal was created in the `_beforeCreate` hook"
        }
      ],
      "DealExists()": [
        {
          "details": "Thrown when a user attempts to create an already existing Deal"
        }
      ],
      "DealFundsTransferFailed()": [
        {
          "details": "Thrown when a Deal funds transfer is failed"
        }
      ],
      "DealNotFound()": [
        {
          "details": "Thrown when the Deal is not found"
        }
      ],
      "DisabledRetailer()": [
        {
          "details": "Thrown when the retailer is not enabled"
        }
      ],
      "DisabledSupplier()": [
        {
          "details": "Thrown when the supplier of the offer is not enabled"
        }
      ],
      "InvalidCancelOptions()": [
        {
          "details": "Thrown when a user attempts to cancel the deal using invalid cancellation options"
        }
      ],
      "InvalidOfferSignature()": [
        {
          "details": "Thrown when a user attempts to create a deal using an offer with an invalid signature"
        }
      ],
      "InvalidPaymentId()": [
        {
          "details": "Thrown when a user attempts to create a deal providing an invalid payment option Id"
        }
      ],
      "InvalidPaymentOptions()": [
        {
          "details": "Thrown when a user attempts to create a deal providing an invalid payment options"
        }
      ],
      "InvalidPercent()": [
        {
          "details": "Thrown when percents value greater than 100"
        }
      ],
      "InvalidRetailer()": [
        {
          "details": "Thrown when the retailer of the offer is not found"
        }
      ],
      "NotAllowedAuth()": [
        {
          "details": "Thrown when a function call is not allowed for current user"
        }
      ],
      "NotAllowedStatus()": [
        {
          "details": "Thrown when a user attempts to claim the deal in non-created status"
        }
      ],
      "NotAllowedTime()": [
        {
          "details": "Thrown when a user attempts to do something that not allowed at a moment"
        }
      ]
    },
    "events": {
      "Approval(address,address,uint256)": {
        "details": "Emitted when `owner` enables `approved` to manage the `tokenId` token."
      },
      "ApprovalForAll(address,address,bool)": {
        "details": "Emitted when `owner` enables or disables (`approved`) `operator` to manage all of its assets."
      },
      "Initialized(uint8)": {
        "details": "Triggered when the contract has been initialized or reinitialized."
      },
      "Paused(address)": {
        "details": "Emitted when the pause is triggered by `account`."
      },
      "SetConfig(address,address)": {
        "details": "Emitted when updated an address of the protocol config contract"
      },
      "SetEntities(address,address)": {
        "details": "Emitted when updated an address of the Entities registry contract"
      },
      "Status(bytes32,uint8,address)": {
        "details": "Emitted when a Deal status is updated"
      },
      "Transfer(address,address,uint256)": {
        "details": "Emitted when `tokenId` token is transferred from `from` to `to`."
      },
      "Unpaused(address)": {
        "details": "Emitted when the pause is lifted by `account`."
      }
    },
    "kind": "dev",
    "methods": {
      "approve(address,uint256)": {
        "details": "See {IERC721-approve}."
      },
      "balanceOf(address)": {
        "details": "See {IERC721-balanceOf}."
      },
      "cancel(bytes32,(uint256,uint256)[])": {
        "details": "Cancels the deal",
        "params": {
          "_cancelOptions": "Cancellation options from offer Requirements: - the deal must exists - the deal must be in status DealStatus.Created or DealStatus.Claimed - must be called by buyer - if the deal in DealStatus.Claimed status:   - if block.timestamp > checkIn time then zero refund   - cancellation rules must follow the rules defined by offer",
          "offerId": "The deal offer Id"
        }
      },
      "checkIn(bytes32,bytes[])": {
        "details": "Checks in the deal",
        "params": {
          "offerId": "The deal offer Id",
          "signs": "Signatures Requirements: - the deal must exists - the deal must be in status DealStatus.Claimed - must be called by the supplier's signer or buyer's address - if called by the supplier's signer:   - a valid signature of suppliers's signer must be provided in signs[0]   - if before sign-in time: a valid signature of the buyer must be provided in signs[1] - if called buy buyer:   - a valid signature of the buyer must be provided in signs[0]   - a valid signature of suppliers's signer must be provided in signs[1]"
        }
      },
      "checkOut(bytes32)": {
        "details": "Checks out the deal and sends funds to the supplier",
        "params": {
          "offerId": "The deal offer Id Requirements: - the deal must exists - must be called by the supplier's signer only - the deal must be in status DealStatus.CheckIn - must be called after checkOut time only"
        }
      },
      "claim(bytes32)": {
        "details": "Claims the deal",
        "params": {
          "offerId": "The deal offer Id Requirements: - the deal must exists - the deal must be in status DealStatus.Created - must be called by the signer address of the deal offer supplier"
        }
      },
      "constructor": {
        "custom:oz-upgrades-unsafe-allow": "constructor"
      },
      "deal((bytes32,uint256,bytes32,uint256,bytes32,bytes32,bytes32,bytes32,bool,uint256,uint256),(bytes32,uint256,address)[],bytes32,bytes32,bytes[])": {
        "details": "Creates a Deal on a base of an offer",
        "params": {
          "offer": "An offer payload",
          "paymentId": "Payment option Id",
          "paymentOptions": "Raw offered payment options array",
          "retailerId": "Retailer Id",
          "signs": "Signatures: [0] - offer: ECDSA/ERC1271; [1] - asset permit: ECDSA (optional) Requirements: - supplier of the offer must be registered - offer must be signed with a proper signer - the deal should not be created before - the deal should not be created inside the _before hook - payment options must be valid (equal to those from the offer) - payment Id must exists in payment options - the contract must be able to make transfer of funds NOTE: `permit` signature can be ECDSA of type only"
        }
      },
      "getApproved(uint256)": {
        "details": "See {IERC721-getApproved}."
      },
      "initialize(address,string,string,address,address)": {
        "details": "Initializes the Market contract with the given arguments",
        "params": {
          "_config": "The protocol config contract address",
          "_entities": "Entities registry contract address",
          "_name": "The name of the contract",
          "_owner": "The owner of the contract",
          "_version": "The version of the contract"
        }
      },
      "isApprovedForAll(address,address)": {
        "details": "See {IERC721-isApprovedForAll}."
      },
      "name()": {
        "details": "See {IERC721Metadata-name}."
      },
      "owner()": {
        "details": "Returns the address of the current owner."
      },
      "ownerOf(uint256)": {
        "details": "See {IERC721-ownerOf}."
      },
      "pause()": {
        "details": "Pauses the contract"
      },
      "paused()": {
        "details": "Returns true if the contract is paused, and false otherwise."
      },
      "refund(bytes32)": {
        "details": "Refunds the deal",
        "params": {
          "offerId": "The deal offer Id Requirements: - the deal must exists - the deal must be in status DealStatus.CheckedIn - must be called by the signer address of the deal offer supplier"
        }
      },
      "reject(bytes32,bytes32)": {
        "details": "Rejects the deal",
        "params": {
          "offerId": "The deal offer Id",
          "reason": "Rejection reason Requirements: - the deal must exists - the deal must be in status DealStatus.Created - must be called by the signer address of the deal offer supplier"
        }
      },
      "renounceOwnership()": {
        "details": "Leaves the contract without owner. It will not be possible to call `onlyOwner` functions anymore. Can only be called by the current owner. NOTE: Renouncing ownership will leave the contract without an owner, thereby removing any functionality that is only available to the owner."
      },
      "resolveTokenId(uint256)": {
        "details": "Returns offerId linked to the token",
        "params": {
          "tokenId": "The ID of the token"
        },
        "returns": {
          "offerId": "The ID of the offer linked to the token"
        }
      },
      "safeTransferFrom(address,address,uint256)": {
        "details": "See {IERC721-safeTransferFrom}."
      },
      "safeTransferFrom(address,address,uint256,bytes)": {
        "details": "See {IERC721-safeTransferFrom}."
      },
      "setApprovalForAll(address,bool)": {
        "details": "See {IERC721-setApprovalForAll}."
      },
      "setConfig(address)": {
        "details": "Sets the new address of the protocol config contract address",
        "params": {
          "_config": "The new protocol config contract address"
        }
      },
      "setEntities(address)": {
        "details": "Sets the new address of the entities registry",
        "params": {
          "_entities": "The new protocol config contract address"
        }
      },
      "supportsInterface(bytes4)": {
        "details": "See {IERC165-supportsInterface}."
      },
      "symbol()": {
        "details": "See {IERC721Metadata-symbol}."
      },
      "tokenByIndex(uint256)": {
        "details": "See {IERC721Enumerable-tokenByIndex}."
      },
      "tokenOfOwnerByIndex(address,uint256)": {
        "details": "See {IERC721Enumerable-tokenOfOwnerByIndex}."
      },
      "tokenURI(uint256)": {
        "details": "Returns the token URI of the given token ID",
        "params": {
          "tokenId": "The ID of the token"
        },
        "returns": {
          "_0": "The token URI of the given token ID"
        }
      },
      "totalSupply()": {
        "details": "See {IERC721Enumerable-totalSupply}."
      },
      "transferFrom(address,address,uint256)": {
        "details": "See {IERC721-transferFrom}."
      },
      "transferOwnership(address)": {
        "details": "Transfers ownership of the contract to a new account (`newOwner`). Can only be called by the current owner."
      },
      "unpause()": {
        "details": "Unpauses the contract"
      }
    },
    "stateVariables": {
      "offerTokens": {
        "details": "Mapping of offer Id on token Id"
      },
      "tokenOffers": {
        "details": "Mapping of token Id on offer Id"
      }
    },
    "title": "Market",
    "version": 1
  },
  "userdoc": {
    "errors": {
      "TokenTransferNotAllowed()": [
        {
          "notice": "Throws when NFT transfer is not allowed by offer rule"
        }
      ]
    },
    "kind": "user",
    "methods": {},
    "version": 1
  },
  "storageLayout": {
    "storage": [
      {
        "astId": 152,
        "contract": "contracts/Market.sol:Market",
        "label": "_initialized",
        "offset": 0,
        "slot": "0",
        "type": "t_uint8"
      },
      {
        "astId": 155,
        "contract": "contracts/Market.sol:Market",
        "label": "_initializing",
        "offset": 1,
        "slot": "0",
        "type": "t_bool"
      },
      {
        "astId": 3910,
        "contract": "contracts/Market.sol:Market",
        "label": "_HASHED_NAME",
        "offset": 0,
        "slot": "1",
        "type": "t_bytes32"
      },
      {
        "astId": 3912,
        "contract": "contracts/Market.sol:Market",
        "label": "_HASHED_VERSION",
        "offset": 0,
        "slot": "2",
        "type": "t_bytes32"
      },
      {
        "astId": 4050,
        "contract": "contracts/Market.sol:Market",
        "label": "__gap",
        "offset": 0,
        "slot": "3",
        "type": "t_array(t_uint256)50_storage"
      },
      {
        "astId": 3290,
        "contract": "contracts/Market.sol:Market",
        "label": "__gap",
        "offset": 0,
        "slot": "53",
        "type": "t_array(t_uint256)50_storage"
      },
      {
        "astId": 4177,
        "contract": "contracts/Market.sol:Market",
        "label": "__gap",
        "offset": 0,
        "slot": "103",
        "type": "t_array(t_uint256)50_storage"
      },
      {
        "astId": 1476,
        "contract": "contracts/Market.sol:Market",
        "label": "_name",
        "offset": 0,
        "slot": "153",
        "type": "t_string_storage"
      },
      {
        "astId": 1478,
        "contract": "contracts/Market.sol:Market",
        "label": "_symbol",
        "offset": 0,
        "slot": "154",
        "type": "t_string_storage"
      },
      {
        "astId": 1482,
        "contract": "contracts/Market.sol:Market",
        "label": "_owners",
        "offset": 0,
        "slot": "155",
        "type": "t_mapping(t_uint256,t_address)"
      },
      {
        "astId": 1486,
        "contract": "contracts/Market.sol:Market",
        "label": "_balances",
        "offset": 0,
        "slot": "156",
        "type": "t_mapping(t_address,t_uint256)"
      },
      {
        "astId": 1490,
        "contract": "contracts/Market.sol:Market",
        "label": "_tokenApprovals",
        "offset": 0,
        "slot": "157",
        "type": "t_mapping(t_uint256,t_address)"
      },
      {
        "astId": 1496,
        "contract": "contracts/Market.sol:Market",
        "label": "_operatorApprovals",
        "offset": 0,
        "slot": "158",
        "type": "t_mapping(t_address,t_mapping(t_address,t_bool))"
      },
      {
        "astId": 2398,
        "contract": "contracts/Market.sol:Market",
        "label": "__gap",
        "offset": 0,
        "slot": "159",
        "type": "t_array(t_uint256)44_storage"
      },
      {
        "astId": 2563,
        "contract": "contracts/Market.sol:Market",
        "label": "_ownedTokens",
        "offset": 0,
        "slot": "203",
        "type": "t_mapping(t_address,t_mapping(t_uint256,t_uint256))"
      },
      {
        "astId": 2567,
        "contract": "contracts/Market.sol:Market",
        "label": "_ownedTokensIndex",
        "offset": 0,
        "slot": "204",
        "type": "t_mapping(t_uint256,t_uint256)"
      },
      {
        "astId": 2570,
        "contract": "contracts/Market.sol:Market",
        "label": "_allTokens",
        "offset": 0,
        "slot": "205",
        "type": "t_array(t_uint256)dyn_storage"
      },
      {
        "astId": 2574,
        "contract": "contracts/Market.sol:Market",
        "label": "_allTokensIndex",
        "offset": 0,
        "slot": "206",
        "type": "t_mapping(t_uint256,t_uint256)"
      },
      {
        "astId": 2906,
        "contract": "contracts/Market.sol:Market",
        "label": "__gap",
        "offset": 0,
        "slot": "207",
        "type": "t_array(t_uint256)46_storage"
      },
      {
        "astId": 335,
        "contract": "contracts/Market.sol:Market",
        "label": "_paused",
        "offset": 0,
        "slot": "253",
        "type": "t_bool"
      },
      {
        "astId": 440,
        "contract": "contracts/Market.sol:Market",
        "label": "__gap",
        "offset": 0,
        "slot": "254",
        "type": "t_array(t_uint256)49_storage"
      },
      {
        "astId": 10,
        "contract": "contracts/Market.sol:Market",
        "label": "_owner",
        "offset": 0,
        "slot": "303",
        "type": "t_address"
      },
      {
        "astId": 130,
        "contract": "contracts/Market.sol:Market",
        "label": "__gap",
        "offset": 0,
        "slot": "304",
        "type": "t_array(t_uint256)49_storage"
      },
      {
        "astId": 7988,
        "contract": "contracts/Market.sol:Market",
        "label": "_tokenIdCounter",
        "offset": 0,
        "slot": "353",
        "type": "t_struct(Counter)3297_storage"
      },
      {
        "astId": 6319,
        "contract": "contracts/Market.sol:Market",
        "label": "config",
        "offset": 0,
        "slot": "354",
        "type": "t_address"
      },
      {
        "astId": 6322,
        "contract": "contracts/Market.sol:Market",
        "label": "entities",
        "offset": 0,
        "slot": "355",
        "type": "t_address"
      },
      {
        "astId": 6329,
        "contract": "contracts/Market.sol:Market",
        "label": "allowedStatuses",
        "offset": 0,
        "slot": "356",
        "type": "t_mapping(t_bytes32,t_array(t_enum(DealStatus)9369)dyn_storage)"
      },
      {
        "astId": 6335,
        "contract": "contracts/Market.sol:Market",
        "label": "deals",
        "offset": 0,
        "slot": "357",
        "type": "t_mapping(t_bytes32,t_struct(Deal)9386_storage)"
      },
      {
        "astId": 7962,
        "contract": "contracts/Market.sol:Market",
        "label": "__gap",
        "offset": 0,
        "slot": "358",
        "type": "t_array(t_uint256)50_storage"
      },
      {
        "astId": 8778,
        "contract": "contracts/Market.sol:Market",
        "label": "tokenOffers",
        "offset": 0,
        "slot": "408",
        "type": "t_mapping(t_uint256,t_bytes32)"
      },
      {
        "astId": 8783,
        "contract": "contracts/Market.sol:Market",
        "label": "offerTokens",
        "offset": 0,
        "slot": "409",
        "type": "t_mapping(t_bytes32,t_uint256)"
      },
      {
        "astId": 9106,
        "contract": "contracts/Market.sol:Market",
        "label": "__gap",
        "offset": 0,
        "slot": "410",
        "type": "t_array(t_uint256)50_storage"
      }
    ],
    "types": {
      "t_address": {
        "encoding": "inplace",
        "label": "address",
        "numberOfBytes": "20"
      },
      "t_array(t_enum(DealStatus)9369)dyn_storage": {
        "base": "t_enum(DealStatus)9369",
        "encoding": "dynamic_array",
        "label": "enum Utils.DealStatus[]",
        "numberOfBytes": "32"
      },
      "t_array(t_uint256)44_storage": {
        "base": "t_uint256",
        "encoding": "inplace",
        "label": "uint256[44]",
        "numberOfBytes": "1408"
      },
      "t_array(t_uint256)46_storage": {
        "base": "t_uint256",
        "encoding": "inplace",
        "label": "uint256[46]",
        "numberOfBytes": "1472"
      },
      "t_array(t_uint256)49_storage": {
        "base": "t_uint256",
        "encoding": "inplace",
        "label": "uint256[49]",
        "numberOfBytes": "1568"
      },
      "t_array(t_uint256)50_storage": {
        "base": "t_uint256",
        "encoding": "inplace",
        "label": "uint256[50]",
        "numberOfBytes": "1600"
      },
      "t_array(t_uint256)dyn_storage": {
        "base": "t_uint256",
        "encoding": "dynamic_array",
        "label": "uint256[]",
        "numberOfBytes": "32"
      },
      "t_bool": {
        "encoding": "inplace",
        "label": "bool",
        "numberOfBytes": "1"
      },
      "t_bytes32": {
        "encoding": "inplace",
        "label": "bytes32",
        "numberOfBytes": "32"
      },
      "t_enum(DealStatus)9369": {
        "encoding": "inplace",
        "label": "enum Utils.DealStatus",
        "numberOfBytes": "1"
      },
      "t_mapping(t_address,t_bool)": {
        "encoding": "mapping",
        "key": "t_address",
        "label": "mapping(address => bool)",
        "numberOfBytes": "32",
        "value": "t_bool"
      },
      "t_mapping(t_address,t_mapping(t_address,t_bool))": {
        "encoding": "mapping",
        "key": "t_address",
        "label": "mapping(address => mapping(address => bool))",
        "numberOfBytes": "32",
        "value": "t_mapping(t_address,t_bool)"
      },
      "t_mapping(t_address,t_mapping(t_uint256,t_uint256))": {
        "encoding": "mapping",
        "key": "t_address",
        "label": "mapping(address => mapping(uint256 => uint256))",
        "numberOfBytes": "32",
        "value": "t_mapping(t_uint256,t_uint256)"
      },
      "t_mapping(t_address,t_uint256)": {
        "encoding": "mapping",
        "key": "t_address",
        "label": "mapping(address => uint256)",
        "numberOfBytes": "32",
        "value": "t_uint256"
      },
      "t_mapping(t_bytes32,t_array(t_enum(DealStatus)9369)dyn_storage)": {
        "encoding": "mapping",
        "key": "t_bytes32",
        "label": "mapping(bytes32 => enum Utils.DealStatus[])",
        "numberOfBytes": "32",
        "value": "t_array(t_enum(DealStatus)9369)dyn_storage"
      },
      "t_mapping(t_bytes32,t_struct(Deal)9386_storage)": {
        "encoding": "mapping",
        "key": "t_bytes32",
        "label": "mapping(bytes32 => struct Utils.Deal)",
        "numberOfBytes": "32",
        "value": "t_struct(Deal)9386_storage"
      },
      "t_mapping(t_bytes32,t_uint256)": {
        "encoding": "mapping",
        "key": "t_bytes32",
        "label": "mapping(bytes32 => uint256)",
        "numberOfBytes": "32",
        "value": "t_uint256"
      },
      "t_mapping(t_uint256,t_address)": {
        "encoding": "mapping",
        "key": "t_uint256",
        "label": "mapping(uint256 => address)",
        "numberOfBytes": "32",
        "value": "t_address"
      },
      "t_mapping(t_uint256,t_bytes32)": {
        "encoding": "mapping",
        "key": "t_uint256",
        "label": "mapping(uint256 => bytes32)",
        "numberOfBytes": "32",
        "value": "t_bytes32"
      },
      "t_mapping(t_uint256,t_uint256)": {
        "encoding": "mapping",
        "key": "t_uint256",
        "label": "mapping(uint256 => uint256)",
        "numberOfBytes": "32",
        "value": "t_uint256"
      },
      "t_string_storage": {
        "encoding": "bytes",
        "label": "string",
        "numberOfBytes": "32"
      },
      "t_struct(Counter)3297_storage": {
        "encoding": "inplace",
        "label": "struct CountersUpgradeable.Counter",
        "members": [
          {
            "astId": 3296,
            "contract": "contracts/Market.sol:Market",
            "label": "_value",
            "offset": 0,
            "slot": "0",
            "type": "t_uint256"
          }
        ],
        "numberOfBytes": "32"
      },
      "t_struct(Deal)9386_storage": {
        "encoding": "inplace",
        "label": "struct Utils.Deal",
        "members": [
          {
            "astId": 9371,
            "contract": "contracts/Market.sol:Market",
            "label": "created",
            "offset": 0,
            "slot": "0",
            "type": "t_uint256"
          },
          {
            "astId": 9374,
            "contract": "contracts/Market.sol:Market",
            "label": "offer",
            "offset": 0,
            "slot": "1",
            "type": "t_struct(Offer)9360_storage"
          },
          {
            "astId": 9376,
            "contract": "contracts/Market.sol:Market",
            "label": "retailerId",
            "offset": 0,
            "slot": "12",
            "type": "t_bytes32"
          },
          {
            "astId": 9378,
            "contract": "contracts/Market.sol:Market",
            "label": "buyer",
            "offset": 0,
            "slot": "13",
            "type": "t_address"
          },
          {
            "astId": 9380,
            "contract": "contracts/Market.sol:Market",
            "label": "price",
            "offset": 0,
            "slot": "14",
            "type": "t_uint256"
          },
          {
            "astId": 9382,
            "contract": "contracts/Market.sol:Market",
            "label": "asset",
            "offset": 0,
            "slot": "15",
            "type": "t_address"
          },
          {
            "astId": 9385,
            "contract": "contracts/Market.sol:Market",
            "label": "status",
            "offset": 20,
            "slot": "15",
            "type": "t_enum(DealStatus)9369"
          }
        ],
        "numberOfBytes": "512"
      },
      "t_struct(Offer)9360_storage": {
        "encoding": "inplace",
        "label": "struct Utils.Offer",
        "members": [
          {
            "astId": 9339,
            "contract": "contracts/Market.sol:Market",
            "label": "id",
            "offset": 0,
            "slot": "0",
            "type": "t_bytes32"
          },
          {
            "astId": 9341,
            "contract": "contracts/Market.sol:Market",
            "label": "expire",
            "offset": 0,
            "slot": "1",
            "type": "t_uint256"
          },
          {
            "astId": 9343,
            "contract": "contracts/Market.sol:Market",
            "label": "supplierId",
            "offset": 0,
            "slot": "2",
            "type": "t_bytes32"
          },
          {
            "astId": 9345,
            "contract": "contracts/Market.sol:Market",
            "label": "chainId",
            "offset": 0,
            "slot": "3",
            "type": "t_uint256"
          },
          {
            "astId": 9347,
            "contract": "contracts/Market.sol:Market",
            "label": "requestHash",
            "offset": 0,
            "slot": "4",
            "type": "t_bytes32"
          },
          {
            "astId": 9349,
            "contract": "contracts/Market.sol:Market",
            "label": "optionsHash",
            "offset": 0,
            "slot": "5",
            "type": "t_bytes32"
          },
          {
            "astId": 9351,
            "contract": "contracts/Market.sol:Market",
            "label": "paymentHash",
            "offset": 0,
            "slot": "6",
            "type": "t_bytes32"
          },
          {
            "astId": 9353,
            "contract": "contracts/Market.sol:Market",
            "label": "cancelHash",
            "offset": 0,
            "slot": "7",
            "type": "t_bytes32"
          },
          {
            "astId": 9355,
            "contract": "contracts/Market.sol:Market",
            "label": "transferable",
            "offset": 0,
            "slot": "8",
            "type": "t_bool"
          },
          {
            "astId": 9357,
            "contract": "contracts/Market.sol:Market",
            "label": "checkIn",
            "offset": 0,
            "slot": "9",
            "type": "t_uint256"
          },
          {
            "astId": 9359,
            "contract": "contracts/Market.sol:Market",
            "label": "checkOut",
            "offset": 0,
            "slot": "10",
            "type": "t_uint256"
          }
        ],
        "numberOfBytes": "352"
      },
      "t_uint256": {
        "encoding": "inplace",
        "label": "uint256",
        "numberOfBytes": "32"
      },
      "t_uint8": {
        "encoding": "inplace",
        "label": "uint8",
        "numberOfBytes": "1"
      }
    }
  }
}