{
  "_format": "hh-sol-artifact-1",
  "contractName": "Market",
  "sourceName": "contracts/Market.sol",
  "abi": [
    {
      "inputs": [],
      "stateMutability": "nonpayable",
      "type": "constructor"
    },
    {
      "anonymous": false,
      "inputs": [
        {
          "indexed": true,
          "internalType": "address",
          "name": "account",
          "type": "address"
        },
        {
          "indexed": true,
          "internalType": "address",
          "name": "operator",
          "type": "address"
        },
        {
          "indexed": false,
          "internalType": "bool",
          "name": "approved",
          "type": "bool"
        }
      ],
      "name": "ApprovalForAll",
      "type": "event"
    },
    {
      "anonymous": false,
      "inputs": [
        {
          "indexed": false,
          "internalType": "uint8",
          "name": "version",
          "type": "uint8"
        }
      ],
      "name": "Initialized",
      "type": "event"
    },
    {
      "anonymous": false,
      "inputs": [
        {
          "indexed": true,
          "internalType": "address",
          "name": "previousOwner",
          "type": "address"
        },
        {
          "indexed": true,
          "internalType": "address",
          "name": "newOwner",
          "type": "address"
        }
      ],
      "name": "OwnershipTransferred",
      "type": "event"
    },
    {
      "anonymous": false,
      "inputs": [
        {
          "indexed": false,
          "internalType": "address",
          "name": "account",
          "type": "address"
        }
      ],
      "name": "Paused",
      "type": "event"
    },
    {
      "anonymous": false,
      "inputs": [
        {
          "indexed": true,
          "internalType": "address",
          "name": "operator",
          "type": "address"
        },
        {
          "indexed": true,
          "internalType": "address",
          "name": "from",
          "type": "address"
        },
        {
          "indexed": true,
          "internalType": "address",
          "name": "to",
          "type": "address"
        },
        {
          "indexed": false,
          "internalType": "uint256[]",
          "name": "ids",
          "type": "uint256[]"
        },
        {
          "indexed": false,
          "internalType": "uint256[]",
          "name": "values",
          "type": "uint256[]"
        }
      ],
      "name": "TransferBatch",
      "type": "event"
    },
    {
      "anonymous": false,
      "inputs": [
        {
          "indexed": true,
          "internalType": "address",
          "name": "operator",
          "type": "address"
        },
        {
          "indexed": true,
          "internalType": "address",
          "name": "from",
          "type": "address"
        },
        {
          "indexed": true,
          "internalType": "address",
          "name": "to",
          "type": "address"
        },
        {
          "indexed": false,
          "internalType": "uint256",
          "name": "id",
          "type": "uint256"
        },
        {
          "indexed": false,
          "internalType": "uint256",
          "name": "value",
          "type": "uint256"
        }
      ],
      "name": "TransferSingle",
      "type": "event"
    },
    {
      "anonymous": false,
      "inputs": [
        {
          "indexed": false,
          "internalType": "string",
          "name": "value",
          "type": "string"
        },
        {
          "indexed": true,
          "internalType": "uint256",
          "name": "id",
          "type": "uint256"
        }
      ],
      "name": "URI",
      "type": "event"
    },
    {
      "anonymous": false,
      "inputs": [
        {
          "indexed": false,
          "internalType": "address",
          "name": "account",
          "type": "address"
        }
      ],
      "name": "Unpaused",
      "type": "event"
    },
    {
      "inputs": [
        {
          "internalType": "address",
          "name": "account",
          "type": "address"
        },
        {
          "internalType": "uint256",
          "name": "id",
          "type": "uint256"
        }
      ],
      "name": "balanceOf",
      "outputs": [
        {
          "internalType": "uint256",
          "name": "",
          "type": "uint256"
        }
      ],
      "stateMutability": "view",
      "type": "function"
    },
    {
      "inputs": [
        {
          "internalType": "address[]",
          "name": "accounts",
          "type": "address[]"
        },
        {
          "internalType": "uint256[]",
          "name": "ids",
          "type": "uint256[]"
        }
      ],
      "name": "balanceOfBatch",
      "outputs": [
        {
          "internalType": "uint256[]",
          "name": "",
          "type": "uint256[]"
        }
      ],
      "stateMutability": "view",
      "type": "function"
    },
    {
      "inputs": [
        {
          "internalType": "uint256",
          "name": "id",
          "type": "uint256"
        }
      ],
      "name": "exists",
      "outputs": [
        {
          "internalType": "bool",
          "name": "",
          "type": "bool"
        }
      ],
      "stateMutability": "view",
      "type": "function"
    },
    {
      "inputs": [],
      "name": "initialize",
      "outputs": [],
      "stateMutability": "nonpayable",
      "type": "function"
    },
    {
      "inputs": [
        {
          "internalType": "address",
          "name": "account",
          "type": "address"
        },
        {
          "internalType": "address",
          "name": "operator",
          "type": "address"
        }
      ],
      "name": "isApprovedForAll",
      "outputs": [
        {
          "internalType": "bool",
          "name": "",
          "type": "bool"
        }
      ],
      "stateMutability": "view",
      "type": "function"
    },
    {
      "inputs": [],
      "name": "owner",
      "outputs": [
        {
          "internalType": "address",
          "name": "",
          "type": "address"
        }
      ],
      "stateMutability": "view",
      "type": "function"
    },
    {
      "inputs": [],
      "name": "pause",
      "outputs": [],
      "stateMutability": "nonpayable",
      "type": "function"
    },
    {
      "inputs": [],
      "name": "paused",
      "outputs": [
        {
          "internalType": "bool",
          "name": "",
          "type": "bool"
        }
      ],
      "stateMutability": "view",
      "type": "function"
    },
    {
      "inputs": [],
      "name": "renounceOwnership",
      "outputs": [],
      "stateMutability": "nonpayable",
      "type": "function"
    },
    {
      "inputs": [
        {
          "internalType": "address",
          "name": "from",
          "type": "address"
        },
        {
          "internalType": "address",
          "name": "to",
          "type": "address"
        },
        {
          "internalType": "uint256[]",
          "name": "ids",
          "type": "uint256[]"
        },
        {
          "internalType": "uint256[]",
          "name": "amounts",
          "type": "uint256[]"
        },
        {
          "internalType": "bytes",
          "name": "data",
          "type": "bytes"
        }
      ],
      "name": "safeBatchTransferFrom",
      "outputs": [],
      "stateMutability": "nonpayable",
      "type": "function"
    },
    {
      "inputs": [
        {
          "internalType": "address",
          "name": "from",
          "type": "address"
        },
        {
          "internalType": "address",
          "name": "to",
          "type": "address"
        },
        {
          "internalType": "uint256",
          "name": "id",
          "type": "uint256"
        },
        {
          "internalType": "uint256",
          "name": "amount",
          "type": "uint256"
        },
        {
          "internalType": "bytes",
          "name": "data",
          "type": "bytes"
        }
      ],
      "name": "safeTransferFrom",
      "outputs": [],
      "stateMutability": "nonpayable",
      "type": "function"
    },
    {
      "inputs": [
        {
          "internalType": "address",
          "name": "operator",
          "type": "address"
        },
        {
          "internalType": "bool",
          "name": "approved",
          "type": "bool"
        }
      ],
      "name": "setApprovalForAll",
      "outputs": [],
      "stateMutability": "nonpayable",
      "type": "function"
    },
    {
      "inputs": [
        {
          "internalType": "bytes4",
          "name": "interfaceId",
          "type": "bytes4"
        }
      ],
      "name": "supportsInterface",
      "outputs": [
        {
          "internalType": "bool",
          "name": "",
          "type": "bool"
        }
      ],
      "stateMutability": "view",
      "type": "function"
    },
    {
      "inputs": [
        {
          "internalType": "uint256",
          "name": "id",
          "type": "uint256"
        }
      ],
      "name": "totalSupply",
      "outputs": [
        {
          "internalType": "uint256",
          "name": "",
          "type": "uint256"
        }
      ],
      "stateMutability": "view",
      "type": "function"
    },
    {
      "inputs": [
        {
          "internalType": "address",
          "name": "newOwner",
          "type": "address"
        }
      ],
      "name": "transferOwnership",
      "outputs": [],
      "stateMutability": "nonpayable",
      "type": "function"
    },
    {
      "inputs": [],
      "name": "unpause",
      "outputs": [],
      "stateMutability": "nonpayable",
      "type": "function"
    },
    {
      "inputs": [
        {
          "internalType": "uint256",
          "name": "id",
          "type": "uint256"
        }
      ],
      "name": "uri",
      "outputs": [
        {
          "internalType": "string",
          "name": "",
          "type": "string"
        }
      ],
      "stateMutability": "view",
      "type": "function"
    }
  ],
  "bytecode": "0x60806040523480156200001157600080fd5b50620000226200003860201b60201c565b620000326200003860201b60201c565b620001e3565b600060019054906101000a900460ff16156200008b576040517f08c379a0000000000000000000000000000000000000000000000000000000008152600401620000829062000186565b60405180910390fd5b60ff801660008054906101000a900460ff1660ff161015620000fd5760ff6000806101000a81548160ff021916908360ff1602179055507f7f26b83ff96e1f2b6a682f133852f6798a09c465da95921460cefb384740249860ff604051620000f49190620001c6565b60405180910390a15b565b600082825260208201905092915050565b7f496e697469616c697a61626c653a20636f6e747261637420697320696e69746960008201527f616c697a696e6700000000000000000000000000000000000000000000000000602082015250565b60006200016e602783620000ff565b91506200017b8262000110565b604082019050919050565b60006020820190508181036000830152620001a1816200015f565b9050919050565b600060ff82169050919050565b620001c081620001a8565b82525050565b6000602082019050620001dd6000830184620001b5565b92915050565b61373780620001f36000396000f3fe608060405234801561001057600080fd5b506004361061010a5760003560e01c8063715018a6116100a2578063a22cb46511610071578063a22cb4651461027f578063bd85b0391461029b578063e985e9c5146102cb578063f242432a146102fb578063f2fde38b146103175761010a565b8063715018a6146102435780638129fc1c1461024d5780638456cb59146102575780638da5cb5b146102615761010a565b80633f4ba83a116100de5780633f4ba83a146101bb5780634e1273f4146101c55780634f558e79146101f55780635c975abb146102255761010a565b8062fdd58e1461010f57806301ffc9a71461013f5780630e89341c1461016f5780632eb2c2d61461019f575b600080fd5b61012960048036038101906101249190611f3b565b610333565b6040516101369190611f8a565b60405180910390f35b61015960048036038101906101549190611ffd565b6103fc565b6040516101669190612045565b60405180910390f35b61018960048036038101906101849190612060565b6104de565b604051610196919061211d565b60405180910390f35b6101b960048036038101906101b4919061233c565b6104f7565b005b6101c3610598565b005b6101df60048036038101906101da91906124ce565b6105aa565b6040516101ec9190612604565b60405180910390f35b61020f600480360381019061020a9190612060565b6106c3565b60405161021c9190612045565b60405180910390f35b61022d6106d7565b60405161023a9190612045565b60405180910390f35b61024b6106ee565b005b610255610702565b005b61025f610840565b005b610269610852565b6040516102769190612635565b60405180910390f35b6102996004803603810190610294919061267c565b61087c565b005b6102b560048036038101906102b09190612060565b610892565b6040516102c29190611f8a565b60405180910390f35b6102e560048036038101906102e091906126bc565b6108af565b6040516102f29190612045565b60405180910390f35b610315600480360381019061031091906126fc565b610943565b005b610331600480360381019061032c9190612793565b6109e4565b005b60008073ffffffffffffffffffffffffffffffffffffffff168373ffffffffffffffffffffffffffffffffffffffff16036103a3576040517f08c379a000000000000000000000000000000000000000000000000000000000815260040161039a90612832565b60405180910390fd5b6065600083815260200190815260200160002060008473ffffffffffffffffffffffffffffffffffffffff1673ffffffffffffffffffffffffffffffffffffffff16815260200190815260200160002054905092915050565b60007fd9b67a26000000000000000000000000000000000000000000000000000000007bffffffffffffffffffffffffffffffffffffffffffffffffffffffff1916827bffffffffffffffffffffffffffffffffffffffffffffffffffffffff191614806104c757507f0e89341c000000000000000000000000000000000000000000000000000000007bffffffffffffffffffffffffffffffffffffffffffffffffffffffff1916827bffffffffffffffffffffffffffffffffffffffffffffffffffffffff1916145b806104d757506104d682610a67565b5b9050919050565b6060604051806020016040528060008152509050919050565b6104ff610ad1565b73ffffffffffffffffffffffffffffffffffffffff168573ffffffffffffffffffffffffffffffffffffffff16148061054557506105448561053f610ad1565b6108af565b5b610584576040517f08c379a000000000000000000000000000000000000000000000000000000000815260040161057b906128c4565b60405180910390fd5b6105918585858585610ad9565b5050505050565b6105a0610dfd565b6105a8610e7b565b565b606081518351146105f0576040517f08c379a00000000000000000000000000000000000000000000000000000000081526004016105e790612956565b60405180910390fd5b6000835167ffffffffffffffff81111561060d5761060c612144565b5b60405190808252806020026020018201604052801561063b5781602001602082028036833780820191505090505b50905060005b84518110156106b8576106888582815181106106605761065f612976565b5b602002602001015185838151811061067b5761067a612976565b5b6020026020010151610333565b82828151811061069b5761069a612976565b5b602002602001018181525050806106b1906129d4565b9050610641565b508091505092915050565b6000806106cf83610892565b119050919050565b600060c960009054906101000a900460ff16905090565b6106f6610dfd565b6107006000610ede565b565b60008060019054906101000a900460ff161590508080156107335750600160008054906101000a900460ff1660ff16105b80610760575061074230610fa4565b15801561075f5750600160008054906101000a900460ff1660ff16145b5b61079f576040517f08c379a000000000000000000000000000000000000000000000000000000000815260040161079690612a8e565b60405180910390fd5b60016000806101000a81548160ff021916908360ff16021790555080156107dc576001600060016101000a81548160ff0219169083151502179055505b6107e4610fc7565b801561083d5760008060016101000a81548160ff0219169083151502179055507f7f26b83ff96e1f2b6a682f133852f6798a09c465da95921460cefb384740249860016040516108349190612b00565b60405180910390a15b50565b610848610dfd565b610850611125565b565b6000609760009054906101000a900473ffffffffffffffffffffffffffffffffffffffff16905090565b61088e610887610ad1565b8383611188565b5050565b600060fb6000838152602001908152602001600020549050919050565b6000606660008473ffffffffffffffffffffffffffffffffffffffff1673ffffffffffffffffffffffffffffffffffffffff16815260200190815260200160002060008373ffffffffffffffffffffffffffffffffffffffff1673ffffffffffffffffffffffffffffffffffffffff16815260200190815260200160002060009054906101000a900460ff16905092915050565b61094b610ad1565b73ffffffffffffffffffffffffffffffffffffffff168573ffffffffffffffffffffffffffffffffffffffff16148061099157506109908561098b610ad1565b6108af565b5b6109d0576040517f08c379a00000000000000000000000000000000000000000000000000000000081526004016109c7906128c4565b60405180910390fd5b6109dd85858585856112f4565b5050505050565b6109ec610dfd565b600073ffffffffffffffffffffffffffffffffffffffff168173ffffffffffffffffffffffffffffffffffffffff1603610a5b576040517f08c379a0000000000000000000000000000000000000000000000000000000008152600401610a5290612b8d565b60405180910390fd5b610a6481610ede565b50565b60007f01ffc9a7000000000000000000000000000000000000000000000000000000007bffffffffffffffffffffffffffffffffffffffffffffffffffffffff1916827bffffffffffffffffffffffffffffffffffffffffffffffffffffffff1916149050919050565b600033905090565b8151835114610b1d576040517f08c379a0000000000000000000000000000000000000000000000000000000008152600401610b1490612c1f565b60405180910390fd5b600073ffffffffffffffffffffffffffffffffffffffff168473ffffffffffffffffffffffffffffffffffffffff1603610b8c576040517f08c379a0000000000000000000000000000000000000000000000000000000008152600401610b8390612cb1565b60405180910390fd5b6000610b96610ad1565b9050610ba6818787878787611592565b60005b8451811015610d5a576000858281518110610bc757610bc6612976565b5b602002602001015190506000858381518110610be657610be5612976565b5b6020026020010151905060006065600084815260200190815260200160002060008b73ffffffffffffffffffffffffffffffffffffffff1673ffffffffffffffffffffffffffffffffffffffff16815260200190815260200160002054905081811015610c88576040517f08c379a0000000000000000000000000000000000000000000000000000000008152600401610c7f90612d43565b60405180910390fd5b8181036065600085815260200190815260200160002060008c73ffffffffffffffffffffffffffffffffffffffff1673ffffffffffffffffffffffffffffffffffffffff16815260200190815260200160002081905550816065600085815260200190815260200160002060008b73ffffffffffffffffffffffffffffffffffffffff1673ffffffffffffffffffffffffffffffffffffffff1681526020019081526020016000206000828254610d3f9190612d63565b9250508190555050505080610d53906129d4565b9050610ba9565b508473ffffffffffffffffffffffffffffffffffffffff168673ffffffffffffffffffffffffffffffffffffffff168273ffffffffffffffffffffffffffffffffffffffff167f4a39dc06d4c0dbc64b70af90fd698a233a518aa5d07e595d983b8c0526c8f7fb8787604051610dd1929190612d97565b60405180910390a4610de78187878787876115b0565b610df58187878787876115b8565b505050505050565b610e05610ad1565b73ffffffffffffffffffffffffffffffffffffffff16610e23610852565b73ffffffffffffffffffffffffffffffffffffffff1614610e79576040517f08c379a0000000000000000000000000000000000000000000000000000000008152600401610e7090612e1a565b60405180910390fd5b565b610e8361178f565b600060c960006101000a81548160ff0219169083151502179055507f5db9ee0a495bf2e6ff9c91a7834c1ba4fdd244a5e8aa4e537bd38aeae4b073aa610ec7610ad1565b604051610ed49190612635565b60405180910390a1565b6000609760009054906101000a900473ffffffffffffffffffffffffffffffffffffffff16905081609760006101000a81548173ffffffffffffffffffffffffffffffffffffffff021916908373ffffffffffffffffffffffffffffffffffffffff1602179055508173ffffffffffffffffffffffffffffffffffffffff168173ffffffffffffffffffffffffffffffffffffffff167f8be0079c531659141344cd1fd0a4f28419497f9722a3daafe3b4186f6b6457e060405160405180910390a35050565b6000808273ffffffffffffffffffffffffffffffffffffffff163b119050919050565b60008060019054906101000a900460ff16159050808015610ff85750600160008054906101000a900460ff1660ff16105b80611025575061100730610fa4565b1580156110245750600160008054906101000a900460ff1660ff16145b5b611064576040517f08c379a000000000000000000000000000000000000000000000000000000000815260040161105b90612a8e565b60405180910390fd5b60016000806101000a81548160ff021916908360ff16021790555080156110a1576001600060016101000a81548160ff0219169083151502179055505b6110b9604051806020016040528060008152506117d8565b6110c1611833565b6110c961188c565b80156111225760008060016101000a81548160ff0219169083151502179055507f7f26b83ff96e1f2b6a682f133852f6798a09c465da95921460cefb384740249860016040516111199190612b00565b60405180910390a15b50565b61112d6118e5565b600160c960006101000a81548160ff0219169083151502179055507f62e78cea01bee320cd4e420270b5ea74000d11b0c9f74754ebdbfc544b05a258611171610ad1565b60405161117e9190612635565b60405180910390a1565b8173ffffffffffffffffffffffffffffffffffffffff168373ffffffffffffffffffffffffffffffffffffffff16036111f6576040517f08c379a00000000000000000000000000000000000000000000000000000000081526004016111ed90612eac565b60405180910390fd5b80606660008573ffffffffffffffffffffffffffffffffffffffff1673ffffffffffffffffffffffffffffffffffffffff16815260200190815260200160002060008473ffffffffffffffffffffffffffffffffffffffff1673ffffffffffffffffffffffffffffffffffffffff16815260200190815260200160002060006101000a81548160ff0219169083151502179055508173ffffffffffffffffffffffffffffffffffffffff168373ffffffffffffffffffffffffffffffffffffffff167f17307eab39ab6107e8899845ad3d59bd9653f200f220920489ca2b5937696c31836040516112e79190612045565b60405180910390a3505050565b600073ffffffffffffffffffffffffffffffffffffffff168473ffffffffffffffffffffffffffffffffffffffff1603611363576040517f08c379a000000000000000000000000000000000000000000000000000000000815260040161135a90612cb1565b60405180910390fd5b600061136d610ad1565b9050600061137a8561192f565b905060006113878561192f565b9050611397838989858589611592565b60006065600088815260200190815260200160002060008a73ffffffffffffffffffffffffffffffffffffffff1673ffffffffffffffffffffffffffffffffffffffff1681526020019081526020016000205490508581101561142f576040517f08c379a000000000000000000000000000000000000000000000000000000000815260040161142690612d43565b60405180910390fd5b8581036065600089815260200190815260200160002060008b73ffffffffffffffffffffffffffffffffffffffff1673ffffffffffffffffffffffffffffffffffffffff16815260200190815260200160002081905550856065600089815260200190815260200160002060008a73ffffffffffffffffffffffffffffffffffffffff1673ffffffffffffffffffffffffffffffffffffffff16815260200190815260200160002060008282546114e69190612d63565b925050819055508773ffffffffffffffffffffffffffffffffffffffff168973ffffffffffffffffffffffffffffffffffffffff168573ffffffffffffffffffffffffffffffffffffffff167fc3d58168c5ae7397731d063d5bbf3d657854427343f4c083240f7aacaa2d0f628a8a604051611563929190612ecc565b60405180910390a4611579848a8a86868a6115b0565b611587848a8a8a8a8a6119a9565b505050505050505050565b61159a6118e5565b6115a8868686868686611b80565b505050505050565b505050505050565b6115d78473ffffffffffffffffffffffffffffffffffffffff16610fa4565b15611787578373ffffffffffffffffffffffffffffffffffffffff1663bc197c8187878686866040518663ffffffff1660e01b815260040161161d959493929190612f4a565b6020604051808303816000875af192505050801561165957506040513d601f19601f820116820180604052508101906116569190612fc7565b60015b6116fe57611665613001565b806308c379a0036116c15750611679613023565b8061168457506116c3565b806040517f08c379a00000000000000000000000000000000000000000000000000000000081526004016116b8919061211d565b60405180910390fd5b505b6040517f08c379a00000000000000000000000000000000000000000000000000000000081526004016116f590613125565b60405180910390fd5b63bc197c8160e01b7bffffffffffffffffffffffffffffffffffffffffffffffffffffffff1916817bffffffffffffffffffffffffffffffffffffffffffffffffffffffff191614611785576040517f08c379a000000000000000000000000000000000000000000000000000000000815260040161177c906131b7565b60405180910390fd5b505b505050505050565b6117976106d7565b6117d6576040517f08c379a00000000000000000000000000000000000000000000000000000000081526004016117cd90613223565b60405180910390fd5b565b600060019054906101000a900460ff16611827576040517f08c379a000000000000000000000000000000000000000000000000000000000815260040161181e906132b5565b60405180910390fd5b61183081611d50565b50565b600060019054906101000a900460ff16611882576040517f08c379a0000000000000000000000000000000000000000000000000000000008152600401611879906132b5565b60405180910390fd5b61188a611dab565b565b600060019054906101000a900460ff166118db576040517f08c379a00000000000000000000000000000000000000000000000000000000081526004016118d2906132b5565b60405180910390fd5b6118e3611e0c565b565b6118ed6106d7565b1561192d576040517f08c379a000000000000000000000000000000000000000000000000000000000815260040161192490613321565b60405180910390fd5b565b60606000600167ffffffffffffffff81111561194e5761194d612144565b5b60405190808252806020026020018201604052801561197c5781602001602082028036833780820191505090505b509050828160008151811061199457611993612976565b5b60200260200101818152505080915050919050565b6119c88473ffffffffffffffffffffffffffffffffffffffff16610fa4565b15611b78578373ffffffffffffffffffffffffffffffffffffffff1663f23a6e6187878686866040518663ffffffff1660e01b8152600401611a0e959493929190613341565b6020604051808303816000875af1925050508015611a4a57506040513d601f19601f82011682018060405250810190611a479190612fc7565b60015b611aef57611a56613001565b806308c379a003611ab25750611a6a613023565b80611a755750611ab4565b806040517f08c379a0000000000000000000000000000000000000000000000000000000008152600401611aa9919061211d565b60405180910390fd5b505b6040517f08c379a0000000000000000000000000000000000000000000000000000000008152600401611ae690613125565b60405180910390fd5b63f23a6e6160e01b7bffffffffffffffffffffffffffffffffffffffffffffffffffffffff1916817bffffffffffffffffffffffffffffffffffffffffffffffffffffffff191614611b76576040517f08c379a0000000000000000000000000000000000000000000000000000000008152600401611b6d906131b7565b60405180910390fd5b505b505050505050565b611b8e868686868686611e78565b600073ffffffffffffffffffffffffffffffffffffffff168573ffffffffffffffffffffffffffffffffffffffff1603611c3f5760005b8351811015611c3d57828181518110611be157611be0612976565b5b602002602001015160fb6000868481518110611c0057611bff612976565b5b602002602001015181526020019081526020016000206000828254611c259190612d63565b9250508190555080611c36906129d4565b9050611bc5565b505b600073ffffffffffffffffffffffffffffffffffffffff168473ffffffffffffffffffffffffffffffffffffffff1603611d485760005b8351811015611d46576000848281518110611c9457611c93612976565b5b602002602001015190506000848381518110611cb357611cb2612976565b5b60200260200101519050600060fb600084815260200190815260200160002054905081811015611d18576040517f08c379a0000000000000000000000000000000000000000000000000000000008152600401611d0f9061340d565b60405180910390fd5b81810360fb60008581526020019081526020016000208190555050505080611d3f906129d4565b9050611c76565b505b505050505050565b600060019054906101000a900460ff16611d9f576040517f08c379a0000000000000000000000000000000000000000000000000000000008152600401611d96906132b5565b60405180910390fd5b611da881611e80565b50565b600060019054906101000a900460ff16611dfa576040517f08c379a0000000000000000000000000000000000000000000000000000000008152600401611df1906132b5565b60405180910390fd5b611e0a611e05610ad1565b610ede565b565b600060019054906101000a900460ff16611e5b576040517f08c379a0000000000000000000000000000000000000000000000000000000008152600401611e52906132b5565b60405180910390fd5b600060c960006101000a81548160ff021916908315150217905550565b505050505050565b8060679081611e8f919061362f565b5050565b6000604051905090565b600080fd5b600080fd5b600073ffffffffffffffffffffffffffffffffffffffff82169050919050565b6000611ed282611ea7565b9050919050565b611ee281611ec7565b8114611eed57600080fd5b50565b600081359050611eff81611ed9565b92915050565b6000819050919050565b611f1881611f05565b8114611f2357600080fd5b50565b600081359050611f3581611f0f565b92915050565b60008060408385031215611f5257611f51611e9d565b5b6000611f6085828601611ef0565b9250506020611f7185828601611f26565b9150509250929050565b611f8481611f05565b82525050565b6000602082019050611f9f6000830184611f7b565b92915050565b60007fffffffff0000000000000000000000000000000000000000000000000000000082169050919050565b611fda81611fa5565b8114611fe557600080fd5b50565b600081359050611ff781611fd1565b92915050565b60006020828403121561201357612012611e9d565b5b600061202184828501611fe8565b91505092915050565b60008115159050919050565b61203f8161202a565b82525050565b600060208201905061205a6000830184612036565b92915050565b60006020828403121561207657612075611e9d565b5b600061208484828501611f26565b91505092915050565b600081519050919050565b600082825260208201905092915050565b60005b838110156120c75780820151818401526020810190506120ac565b60008484015250505050565b6000601f19601f8301169050919050565b60006120ef8261208d565b6120f98185612098565b93506121098185602086016120a9565b612112816120d3565b840191505092915050565b6000602082019050818103600083015261213781846120e4565b905092915050565b600080fd5b7f4e487b7100000000000000000000000000000000000000000000000000000000600052604160045260246000fd5b61217c826120d3565b810181811067ffffffffffffffff8211171561219b5761219a612144565b5b80604052505050565b60006121ae611e93565b90506121ba8282612173565b919050565b600067ffffffffffffffff8211156121da576121d9612144565b5b602082029050602081019050919050565b600080fd5b60006122036121fe846121bf565b6121a4565b90508083825260208201905060208402830185811115612226576122256121eb565b5b835b8181101561224f578061223b8882611f26565b845260208401935050602081019050612228565b5050509392505050565b600082601f83011261226e5761226d61213f565b5b813561227e8482602086016121f0565b91505092915050565b600080fd5b600067ffffffffffffffff8211156122a7576122a6612144565b5b6122b0826120d3565b9050602081019050919050565b82818337600083830152505050565b60006122df6122da8461228c565b6121a4565b9050828152602081018484840111156122fb576122fa612287565b5b6123068482856122bd565b509392505050565b600082601f8301126123235761232261213f565b5b81356123338482602086016122cc565b91505092915050565b600080600080600060a0868803121561235857612357611e9d565b5b600061236688828901611ef0565b955050602061237788828901611ef0565b945050604086013567ffffffffffffffff81111561239857612397611ea2565b5b6123a488828901612259565b935050606086013567ffffffffffffffff8111156123c5576123c4611ea2565b5b6123d188828901612259565b925050608086013567ffffffffffffffff8111156123f2576123f1611ea2565b5b6123fe8882890161230e565b9150509295509295909350565b600067ffffffffffffffff82111561242657612425612144565b5b602082029050602081019050919050565b600061244a6124458461240b565b6121a4565b9050808382526020820190506020840283018581111561246d5761246c6121eb565b5b835b8181101561249657806124828882611ef0565b84526020840193505060208101905061246f565b5050509392505050565b600082601f8301126124b5576124b461213f565b5b81356124c5848260208601612437565b91505092915050565b600080604083850312156124e5576124e4611e9d565b5b600083013567ffffffffffffffff81111561250357612502611ea2565b5b61250f858286016124a0565b925050602083013567ffffffffffffffff8111156125305761252f611ea2565b5b61253c85828601612259565b9150509250929050565b600081519050919050565b600082825260208201905092915050565b6000819050602082019050919050565b61257b81611f05565b82525050565b600061258d8383612572565b60208301905092915050565b6000602082019050919050565b60006125b182612546565b6125bb8185612551565b93506125c683612562565b8060005b838110156125f75781516125de8882612581565b97506125e983612599565b9250506001810190506125ca565b5085935050505092915050565b6000602082019050818103600083015261261e81846125a6565b905092915050565b61262f81611ec7565b82525050565b600060208201905061264a6000830184612626565b92915050565b6126598161202a565b811461266457600080fd5b50565b60008135905061267681612650565b92915050565b6000806040838503121561269357612692611e9d565b5b60006126a185828601611ef0565b92505060206126b285828601612667565b9150509250929050565b600080604083850312156126d3576126d2611e9d565b5b60006126e185828601611ef0565b92505060206126f285828601611ef0565b9150509250929050565b600080600080600060a0868803121561271857612717611e9d565b5b600061272688828901611ef0565b955050602061273788828901611ef0565b945050604061274888828901611f26565b935050606061275988828901611f26565b925050608086013567ffffffffffffffff81111561277a57612779611ea2565b5b6127868882890161230e565b9150509295509295909350565b6000602082840312156127a9576127a8611e9d565b5b60006127b784828501611ef0565b91505092915050565b7f455243313135353a2061646472657373207a65726f206973206e6f742061207660008201527f616c6964206f776e657200000000000000000000000000000000000000000000602082015250565b600061281c602a83612098565b9150612827826127c0565b604082019050919050565b6000602082019050818103600083015261284b8161280f565b9050919050565b7f455243313135353a2063616c6c6572206973206e6f7420746f6b656e206f776e60008201527f6572206f7220617070726f766564000000000000000000000000000000000000602082015250565b60006128ae602e83612098565b91506128b982612852565b604082019050919050565b600060208201905081810360008301526128dd816128a1565b9050919050565b7f455243313135353a206163636f756e747320616e6420696473206c656e67746860008201527f206d69736d617463680000000000000000000000000000000000000000000000602082015250565b6000612940602983612098565b915061294b826128e4565b604082019050919050565b6000602082019050818103600083015261296f81612933565b9050919050565b7f4e487b7100000000000000000000000000000000000000000000000000000000600052603260045260246000fd5b7f4e487b7100000000000000000000000000000000000000000000000000000000600052601160045260246000fd5b60006129df82611f05565b91507fffffffffffffffffffffffffffffffffffffffffffffffffffffffffffffffff8203612a1157612a106129a5565b5b600182019050919050565b7f496e697469616c697a61626c653a20636f6e747261637420697320616c72656160008201527f647920696e697469616c697a6564000000000000000000000000000000000000602082015250565b6000612a78602e83612098565b9150612a8382612a1c565b604082019050919050565b60006020820190508181036000830152612aa781612a6b565b9050919050565b6000819050919050565b600060ff82169050919050565b6000819050919050565b6000612aea612ae5612ae084612aae565b612ac5565b612ab8565b9050919050565b612afa81612acf565b82525050565b6000602082019050612b156000830184612af1565b92915050565b7f4f776e61626c653a206e6577206f776e657220697320746865207a65726f206160008201527f6464726573730000000000000000000000000000000000000000000000000000602082015250565b6000612b77602683612098565b9150612b8282612b1b565b604082019050919050565b60006020820190508181036000830152612ba681612b6a565b9050919050565b7f455243313135353a2069647320616e6420616d6f756e7473206c656e6774682060008201527f6d69736d61746368000000000000000000000000000000000000000000000000602082015250565b6000612c09602883612098565b9150612c1482612bad565b604082019050919050565b60006020820190508181036000830152612c3881612bfc565b9050919050565b7f455243313135353a207472616e7366657220746f20746865207a65726f20616460008201527f6472657373000000000000000000000000000000000000000000000000000000602082015250565b6000612c9b602583612098565b9150612ca682612c3f565b604082019050919050565b60006020820190508181036000830152612cca81612c8e565b9050919050565b7f455243313135353a20696e73756666696369656e742062616c616e636520666f60008201527f72207472616e7366657200000000000000000000000000000000000000000000602082015250565b6000612d2d602a83612098565b9150612d3882612cd1565b604082019050919050565b60006020820190508181036000830152612d5c81612d20565b9050919050565b6000612d6e82611f05565b9150612d7983611f05565b9250828201905080821115612d9157612d906129a5565b5b92915050565b60006040820190508181036000830152612db181856125a6565b90508181036020830152612dc581846125a6565b90509392505050565b7f4f776e61626c653a2063616c6c6572206973206e6f7420746865206f776e6572600082015250565b6000612e04602083612098565b9150612e0f82612dce565b602082019050919050565b60006020820190508181036000830152612e3381612df7565b9050919050565b7f455243313135353a2073657474696e6720617070726f76616c2073746174757360008201527f20666f722073656c660000000000000000000000000000000000000000000000602082015250565b6000612e96602983612098565b9150612ea182612e3a565b604082019050919050565b60006020820190508181036000830152612ec581612e89565b9050919050565b6000604082019050612ee16000830185611f7b565b612eee6020830184611f7b565b9392505050565b600081519050919050565b600082825260208201905092915050565b6000612f1c82612ef5565b612f268185612f00565b9350612f368185602086016120a9565b612f3f816120d3565b840191505092915050565b600060a082019050612f5f6000830188612626565b612f6c6020830187612626565b8181036040830152612f7e81866125a6565b90508181036060830152612f9281856125a6565b90508181036080830152612fa68184612f11565b90509695505050505050565b600081519050612fc181611fd1565b92915050565b600060208284031215612fdd57612fdc611e9d565b5b6000612feb84828501612fb2565b91505092915050565b60008160e01c9050919050565b600060033d11156130205760046000803e61301d600051612ff4565b90505b90565b600060443d106130b057613035611e93565b60043d036004823e80513d602482011167ffffffffffffffff8211171561305d5750506130b0565b808201805167ffffffffffffffff81111561307b57505050506130b0565b80602083010160043d0385018111156130985750505050506130b0565b6130a782602001850186612173565b82955050505050505b90565b7f455243313135353a207472616e7366657220746f206e6f6e2d4552433131353560008201527f526563656976657220696d706c656d656e746572000000000000000000000000602082015250565b600061310f603483612098565b915061311a826130b3565b604082019050919050565b6000602082019050818103600083015261313e81613102565b9050919050565b7f455243313135353a204552433131353552656365697665722072656a6563746560008201527f6420746f6b656e73000000000000000000000000000000000000000000000000602082015250565b60006131a1602883612098565b91506131ac82613145565b604082019050919050565b600060208201905081810360008301526131d081613194565b9050919050565b7f5061757361626c653a206e6f7420706175736564000000000000000000000000600082015250565b600061320d601483612098565b9150613218826131d7565b602082019050919050565b6000602082019050818103600083015261323c81613200565b9050919050565b7f496e697469616c697a61626c653a20636f6e7472616374206973206e6f74206960008201527f6e697469616c697a696e67000000000000000000000000000000000000000000602082015250565b600061329f602b83612098565b91506132aa82613243565b604082019050919050565b600060208201905081810360008301526132ce81613292565b9050919050565b7f5061757361626c653a2070617573656400000000000000000000000000000000600082015250565b600061330b601083612098565b9150613316826132d5565b602082019050919050565b6000602082019050818103600083015261333a816132fe565b9050919050565b600060a0820190506133566000830188612626565b6133636020830187612626565b6133706040830186611f7b565b61337d6060830185611f7b565b818103608083015261338f8184612f11565b90509695505050505050565b7f455243313135353a206275726e20616d6f756e74206578636565647320746f7460008201527f616c537570706c79000000000000000000000000000000000000000000000000602082015250565b60006133f7602883612098565b91506134028261339b565b604082019050919050565b60006020820190508181036000830152613426816133ea565b9050919050565b7f4e487b7100000000000000000000000000000000000000000000000000000000600052602260045260246000fd5b6000600282049050600182168061347457607f821691505b6020821081036134875761348661342d565b5b50919050565b60008190508160005260206000209050919050565b60006020601f8301049050919050565b600082821b905092915050565b6000600883026134ef7fffffffffffffffffffffffffffffffffffffffffffffffffffffffffffffffff826134b2565b6134f986836134b2565b95508019841693508086168417925050509392505050565b600061352c61352761352284611f05565b612ac5565b611f05565b9050919050565b6000819050919050565b61354683613511565b61355a61355282613533565b8484546134bf565b825550505050565b600090565b61356f613562565b61357a81848461353d565b505050565b5b8181101561359e57613593600082613567565b600181019050613580565b5050565b601f8211156135e3576135b48161348d565b6135bd846134a2565b810160208510156135cc578190505b6135e06135d8856134a2565b83018261357f565b50505b505050565b600082821c905092915050565b6000613606600019846008026135e8565b1980831691505092915050565b600061361f83836135f5565b9150826002028217905092915050565b6136388261208d565b67ffffffffffffffff81111561365157613650612144565b5b61365b825461345c565b6136668282856135a2565b600060209050601f8311600181146136995760008415613687578287015190505b6136918582613613565b8655506136f9565b601f1984166136a78661348d565b60005b828110156136cf578489015182556001820191506020850194506020810190506136aa565b868310156136ec57848901516136e8601f8916826135f5565b8355505b6001600288020188555050505b50505050505056fea26469706673582212204c72e8cec54f3ca839f28004f985b45c9b1d1161159d9ef64bff2ef497c5896964736f6c63430008130033",
  "linkReferences": {},
  "deployedLinkReferences": {}
}