{
  "address": "0x99e5595F34793200A8dbF09713cCEaf521D858a2",
  "abi": [
    {
      "inputs": [],
      "name": "InvalidConfig",
      "type": "error"
    },
    {
      "anonymous": false,
      "inputs": [
        {
          "indexed": false,
          "internalType": "bytes32",
          "name": "name",
          "type": "bytes32"
        },
        {
          "indexed": false,
          "internalType": "address",
          "name": "value",
          "type": "address"
        }
      ],
      "name": "ConfigAddresses",
      "type": "event"
    },
    {
      "anonymous": false,
      "inputs": [
        {
          "indexed": false,
          "internalType": "bytes32",
          "name": "kind",
          "type": "bytes32"
        },
        {
          "indexed": false,
          "internalType": "uint256",
          "name": "value",
          "type": "uint256"
        }
      ],
      "name": "ConfigMinDeposit",
      "type": "event"
    },
    {
      "anonymous": false,
      "inputs": [
        {
          "indexed": false,
          "internalType": "bytes32",
          "name": "name",
          "type": "bytes32"
        },
        {
          "indexed": false,
          "internalType": "uint256",
          "name": "value",
          "type": "uint256"
        }
      ],
      "name": "ConfigNumbers",
      "type": "event"
    },
    {
      "anonymous": false,
      "inputs": [
        {
          "indexed": false,
          "internalType": "uint8",
          "name": "version",
          "type": "uint8"
        }
      ],
      "name": "Initialized",
      "type": "event"
    },
    {
      "anonymous": false,
      "inputs": [
        {
          "indexed": true,
          "internalType": "address",
          "name": "previousOwner",
          "type": "address"
        },
        {
          "indexed": true,
          "internalType": "address",
          "name": "newOwner",
          "type": "address"
        }
      ],
      "name": "OwnershipTransferred",
      "type": "event"
    },
    {
      "inputs": [
        {
          "internalType": "bytes32",
          "name": "name",
          "type": "bytes32"
        },
        {
          "internalType": "address",
          "name": "value",
          "type": "address"
        }
      ],
      "name": "config",
      "outputs": [],
      "stateMutability": "nonpayable",
      "type": "function"
    },
    {
      "inputs": [
        {
          "internalType": "bytes32",
          "name": "name",
          "type": "bytes32"
        },
        {
          "internalType": "uint256",
          "name": "value",
          "type": "uint256"
        }
      ],
      "name": "config",
      "outputs": [],
      "stateMutability": "nonpayable",
      "type": "function"
    },
    {
      "inputs": [
        {
          "internalType": "bytes32",
          "name": "_name",
          "type": "bytes32"
        }
      ],
      "name": "getAddress",
      "outputs": [
        {
          "internalType": "address",
          "name": "",
          "type": "address"
        }
      ],
      "stateMutability": "view",
      "type": "function"
    },
    {
      "inputs": [
        {
          "internalType": "bytes32",
          "name": "_name",
          "type": "bytes32"
        }
      ],
      "name": "getMinDeposit",
      "outputs": [
        {
          "internalType": "uint256",
          "name": "",
          "type": "uint256"
        }
      ],
      "stateMutability": "view",
      "type": "function"
    },
    {
      "inputs": [
        {
          "internalType": "bytes32",
          "name": "_name",
          "type": "bytes32"
        }
      ],
      "name": "getNumber",
      "outputs": [
        {
          "internalType": "uint256",
          "name": "",
          "type": "uint256"
        }
      ],
      "stateMutability": "view",
      "type": "function"
    },
    {
      "inputs": [
        {
          "internalType": "address",
          "name": "_owner",
          "type": "address"
        },
        {
          "internalType": "address",
          "name": "_asset",
          "type": "address"
        },
        {
          "internalType": "uint256",
          "name": "_claimPeriod",
          "type": "uint256"
        },
        {
          "internalType": "uint256",
          "name": "_protocolFee",
          "type": "uint256"
        },
        {
          "internalType": "uint256",
          "name": "_retailerFee",
          "type": "uint256"
        },
        {
          "internalType": "address",
          "name": "_feeRecipient",
          "type": "address"
        },
        {
          "internalType": "bytes32[]",
          "name": "_kinds",
          "type": "bytes32[]"
        },
        {
          "internalType": "uint256[]",
          "name": "_minDeposits",
          "type": "uint256[]"
        }
      ],
      "name": "initialize",
      "outputs": [],
      "stateMutability": "nonpayable",
      "type": "function"
    },
    {
      "inputs": [],
      "name": "owner",
      "outputs": [
        {
          "internalType": "address",
          "name": "",
          "type": "address"
        }
      ],
      "stateMutability": "view",
      "type": "function"
    },
    {
      "inputs": [],
      "name": "renounceOwnership",
      "outputs": [],
      "stateMutability": "nonpayable",
      "type": "function"
    },
    {
      "inputs": [
        {
          "internalType": "bytes32[]",
          "name": "_kinds",
          "type": "bytes32[]"
        },
        {
          "internalType": "uint256[]",
          "name": "_minDeposits",
          "type": "uint256[]"
        }
      ],
      "name": "setMinDeposits",
      "outputs": [],
      "stateMutability": "nonpayable",
      "type": "function"
    },
    {
      "inputs": [
        {
          "internalType": "address",
          "name": "newOwner",
          "type": "address"
        }
      ],
      "name": "transferOwnership",
      "outputs": [],
      "stateMutability": "nonpayable",
      "type": "function"
    },
    {
      "inputs": [],
      "name": "variables",
      "outputs": [
        {
          "internalType": "bytes32[]",
          "name": "",
          "type": "bytes32[]"
        }
      ],
      "stateMutability": "view",
      "type": "function"
    }
  ],
  "transactionHash": "0x25b8a3f538d6c72189c7de5ce97f285eac0cc479cbb6ae723201931dc19c7f2e",
  "args": [],
  "numDeployments": 1,
  "solcInputHash": "ddba9953259946465ddf1a9195542df6",
  "bytecode": "0x608060405234801561001057600080fd5b50610af3806100206000396000f3fe608060405234801561001057600080fd5b50600436106100a95760003560e01c806373ba10af1161007157806373ba10af146101525780638da5cb5b14610172578063be45a26f14610183578063d366f3b914610198578063e0bed041146101ab578063f2fde38b146101be57600080fd5b806321f8a721146100ae5780632710e31c146100f45780632ecb0d641461010957806370f5a06f14610137578063715018a61461014a575b600080fd5b6100d76100bc3660046107bb565b6000908152606860205260409020546001600160a01b031690565b6040516001600160a01b0390911681526020015b60405180910390f35b6101076101023660046108a1565b6101d1565b005b6101296101173660046107bb565b60009081526067602052604090205490565b6040519081526020016100eb565b610107610145366004610954565b61039c565b6101076103b2565b6101296101603660046107bb565b60009081526069602052604090205490565b6033546001600160a01b03166100d7565b61018b6103c6565b6040516100eb91906109b8565b6101076101a63660046109fc565b6103d7565b6101076101b9366004610a28565b610458565b6101076101cc366004610a4a565b6104b3565b600054610100900460ff16158080156101f15750600054600160ff909116105b8061020b5750303b15801561020b575060005460ff166001145b6102735760405162461bcd60e51b815260206004820152602e60248201527f496e697469616c697a61626c653a20636f6e747261637420697320616c72656160448201526d191e481a5b9a5d1a585b1a5e995960921b60648201526084015b60405180910390fd5b6000805460ff191660011790558015610296576000805461ff0019166101001790555b61029f8961052c565b6102b164185cdcd95d60da1b896103d7565b6102ca6b18db185a5b57dc195c9a5bd960a21b88610458565b6102e46c19995957dc9958da5c1a595b9d609a1b856103d7565b60646102f0878761057e565b111561030f576040516306b7c75960e31b815260040160405180910390fd5b6103286b70726f746f636f6c5f66656560a01b87610458565b6103416b72657461696c65725f66656560a01b86610458565b61034b8383610593565b8015610391576000805461ff0019169055604051600181527f7f26b83ff96e1f2b6a682f133852f6798a09c465da95921460cefb38474024989060200160405180910390a15b505050505050505050565b6103a4610696565b6103ae8282610593565b5050565b6103ba610696565b6103c4600061052c565b565b60606103d260656106f0565b905090565b6103df610696565b600082815260686020526040902080546001600160a01b0319166001600160a01b038316179055610411606583610704565b50604080518381526001600160a01b03831660208201527febf631e9a1413b297652d8f579acde2702a565037af25cbe82d9fbdddac0d37c91015b60405180910390a15050565b610460610696565b600082815260676020526040902081905561047c606583610704565b5060408051838152602081018390527f054c1539ddd4910a1c8f1957b04176ca87f8095691110fc496fb0e4744fc8192910161044c565b6104bb610696565b6001600160a01b0381166105205760405162461bcd60e51b815260206004820152602660248201527f4f776e61626c653a206e6577206f776e657220697320746865207a65726f206160448201526564647265737360d01b606482015260840161026a565b6105298161052c565b50565b603380546001600160a01b038381166001600160a01b0319831681179093556040519116919082907f8be0079c531659141344cd1fd0a4f28419497f9722a3daafe3b4186f6b6457e090600090a35050565b600061058a8284610a7b565b90505b92915050565b80518251146105b5576040516306b7c75960e31b815260040160405180910390fd5b60005b8151811015610691578181815181106105d3576105d3610a8e565b6020026020010151606960008584815181106105f1576105f1610a8e565b60200260200101518152602001908152602001600020819055507f8f597cd6984187caee6d35c6fa154d2057f695bd1effdefd46b188234092fbdc83828151811061063e5761063e610a8e565b602002602001015183838151811061065857610658610a8e565b6020026020010151604051610677929190918252602082015260400190565b60405180910390a18061068981610aa4565b9150506105b8565b505050565b6033546001600160a01b031633146103c45760405162461bcd60e51b815260206004820181905260248201527f4f776e61626c653a2063616c6c6572206973206e6f7420746865206f776e6572604482015260640161026a565b606060006106fd83610710565b9392505050565b600061058a838361076c565b60608160000180548060200260200160405190810160405280929190818152602001828054801561076057602002820191906000526020600020905b81548152602001906001019080831161074c575b50505050509050919050565b60008181526001830160205260408120546107b35750815460018181018455600084815260208082209093018490558454848252828601909352604090209190915561058d565b50600061058d565b6000602082840312156107cd57600080fd5b5035919050565b80356001600160a01b03811681146107eb57600080fd5b919050565b634e487b7160e01b600052604160045260246000fd5b600082601f83011261081757600080fd5b8135602067ffffffffffffffff80831115610834576108346107f0565b8260051b604051601f19603f83011681018181108482111715610859576108596107f0565b60405293845285810183019383810192508785111561087757600080fd5b83870191505b848210156108965781358352918301919083019061087d565b979650505050505050565b600080600080600080600080610100898b0312156108be57600080fd5b6108c7896107d4565b97506108d560208a016107d4565b96506040890135955060608901359450608089013593506108f860a08a016107d4565b925060c089013567ffffffffffffffff8082111561091557600080fd5b6109218c838d01610806565b935060e08b013591508082111561093757600080fd5b506109448b828c01610806565b9150509295985092959890939650565b6000806040838503121561096757600080fd5b823567ffffffffffffffff8082111561097f57600080fd5b61098b86838701610806565b935060208501359150808211156109a157600080fd5b506109ae85828601610806565b9150509250929050565b6020808252825182820181905260009190848201906040850190845b818110156109f0578351835292840192918401916001016109d4565b50909695505050505050565b60008060408385031215610a0f57600080fd5b82359150610a1f602084016107d4565b90509250929050565b60008060408385031215610a3b57600080fd5b50508035926020909101359150565b600060208284031215610a5c57600080fd5b61058a826107d4565b634e487b7160e01b600052601160045260246000fd5b8082018082111561058d5761058d610a65565b634e487b7160e01b600052603260045260246000fd5b600060018201610ab657610ab6610a65565b506001019056fea2646970667358221220861808ba719cf697f9feb7f2de0f1d780204c1666a2b45778f9ce95e0efc170364736f6c63430008130033",
  "devdoc": {
    "errors": {
      "InvalidConfig()": [
        {
          "details": "Thrown when a user attempts to provide an invalid config property value"
        }
      ]
    },
    "events": {
      "ConfigAddresses(bytes32,address)": {
        "details": "Emitted when a variable is created/updated"
      },
      "ConfigMinDeposit(bytes32,uint256)": {
        "details": "Emitted when an entity minimum deposit set/updates"
      },
      "ConfigNumbers(bytes32,uint256)": {
        "details": "Emitted when a variable is created/updated"
      },
      "Initialized(uint8)": {
        "details": "Triggered when the contract has been initialized or reinitialized."
      }
    },
    "kind": "dev",
    "methods": {
      "config(bytes32,address)": {
        "details": "Changes variable address of value",
        "params": {
          "name": "Name of variable",
          "value": "Value of variable"
        }
      },
      "config(bytes32,uint256)": {
        "details": "Changes variable uint256 of value",
        "params": {
          "name": "Name of variable",
          "value": "Value of variable"
        }
      },
      "getAddress(bytes32)": {
        "details": "Returns an address by name",
        "params": {
          "_name": "An address name"
        },
        "returns": {
          "_0": "The address value"
        }
      },
      "getMinDeposit(bytes32)": {
        "details": "Returns a minDeposit value of the entity",
        "params": {
          "_name": "An entity name"
        },
        "returns": {
          "_0": "The value of the number"
        }
      },
      "getNumber(bytes32)": {
        "details": "Returns a number by name",
        "params": {
          "_name": "A number name"
        },
        "returns": {
          "_0": "The value of the number"
        }
      },
      "initialize(address,address,uint256,uint256,uint256,address,bytes32[],uint256[])": {
        "details": "Initializes Config contract",
        "params": {
          "_asset": "The address of the asset used by the protocol in tokenomics",
          "_claimPeriod": "The default time period, in seconds, allowed for the supplier to claim the deal.",
          "_feeRecipient": "he recipient of the protocol fee",
          "_kinds": "Supported entity types",
          "_minDeposits": "Minimum value of deposit",
          "_protocolFee": "Protocol's fee in percents",
          "_retailerFee": "Retailer's fee in percents"
        }
      },
      "owner()": {
        "details": "Returns the address of the current owner."
      },
      "renounceOwnership()": {
        "details": "Leaves the contract without owner. It will not be possible to call `onlyOwner` functions anymore. Can only be called by the current owner. NOTE: Renouncing ownership will leave the contract without an owner, thereby removing any functionality that is only available to the owner."
      },
      "setMinDeposits(bytes32[],uint256[])": {
        "details": "Sets minimum deposits values",
        "params": {
          "_kinds": "Supported entity types",
          "_minDeposits": "Minimum value of deposit"
        }
      },
      "transferOwnership(address)": {
        "details": "Transfers ownership of the contract to a new account (`newOwner`). Can only be called by the current owner."
      },
      "variables()": {
        "details": "Returns a list of registered config variables names",
        "returns": {
          "_0": "Array of registered variables names"
        }
      }
    },
    "stateVariables": {
      "addresses": {
        "details": "Mapping of a named Id to address"
      },
      "minDeposits": {
        "details": "Mapping of en entity type on minimum deposit value"
      },
      "numbers": {
        "details": "Mapping of a named Id to uint256 number"
      }
    },
    "version": 1
  },
  "userdoc": {
    "kind": "user",
    "methods": {},
    "version": 1
  },
  "storageLayout": {
    "storage": [
      {
        "astId": 152,
        "contract": "contracts/Config.sol:Config",
        "label": "_initialized",
        "offset": 0,
        "slot": "0",
        "type": "t_uint8"
      },
      {
        "astId": 155,
        "contract": "contracts/Config.sol:Config",
        "label": "_initializing",
        "offset": 1,
        "slot": "0",
        "type": "t_bool"
      },
      {
        "astId": 3290,
        "contract": "contracts/Config.sol:Config",
        "label": "__gap",
        "offset": 0,
        "slot": "1",
        "type": "t_array(t_uint256)50_storage"
      },
      {
        "astId": 10,
        "contract": "contracts/Config.sol:Config",
        "label": "_owner",
        "offset": 0,
        "slot": "51",
        "type": "t_address"
      },
      {
        "astId": 130,
        "contract": "contracts/Config.sol:Config",
        "label": "__gap",
        "offset": 0,
        "slot": "52",
        "type": "t_array(t_uint256)49_storage"
      },
      {
        "astId": 6000,
        "contract": "contracts/Config.sol:Config",
        "label": "_variables",
        "offset": 0,
        "slot": "101",
        "type": "t_struct(Bytes32Set)5572_storage"
      },
      {
        "astId": 6005,
        "contract": "contracts/Config.sol:Config",
        "label": "numbers",
        "offset": 0,
        "slot": "103",
        "type": "t_mapping(t_bytes32,t_uint256)"
      },
      {
        "astId": 6010,
        "contract": "contracts/Config.sol:Config",
        "label": "addresses",
        "offset": 0,
        "slot": "104",
        "type": "t_mapping(t_bytes32,t_address)"
      },
      {
        "astId": 6015,
        "contract": "contracts/Config.sol:Config",
        "label": "minDeposits",
        "offset": 0,
        "slot": "105",
        "type": "t_mapping(t_bytes32,t_uint256)"
      }
    ],
    "types": {
      "t_address": {
        "encoding": "inplace",
        "label": "address",
        "numberOfBytes": "20"
      },
      "t_array(t_bytes32)dyn_storage": {
        "base": "t_bytes32",
        "encoding": "dynamic_array",
        "label": "bytes32[]",
        "numberOfBytes": "32"
      },
      "t_array(t_uint256)49_storage": {
        "base": "t_uint256",
        "encoding": "inplace",
        "label": "uint256[49]",
        "numberOfBytes": "1568"
      },
      "t_array(t_uint256)50_storage": {
        "base": "t_uint256",
        "encoding": "inplace",
        "label": "uint256[50]",
        "numberOfBytes": "1600"
      },
      "t_bool": {
        "encoding": "inplace",
        "label": "bool",
        "numberOfBytes": "1"
      },
      "t_bytes32": {
        "encoding": "inplace",
        "label": "bytes32",
        "numberOfBytes": "32"
      },
      "t_mapping(t_bytes32,t_address)": {
        "encoding": "mapping",
        "key": "t_bytes32",
        "label": "mapping(bytes32 => address)",
        "numberOfBytes": "32",
        "value": "t_address"
      },
      "t_mapping(t_bytes32,t_uint256)": {
        "encoding": "mapping",
        "key": "t_bytes32",
        "label": "mapping(bytes32 => uint256)",
        "numberOfBytes": "32",
        "value": "t_uint256"
      },
      "t_struct(Bytes32Set)5572_storage": {
        "encoding": "inplace",
        "label": "struct EnumerableSetUpgradeable.Bytes32Set",
        "members": [
          {
            "astId": 5571,
            "contract": "contracts/Config.sol:Config",
            "label": "_inner",
            "offset": 0,
            "slot": "0",
            "type": "t_struct(Set)5378_storage"
          }
        ],
        "numberOfBytes": "64"
      },
      "t_struct(Set)5378_storage": {
        "encoding": "inplace",
        "label": "struct EnumerableSetUpgradeable.Set",
        "members": [
          {
            "astId": 5373,
            "contract": "contracts/Config.sol:Config",
            "label": "_values",
            "offset": 0,
            "slot": "0",
            "type": "t_array(t_bytes32)dyn_storage"
          },
          {
            "astId": 5377,
            "contract": "contracts/Config.sol:Config",
            "label": "_indexes",
            "offset": 0,
            "slot": "1",
            "type": "t_mapping(t_bytes32,t_uint256)"
          }
        ],
        "numberOfBytes": "64"
      },
      "t_uint256": {
        "encoding": "inplace",
        "label": "uint256",
        "numberOfBytes": "32"
      },
      "t_uint8": {
        "encoding": "inplace",
        "label": "uint8",
        "numberOfBytes": "1"
      }
    }
  }
}